:020000040000FA
:10000000D0250020150200001D0200001F02000084
:100010002102000023020000250200000000000071
:1000200000000000000000000000000027020000A7
:1000300029020000000000002B0200002D02000039
:100040002F0200002F020000990700002F0200007D
:100050002F0200002F0200002F02000039030000D1
:100060004D0700002F0200002F0200002F020000A9
:100070002F0200002F0200002F0200002F020000BC
:100080002F0200002F0200002F0200002F020000AC
:100090002F0200002F0200002F0200002F0200009C
:1000A0002F0200002F0200002F0200002F0200008C
:1000B0002F0200002F0200000000000000000000DE
:1000C0002F0200002F0200002F0200002F0200006C
:1000D0002F0200002F0200002F020000000000008D
:1000E0000000000000000000000000000000000010
:1000F0000000000000000000000000000000000000
:1001000000000000000000000000000000000000EF
:1001100000000000000000000000000000000000DF
:1001200000000000000000000000000000000000CF
:1001300000000000000000000000000000000000BF
:1001400000000000000000000000000000000000AF
:10015000000000000000000000000000000000009F
:10016000000000000000000000000000000000008F
:10017000000000000000000000000000000000007F
:10018000000000000000000000000000000000006F
:10019000000000000000000000000000000000005F
:1001A000000000000000000000000000000000004F
:1001B000000000000000000000000000000000003F
:1001C000000000000000000000000000000000002F
:1001D000000000000000000000000000000000001F
:1001E000000000000000000000000000000000000F
:1001F00000000000000000000000000000000000FF
:10020000DFF80CD000F066F800480047010F00004E
:10021000D02500200648804706480047FEE7FEE755
:10022000FEE7FEE7FEE7FEE7FEE7FEE7FEE7FEE7A6
:100230008104000001020000004870474C220000C9
:1002400040EA01039B0703D009E008C9121F08C058
:10025000042AFAD203E011F8013B00F8013B521ED8
:10026000F9D27047421C10F8011B0029FBD1801AFB
:1002700070472DE9F05F0546002092469B46884670
:100280000646814640241BE0284641464746224612
:1002900000F041F853465A46C01A914110D3114616
:1002A0001846224600F028F82D1A67EB01084F4641
:1002B00022460120002100F01FF817EB00094E41F3
:1002C000201EA4F10104DFDC484631462A4643469D
:1002D000BDE8F09F064C074D06E0E06840F00103E2
:1002E00094E8070098471034AC42F6D3FFF78CFF30
:1002F0005C2200007C220000202A04DB203A00FA65
:1003000002F1002070479140C2F1200320FA03F36C
:10031000194390407047202A04DB203A21FA02F06A
:100320000021704721FA02F3D040C2F1200291402F
:1003300008431946704700002DE9FE434FF48278C8
:10034000404601F035FC4C4F00254C4C012600B3D3
:10035000404601F035FC94F82E0010B194F82F10AF
:10036000D1B18DF80050616801912189ADF8081074
:10037000E26832B1218B618362602181E56010B156
:1003800002E0257400E03E6021686846884784F8F2
:100390002F5094F82E0060B34FF48077384601F068
:1003A00007FC30B3384601F00BFC628B94F82D103B
:1003B0008A420AD9A2EB010080B260832289A2EBB3
:1003C0000000626802EB400005E007D1E06828B158
:1003D00084F82F60658301F0A5FB04E08A4202D116
:1003E00084F82F606583404601F0EAFB2248001D37
:1003F00006604FF48877384601F0DAFB48B138469A
:1004000001F0DEFB257402208DF8000021686846AB
:1004100088474FF48A77384601F0CAFB28B138463E
:1004200001F0CEFB2574BDE8FE834FF000484FF489
:100430008C7967691DE000BFB7FA87F028FA00F1F0
:1004400009EB80058F43284601F0B2FB88B12846AE
:1004500001F0B6FBA5F58C75E8088DF8040045F3AE
:100460008000401C8DF800608DF80500216868460A
:100470008847002FE0D1D6E70070004050000020F0
:10048000F0B5A3480023021D01780125101D4FF08F
:10049000805406290BD11678360708D10678C6F3A2
:1004A0000316032E06D0042E04D0052E02D00629F2
:1004B00007D00EE0B4F82463964FC6F304263E60DE
:1004C00002E01678360704D10678C6F30316032E29
:1004D00002D0062904D00FE0904F8F4E7E670EE0C9
:1004E0001678360708D10678C6F30316032E06D011
:1004F000042E04D0052E02D0062907D00EE0D4F831
:100500004462874FC6F342363E6002E016783607F3
:1005100004D10678C6F30316032E02D0062906D0AE
:1005200011E0804E376827F0807737600EE016784C
:10053000360708D10678C6F30316032E06D0042E1C
:1005400004D0052E02D006290AD011E04FF08046D3
:10055000C6F80C31C6F81031714E361F336002E018
:100560001678360704D10678C6F30316032E02D098
:10057000062905D00CE06A4F032664373E600AE086
:100580001678360704D10678C6F30316032E02D078
:1005900006290DD014E0644F05263E60624E783681
:1005A0003560614E083633603F263F1D3E6002E0F5
:1005B0001678360704D10678C6F30316052E02D046
:1005C000062957D068E059490968594A11605749C6
:1005D000091D0968121D1160544908310968121D6E
:1005E000116052490C310968121D11604F491031D8
:1005F0000968121D11604D4914310968121D1160FE
:100600004A49183109684A4A2032116047491C3169
:100610000968121D1160454920310968121D1160D9
:10062000424924310968121D116040492831096886
:10063000121D11603D492C310968121D11603B49A2
:10064000303109683A4A403211603849343109681A
:10065000121D1160354938310968121D1160334986
:100660003C310968121D1160304940310968121D82
:10067000116002E0117809070ED10078C0F3031071
:10068000032803D0042801D0052805D1D4F8580246
:10069000284900F04F00086022487438016841F48E
:1006A00070010160BFF34F8FBFF36F8F4FF01021C8
:1006B000D1F80002002803DBD1F80402002822DA76
:1006C0001D4A15601D480468002CFCD01524C1F893
:1006D00000420568002DFCD0C1F8044201680029E1
:1006E000FCD0136001680029FCD0BFF34F8F0D4888
:1006F000F0380168124A01F4E06111430160BFF370
:100700004F8F00BFFDE710490E480860F0BD0000A4
:10071000E00F00F0403501400DF0ADBA00C00740D9
:100720003C050040FCED00E01056004004040010C1
:1007300020C50040E40E004004E5014000E4014013
:100740000400FA050090D003380000202DE9F8439A
:1007500000250F4C04274FF4A078BE034FEA05098B
:1007600008EB850006FA05F122585AB1D4F80423A3
:100770000A4207D044F800902158064A0091516877
:10078000126890476D1CEDB2BD42E9D3BDE8F88315
:1007900000800040800000200448017F04480029B8
:1007A000024901D001F053BC01F0C2BB8C00002013
:1007B000002000400FB41CB50A46521ECDE90002CD
:1007C00007A9054B6A46069800F018F8009A002120
:1007D00011701CBC5DF814FB5F0C000002E008C83F
:1007E000121F08C1002AFAD170477047002001E0AB
:1007F00001C1121F002AFBD1704700002DE9FF4FF5
:100800008DB00F460546002606E025280BD0DDE911
:100810000F1290476D1C761C28780028F5D111B076
:100820003046BDE8F08F0024A246A1460122EC49E3
:1008300000E0044315F8013F203B02FA03F00842B0
:10084000F7D128782A2810D06FF02F022878A0F14D
:100850003001092914D80AEB8A0102EB410144F066
:10086000020400EB010A6D1CF0E701CF5FEA000A09
:1008700003D544F40054CAF1000A44F002046D1C8C
:1008800028782E2817D115F8010F44F004042A28DF
:100890000ED06FF02F022878A0F1300109290AD874
:1008A00009EB890102EB410100EB01096D1CF2E744
:1008B00057F8049B6D1C28786C280FD006DC4C2858
:1008C00017D068280DD06A2814D104E0742810D0FD
:1008D0007A280FD10DE044F400140AE044F48014A7
:1008E00001E044F440146978814202D104F5801497
:1008F0006D1C6D1C2A786E2A1FD00CDC632A31D047
:1009000004DC002A8BD0582A11D1A3E0642A68D0D5
:10091000692A0CD165E0732A2ED004DC6F2A73D0CB
:10092000702A04D19BE0752A6FD0782A6ED01046C9
:10093000DDE90F129047761C50E1C4F30250022803
:1009400006D0032809D0042801CF09D0066045E16C
:1009500001CFF117C0E9006140E101CF06803DE120
:1009600006703BE117F8040B8DF8000000208DF8AD
:100970000100EB46012003E057F804BB4FF0FF30C5
:1009800061074FF0000102D40DE008F10101884633
:1009900049450FDA8045F8DB1BF808100029F4D12F
:1009A00008E008F1010188468142FADB1BF80810D3
:1009B0000029F6D1DDE90F23AAEB08008146214684
:1009C00000F036F9304400EB080604E0DDE90F12D0
:1009D0001BF8010B9047B8F10108F7D221464846B1
:1009E000F7E00A21C4F302534FF0000B0891022BE9
:1009F00004D001CFC117032B09D00AE0FF1D27F057
:100A00000707F7E8020108E032E01FE020E000B24B
:100A1000C117042B01D140B2C117031E71F10003AD
:100A200007DA4FF0000CD0EB0C006CEB01012D232A
:100A300002E0230504D52B238DF82430012303E0A5
:100A4000E30701D02023F7E7984658E00A2110E099
:100A500010210EE010204FF0000B08900CE0102148
:100A60004FF0000B44F004044FF00809089103E034
:100A700008214FF0000B0891C4F30253022B04D05D
:100A800001CF0021032B06D006E0FF1D27F007074A
:100A9000F7E8020103E080B2042B00D1C0B24FF0AE
:100AA000000823072BD5702A07D0DDF820C08CF072
:100AB000100C5CEA0B0C05D00EE040238DF82430BE
:100AC000012308E050EA010306D030238DF82430DA
:100AD0008DF8252002239846DDF820C08CF0080C04
:100AE0005CEA0B0C0BD150EA010301D1630706D578
:100AF00030238DF824304FF00108A9F10109582A5C
:100B000004D038A20B9208AA0A920BE03AA2F9E7A5
:100B10005B46089AFFF7ADFB0B9B9B5C0A9A521E43
:100B20000A92137050EA0102F2D10A98ADEB00006C
:100B300000F1200B600702D524F4803401E04FF06F
:100B40000109D94502DDA9EB0B0000E0002000EB14
:100B50000B0141440890AAEB010AE00306D4DDE949
:100B60000F232146504600F063F806444FF0000979
:100B700008E009A911F80900DDE90F12904709F111
:100B80000109761CC145F4DBE0030CD5DDE90F2338
:100B90002146504600F04CF8064404E0DDE90F120F
:100BA00030209047761C0899481E08900029F5DCF3
:100BB00008E00A980A990078491C0A91DDE90F12A9
:100BC0009047761CBBF10001ABF1010BF1DC214633
:100BD0005046DDE90F2300F019F806446D1C1BE6B2
:100BE0000928010030313233343536373839616203
:100BF00063646566000000003031323334353637C7
:100C00003839414243444546000000002DE9F04197
:100C1000044600251E461746880404D405E03946DC
:100C20002020B0476D1C641EF9D52846BDE8F08130
:100C30002DE9F041044600251E469046C80301D523
:100C4000302700E02027880404D505E041463846D7
:100C5000B0476D1C641EF9D52846BDE8F0814A688E
:100C6000002A06D00A68531C0B6010704868401EAA
:100C7000486070470DA1012000F0BAFE00F012FE9E
:100C800000F014FE0028FBD10CA1032000F0B0FE00
:100C9000BFF34F8F10480168104A01F4E06111431F
:100CA0000160BFF34F8F00BFFDE700003A4552528D
:100CB0004F523A466174616C0D0A00003A494E4643
:100CC0004F3A486974207765616B2068616E646C87
:100CD00065720D0A000000000CED00E00400FA054A
:100CE0000EB500210091CDE901106A4644F20100E1
:100CF000FFF7C0FF0EBD00F003B800F009B8000018
:100D000072B602480168491C016070471C0000204F
:100D100003490868401E086000D162B670470000B1
:100D20001C0000202DE9F041064608680C46411CD5
:100D30004FF0A0474FF0010506D005FA00F1C7F8C3
:100D40000815206800F042FC6068411C02D00021B8
:100D500000F033FC3079204901EB4010A169007F9D
:100D600000283068C0F8241525D0607D227D3168C8
:100D70001043C1F86C05D4E900123068C0F80C15B6
:100D8000C0F8142524E0A068411C02D0002100F026
:100D900014FCE068411C05D08540C7F80855E068A0
:100DA00000F014FCD4E902123068C0F80825C0F83D
:100DB0001015BDE8F081607D217D32680843C2F8DE
:100DC0006C05D4E900123068C0F81425C0F80C1581
:100DD000207D0128D7D0ECE78C000020002901DA23
:100DE0000020704702681144016001207047000034
:100DF00070B5461C0D4601240020FFF77CFF114A08
:100E000010682860D2E900109568081A2B1A701C27
:100E10005B1C98420FD963B10B480C4B294000680A
:100E20001B6802EB810163F39F20C8601068401CBF
:100E30001060002401E0881910600020FFF75DFFBA
:100E4000204670BDB8010020A4210000340000201D
:100E5000034803C8814201D1012070470020704738
:100E6000B801002070B50E460446007918494FF4C9
:100E7000A27501EB4010017F2068A1B14FF4887189
:100E800000F0D5FE4FF49071206800F0D0FE4FF4D2
:100E90009271206800F0CBFE2946206800F0C7FE62
:100EA0000C49206809E04FF48E7100F0AFFE29462E
:100EB000206800F0ABFE08492068C0F804132068E1
:100EC00000F07DF83146BDE8704000F05CB80000ED
:100ED0008C000020100302008000020001218140EC
:100EE00003484068014201D001207047002070474C
:100EF0001400002001218140080300D00120704728
:100F0000002000F0CFFD08B1FFF7EAFE002000F05E
:100F100061F808B1FFF7E4FE00F0D6FD08B1FFF775
:100F2000DFFE09A1032000F063FD00F025FF00F0C3
:100F30005BFF00F04BFF00BF00F0DAFD00F0B6FCF5
:100F40000028FBD1F8E700004150503A494E464F87
:100F50003A53414144432048414C2073696D706CC1
:100F600065206578616D706C652E0D0A00000000CB
:100F700000F01F02012191404009800000F1E020B3
:100F8000C0F8801170474907090E002806DA00F002
:100F90000F0202F1E02282F8141D03E000F1E022CA
:100FA00082F8001400F01F020121914040098000E6
:100FB00000F1E020C0F88012C0F800117047000B6B
:100FC00040B270470121B1EB507F01D10120704741
:100FD0000020704770B50D4C217809B1852070BD97
:100FE00000B90B480B49007800F0010008604FF091
:100FF000E020D0F80001012510F0010F03D10721F6
:101000000020FFF7C0FF2570002070BD0800002001
:1010100059210000780500402DE9F0470427144EBF
:10102000814600244FF001080020FFF764FE08FA13
:1010300004F5354203D02046FFF750FF58B1002099
:10104000FFF75BFE27B104F10104AE43E4B2EBD13C
:101050003846BDE8F087074908FA04F000274A68D7
:101060001043486089F800403846FFF746FEEFE736
:10107000FFFF0F00140000202DE9F04114460D0081
:10108000074612D08CB10026FFF734FF78B13846FE
:10109000FFF724FF68B1084800EBC700C0F81055FF
:1010A000C0F814453046BDE8F0810E20FBE7072666
:1010B000F8E70826F6E7000000F0014070B50446A6
:1010C00001260025A640FFF715FF18B12046FFF7BF
:1010D00005FF18B102480660284670BD0825FBE7E9
:1010E00004F501400448017809B1852070470121C9
:1010F0000170002070470000140000202DE9F0412D
:10110000254C064612200D46C4F808032348017CEE
:10111000022918D0027C01464FF4807891F82E10F5
:10112000012A12D00222C4F8042301270774466062
:1011300005810022C26021B3458390F82D1030460E
:1011400000F0F0FC25E0122002E0C2682AB1022083
:10115000C4F804031120BDE8F081C660058361B9BD
:101160004746384600F024FD0028FAD0384600F003
:1011700027FD2946304600F0D5FC0220C4F80403C0
:1011800007E02946304600F0CDFC404600F018FD4F
:1011900027600020DFE700000070004050000020C2
:1011A00070B50C4614490546087C08B1112070BD85
:1011B0002079124E08B1012801D10020306001EBE6
:1011C0004500027F1AB911F82D2F521C0A70E179DF
:1011D0000177217A41772146284600F0ABFC227A3C
:1011E000E179284600F0DAFC207908B1012801D124
:1011F00001203060002070BD5000002000750040CC
:101200002DE9F0411D4C054694F82C0010B1082042
:10121000BDE8F08109B115B102E00720F8E7184DEB
:1012200044F8101B174928780860091D6878086081
:10123000E878A0770127277700202070607760602A
:10124000114EE0776FF00040C6F808034FF482704B
:1012500000F0B6FCB01500F0B3FCA9780720FFF74A
:1012600092FE0220C6F80403A07F10B10120C6F848
:1012700004030448F03807600020C9E7500000204C
:101280005A210000F075004000700040044890F8BA
:101290002E0008B1002000E00420024908447047F5
:1012A000500000200070004030B54FF480340568D5
:1012B0008C4013B1C5F8044301E0C5F80843006849
:1012C00000EB8100C0F8402530BD0000016801221C
:1012D0000A600079034A00EB400002EB8000022123
:1012E0000172704780000020F0B40468049E40F250
:1012F0000115D4F800728D40AF43C4F80072046841
:10130000D4F800521D43C4F800523346F0BCFFF736
:10131000CBBF0000F8B504460D460079204900EB2C
:10132000400001EB8006307A08B10820F8BD3AB1E0
:10133000326068687060002003464FF4A07709E0CF
:101340000720F8BD226807EB800153505158401C1C
:10135000C0B2009161798142F4D82068E978000B2D
:1013600040B2FFF710FE20686978D0F8042561F3D9
:101370000102C0F804252068A978D0F8082561F397
:101380000102C0F8082520682978D0F8102561F3FB
:101390000302C0F81025012030720020F8BD0000C3
:1013A000800000202DE9F04105460079164F904657
:1013B00007EB40140E46E07E10B10820BDE8F08136
:1013C000707F20772846FFF7ADFC5FEA0800606079
:1013D0003169216003D0317F2846FFF743FD28792A
:1013E00007EB4010007F0028286801D0082100E0AA
:1013F0000421C0F800150020E0752076A0750121B9
:10140000E176A076DAE700008C0000202DE9F047B5
:10141000054600793F4E904606EB40140F46207F6C
:1014200018B10846FFF7CEFD30B1284600F074F839
:1014300020B11120BDE8F0871020FBE784F816806A
:10144000A7600027A78228794FF0010806EB401417
:101450003E46207F0028286825D04FF490794946E1
:1014600000F0E5FB4FF4AC7A5146286800F0DFFB52
:101470002868A17DA268C0F84425C0F848152868EE
:10148000C0F808806068F0B94946286800F0CAFBD7
:1014900080465146286800F0C5FB58EA0001F3D0A9
:1014A00058BBA7750FE04FF48E7A514600F0AEFBA3
:1014B0002868C0F808802146286800F013FD61689C
:1014C0004FF4807089B13046B4E75146286800F087
:1014D00098FB10B9A08A4845F7D1A08A484505D0A5
:1014E0002146286800F0FEFC00E08146A08AA17D2C
:1014F0008842EAD3A08A484501D10F26D1E7514658
:10150000286800F07EFB0028F9D02868C0F80C801D
:10151000C7E700008C0000200079044901EB40106F
:10152000807D002800D00120704700008C00002042
:1015300070B5044600791149002601EB401520687A
:101540002A7FC0F80065686888B1207901EB4010F7
:10155000007F0028206801D0094901E008498C3942
:10156000C0F808132068FFF72AFDFFF701FD2046A9
:1015700000F064FBEE766E6070BD00008C00002011
:101580001003020070B541EA4201DDE904564FF054
:10159000A04441EA830141EA052104EB800041EACD
:1015A0000641C0F8001770BD1CB5002100910B4624
:1015B00001220191FFF7E6FF1CBD1CB500220B467E
:1015C000009211460192FFF7DDFF1CBD1CB5002102
:1015D00000910B46012201911146FFF7D3FF1CBD7C
:1015E000004870475916000030B5184C054689B0C0
:1015F000207828B16078854202D1002009B030BD42
:10160000202213496846FEF71BFE00208DF81400C7
:1016100006200090082001900520039007200290EA
:101620004FF0EB7006900948001DFFF781FF0DB1E8
:10163000002200E0074A05486946001DFFF7B2FE98
:101640000028DBD1012020706570D6E7280000203B
:1016500084210000211F00002DE9F04FC1B00D00D2
:101660004FF0000140914D984B991C46174601EBF5
:10167000000B01D00A2000E00020804600F0FAFBB9
:1016800000287CD16E46BCB9409840AA3118284643
:1016900000F00EFC002872D03846FEF7E3FDC228A9
:1016A00000D9C220054640982A4630443946FEF704
:1016B000C7FD4098284440904FF0200A409901EB24
:1016C000080231320DEB01050DEB0206002002E0AD
:1016D00005F801AB401C4045FAD300275C4508D310
:1016E00005F801AB05F801AB05F801AB06F801AB55
:1016F0002DE04B98844202D24A98005D02E0211A04
:101700004C98405C2B46814602460121880022FA13
:1017100000F000F00F00092801D9373000E0303028
:10172000C1F1010C491E03F80C00EFD29D1C05F815
:1017300001ABFEF781FD016811F8090010F03E0FC2
:1017400001D0484600E02E2006F8010B641C7F1CE7
:10175000102FC3D30D2030700A20707085F800A0C0
:101760004099684641444331409100F089FB30B1D3
:1017700000F080FB18B9002040905C459ED341B03A
:101780002046BDE8F08F2DE9F043C7B000251C4688
:10179000904689464E9F459500F06CFB00287AD113
:1017A000459805AE311845AA484600F081FB00284F
:1017B00035D0072F27D2DFE807F004121B35424F40
:1017C0005D004046FEF74EFD054645982918FF2965
:1017D00019D830442A464146FEF732FD13E04598B9
:1017E0002368C0F5807130444246FEF7E3FF09E00C
:1017F0006068009045982368C0F580713044424687
:10180000FEF7D8FF0546294645A8FFF7E7FA4599B0
:1018100078B3B1F5807F3ED805A800F031FB47B022
:10182000BDE8F083D4E90101CDE9000145982368C2
:10183000C0F5807130444246FEF7BCFFE2E7201D50
:1018400007C88DE8070045982368C0F580713044CB
:101850004246FEF7AFFFD5E7201D0FC88DE80F0009
:1018600045982368C0F5807130444246FEF7A2FFD8
:10187000C8E710E004F1080001AD0FC885E80F00CB
:101880006068009045982368C0F5807130444246F6
:10189000FEF790FFB6E70020C1E700000048704760
:1018A000871700000120FFF79FBE00002DE9F04FD1
:1018B00087B0FFF7CDFA18B1002007B0BDE8F08F70
:1018C000454ED6E9014704EA070006EB8000A14631
:1018D000641CC5680CE000BFC5F3891000EB95508F
:1018E000044404EA070006EB8000A146C568641CB6
:1018F000A807F1D005F003004FF0000B022805D037
:10190000AA0A01A8C5F38313002153E004EA0700E3
:1019100006EB800004F1010A0AEA0704C268381BDA
:1019200080004FEA9558001DC5F38913804521D9E1
:1019300029490C3138B106EB840400F0FF0CA8EB08
:1019400000000C3404E00C46002108F0FF0C0846AF
:10195000C0B2CDE90210CDE9004CD6F81444C5F36D
:10196000C2005946A047404511D108F103080AEBCF
:1019700098042AE0002106EB84000C300090CDE9A9
:1019800001810391C5F3C200D6F81444EAE760F37D
:101990008F1509EA070006EB8000C56016E000BF5E
:1019A00004EA070C06EB8C0C491CDCF80CC040F870
:1019B00004CB641C9942F3D3C5F3C2000093D6F85C
:1019C000105401AB5946A84700B17460FFF740FAC4
:1019D00080F0010071E70000B8010020034AFF23F6
:1019E000936000231360536000F054B8B8010020E6
:1019F0002DE9F8430F4F88460446002569462846DE
:101A0000BE68FFF7F5F9002812D00B4800214068A6
:101A100061F38200009964F3C50001EA060265F3F0
:101A2000891007EB820268F39F20491CD060009167
:101A3000BDE8F883B8010020A42100002DE9F84397
:101A4000124D884604460127914669463846AE68DD
:101A5000FFF7CEF9002817D00D480021806861F308
:101A60008200009964F3C50001EA060267F3891059
:101A700005EB820268F39F20491CD0600091314041
:101A800005EB8101C1F80C90BDE8F883B801002096
:101A9000A4210000024A02F5826203C270470000DE
:101AA000B801002070B506460020FFF79DFD040038
:101AB00008D1FFF795FD0546FFF7F0FE32462946AF
:101AC000FFF78CFF204670BD064910B50020487016
:101AD000091D0860BFF35F8F0349044800F07AF8DE
:101AE000002010BD2000002078210000AC00002064
:101AF00010B50020FFF7FFF8F1EE100A20F09F006C
:101B0000E1EE100ABFF35F8F05494020C1F8800263
:101B10000020FFF7F2F820BF40BF20BF10BD00003B
:101B200004E000E0024A1060101D016070470000F0
:101B30002C76004010B50A784B78302402F003026E
:101B400004EA03131A438B784FF4E06404EA032396
:101B50001A43CB784FF4805404EA03331A430B79C9
:101B60004FF4E02404EA03431A434B794FF4801402
:101B700004EA03531A438B79240104EA03631A43EA
:101B8000030105481844C0F81825CA79097AC0F835
:101B90001415C0F8102510BD007000400301034863
:101BA0001844C0F81425C0F81015704700700040A4
:101BB00002494058002800D00120704700700040C2
:101BC000034908B50844002202600068009008BD7F
:101BD00000700040016009684160AFF3008010B5FB
:101BE000D0E900215368994201D1002104E0D1E9F4
:101BF0000034A34202D01946816010BD0831416013
:101C0000F0E74058002800D00120704708B50022B6
:101C100042504058009008BDD0F80403084000D05E
:101C2000012070474058002800D00120704708B5B7
:101C3000002242504058009008BD000070B5034695
:101C400000791B4901EB40101968027F4FF0FF300B
:101C5000002AD1F80C25D1F81465D1F80855D1F82F
:101C6000104504D0C1F80C05C1F8140503E0C1F813
:101C70001405C1F80C051968C1F80805C1F810056C
:101C8000501C02D01046FFF78FFC701C02D030466B
:101C9000FFF78AFC601C02D02046FFF785FC681C19
:101CA00004D02846BDE87040FFF77EBC70BD000040
:101CB0008C00002070B50546C87D0C4600284FF406
:101CC000847128460AD0FFF7A1FFD5F81805627E77
:101CD000E1688854607E401C607670BDFFF796FF17
:101CE000D5F8180570BD1FB501238DF800308DF8AB
:101CF00008100192D0E90012684690471FBD00000D
:101D000070B50546007800281AD105216868FFF7EC
:101D1000F5F908B1FEF7E4FF0A4E0BA10320726843
:101D2000FFF78CFE002468680FA130F9142003200F
:101D3000FFF784FE641C052CF5DB7068401C7060A6
:101D400070BD0000000000204150503A494E464FFF
:101D50003A414443206576656E74206E756D626508
:101D6000723A2025640D0A004150503A494E464FC0
:101D70003A25640D0A0000000EB5114A07CA8DE825
:101D8000070010490020FFF73BFA08B1FEF7A8FF53
:101D900069460020FFF704FA08B1FEF7A1FF05210C
:101DA0000948FFF7ABF908B1FEF79AFF064805218D
:101DB0000A30FFF7A3F9002801D0FEF791FF0EBD0E
:101DC00050210000011D00003C000020054810B516
:101DD0000078FFF773F9002803D0BDE81040FEF744
:101DE0007FBF10BD000000203EB5FFF77BF908B1B2
:101DF000FEF776FF1B491C4AD1E90201CDE901013A
:101E000003208DF8060001A91648FFF783FA08B1F0
:101E1000FEF766FF134C2068D0F81005134A012323
:101E2000C2400020014600902046FFF75DFA2046A0
:101E3000FFF74CFA246804F5A074FFF727FA05466B
:101E40000B48FFF7E9F808B1FEF74AFF08482A46B1
:101E500021460078FFF710F9002801D0FEF740FF77
:101E60003EBD000040210000AD1E000000A8610042
:101E7000000000200148FFF74FBB00002C000020AD
:101E800070B50D460A46014601240648FEF7D8F90A
:101E9000EAB204490448FFF7B9FA00B10024204629
:101EA00070BD0000B80000202C000020704700002A
:101EB00010B5144602004FF001000CD0084613681C
:101EC00006A24FF48071FEF775FC01462046BDE87E
:101ED0001040FEF783BF0021216010BD5B25303824
:101EE000645D000070B50C4605464FF48E71FFF737
:101EF0008DFEA18AA068415CA08A401CA082C5F822
:101F00001C1570BD1FB500228DF800208DF808103B
:101F1000816801918275D0E90012684690471FBD23
:101F20000078012801D101498870704728000020FD
:101F30002DE9FF470C4605464FF40071FFF76CFE94
:101F400001274FF40178002618B34FF492794946DF
:101F50002846FFF756FEE0B149462846FFF756FEF1
:101F6000C5F80883A07E00B96F6002208DF80000DC
:101F7000D5F88004C5F880040390E07D8DF8080052
:101F8000E0680190E6752676D4E90012684690472D
:101F900027E004212846FFF73FFE10B34FF4847179
:101FA0002846FFF72EFEE0B121462846FFF782FEC5
:101FB000E07D617E884214D1207E38B1617EE26886
:101FC000E0752069E0602676667607E0A07E00B9BD
:101FD0006F60C5F80883E675617EE2682046FFF70A
:101FE00082FE4FF48E7841462846FFF70AFE88B1FC
:101FF000A08AA17D884204D221462846FFF772FFBD
:1020000008E041462846FFF701FEA17D11B12046B8
:10201000FFF778FF4FF4A27841462846FFF7F1FD1D
:10202000002812D041462846FFF7F0FDA07E00B1FF
:102030002F60E07D002808D0E675617EE26804B07C
:102040002046BDE8F047FFF74EBEBDE8FF872DE90B
:10205000FF410C464FF4927705463946FFF7E2FD03
:102060000026C0B139462846FFF7E1FD02208DF871
:102070000000D5F88004C5F880040390D5F83C052D
:102080008DF80800E0680190E6752676D4E9001224
:102090006846904724E04FF4887739462846FFF792
:1020A000C1FDE8B139462846FFF7C1FDD5F83C052A
:1020B000C1B2E07D884213D1207E60B1E268D5F8DC
:1020C000000220F02000C5F80002207EE0752069A3
:1020D000E060267601E0E675E2682046FFF703FE41
:1020E0004FF4A27739462846FFF79CFD68B1394680
:1020F0002846FFF79CFDE07D38B1E675D5F83C0534
:10210000E268C1B22046FFF7EEFD4FF4907631460B
:102110002846FFF787FD00280FD031462846FFF7F5
:1021200086FDA07D002808D0D5F84C0504B0C1B2CA
:102130002046BDE8F041FFF7E5BEBDE8FF810000A5
:1021400000800040000400000000000700000000C4
:102150000000000002000001000101000700000073
:10216000000000000000000000000000000000006F
:102170000000000000000000602100007821000045
:1021800004000000FFFFFFFFFFFFFFFFFFFFFFFF57
:10219000FFFFFFFF00000000000000000000D6016C
:1021A00007010000290000000100000001000000FC
:1021B000010000000100000001000000010000001B
:1021C000010000000200000000404040404040404C
:1021D00040404141414141404040404040404040FA
:1021E000404040404040404040050202020202029E
:1021F00002020202020202020220202020202020ED
:102200002020200202020202020290909090909000
:1022100010101010101010101010101010101010BE
:102220001010101002020202020288888888888832
:10223000080808080808080808080808080808081E
:10224000080808080202020240000000C92100003C
:102250004F766572666C6F770D0A00007C22000075
:10226000000000203C000000DC070000B822000055
:102270003C00002094250000EC0700000000000056
:10228000000000000000000000000000000000004E
:10229000000000000000000000000000000000003E
:1022A00000000000000000000020004000000000CE
:0822B000502200000090D00351
:0400000500000201F4
:00000001FF
