:020000040000FA
:1000000078250020150200001D0200001F020000DC
:100010002102000023020000250200000000000071
:1000200000000000000000000000000027020000A7
:1000300029020000000000002B0200002D02000039
:100040002F0200002F0200003105000039030000DC
:100050002F0200002F0200002F0200002F020000DC
:100060002F0200002F0200002F0200002F020000CC
:100070002F0200002F0200002F0200002F020000BC
:100080002F0200002F0200002F0200002F020000AC
:100090002F0200002F0200002F0200002F0200009C
:1000A0002F0200002F0200002F0200002F0200008C
:1000B0002F0200002F0200000000000000000000DE
:1000C0002F0200002F0200002F0200002F0200006C
:1000D0002F0200002F0200002F0200002F0200005C
:1000E0002F0200002F0200002F0200002F0200004C
:1000F000000000002F0200000000000000000000CF
:1001000000000000000000000000000000000000EF
:1001100000000000000000000000000000000000DF
:1001200000000000000000000000000000000000CF
:1001300000000000000000000000000000000000BF
:1001400000000000000000000000000000000000AF
:10015000000000000000000000000000000000009F
:10016000000000000000000000000000000000008F
:10017000000000000000000000000000000000007F
:10018000000000000000000000000000000000006F
:10019000000000000000000000000000000000005F
:1001A000000000000000000000000000000000004F
:1001B000000000000000000000000000000000003F
:1001C000000000000000000000000000000000002F
:1001D000000000000000000000000000000000001F
:1001E000000000000000000000000000000000000F
:1001F00000000000000000000000000000000000FF
:10020000DFF80CD000F066F800480047B50D00009C
:10021000782500200648804706480047FEE7FEE7AD
:10022000FEE7FEE7FEE7FEE7FEE7FEE7FEE7FEE7A6
:10023000490300000102000000487047FC1F000055
:1002400040EA01039B0703D009E008C9121F08C058
:10025000042AFAD203E011F8013B00F8013B521ED8
:10026000F9D27047421C10F8011B0029FBD1801AFB
:1002700070472DE9F05F0546002092469B46884670
:100280000646814640241BE0284641464746224612
:1002900000F041F853465A46C01A914110D3114616
:1002A0001846224600F028F82D1A67EB01084F4641
:1002B00022460120002100F01FF817EB00094E41F3
:1002C000201EA4F10104DFDC484631462A4643469D
:1002D000BDE8F09F064C074D06E0E06840F00103E2
:1002E00094E8070098471034AC42F6D3FFF78CFF30
:1002F0000C2000002C200000202A04DB203A00FA09
:1003000002F1002070479140C2F1200320FA03F36C
:10031000194390407047202A04DB203A21FA02F06A
:100320000021704721FA02F3D040C2F1200291402F
:1003300008431946704700000149024800F092BC8A
:10034000180000200030004030B54FF080500022EF
:10035000D0F830110123082902D1D0F8344114B16A
:10036000082909D00BE04FF08041C1F80C21C1F8F9
:10037000102161490A6005E0D0F8344114B1082920
:1003800057D059E05D4909685D4C21605B49091D02
:100390000968241D2160594908310968241D21601C
:1003A00056490C310968241D2160544910310968EF
:1003B000241D2160514914310968241D21604F49D1
:1003C000183109684E4C203421604C491C310968B1
:1003D000241D2160494920310968241D21604749B5
:1003E00024310968241D2160444928310968241DED
:1003F000216042492C310968241D21603F49303178
:1004000009683F4C403421603C4934310968241D5F
:1004100021603A4938310968241D216037493C314F
:100420000968241D2160354940310968241D216077
:1004300005E0D0F8344114B1082904D006E0324C6C
:100440003049216005E0D0F8344114B1082904D0C6
:1004500006E02E4CFB21216005E0D0F8344114B1B8
:10046000082908D00EE090F858422948016864F342
:100470000301016002E0D0F8340118B925494FF4B6
:10048000007008602448016841F470010160BFF306
:100490004F8FBFF36F8F4FF01021D1F8000200286B
:1004A00003DBD1F80402002822DA1C4C23601C482C
:1004B0000368002BFCD01223C1F800320568002D20
:1004C000FCD0C1F8043201680029FCD02260016828
:1004D0000029FCD0BFF34F8F0F487C380168114AC8
:1004E00001F4E06111430160BFF34F8F00BFFDE7EE
:1004F0000E490D48086030BD380500400404001066
:1005000020C50040488103008C56004018F500408B
:10051000E40E00404096024088ED00E004E5014012
:1005200000E401400400FA050090D003140000200C
:100530000448017F04480029024901D001F06FBC42
:1005400001F0DEBB40000020002000400FB41CB5CD
:100550000A46521ECDE9000207A9054B6A460698D5
:1005600000F018F8009A002111701CBC5DF814FB13
:10057000F709000002E008C8121F08C1002AFAD1DA
:1005800070477047002001E001C1121F002AFBD113
:10059000704700002DE9FF4F8DB00F46054600263D
:1005A00006E025280BD0DDE90F1290476D1C761C64
:1005B00028780028F5D111B03046BDE8F08F00242E
:1005C000A246A1460122EC4900E0044315F8013F90
:1005D000203B02FA03F00842F7D128782A2810D0ED
:1005E0006FF02F022878A0F13001092914D80AEB06
:1005F0008A0102EB410144F0020400EB010A6D1C88
:10060000F0E701CF5FEA000A03D544F40054CAF1D1
:10061000000A44F002046D1C28782E2817D115F822
:10062000010F44F004042A280ED06FF02F0228781E
:10063000A0F1300109290AD809EB890102EB410137
:1006400000EB01096D1CF2E757F8049B6D1C28783C
:100650006C280FD006DC4C2817D068280DD06A28EB
:1006600014D104E0742810D07A280FD10DE044F49E
:1006700000140AE044F4801401E044F44014697862
:10068000814202D104F580146D1C6D1C2A786E2AFB
:100690001FD00CDC632A31D004DC002A8BD0582A0E
:1006A00011D1A3E0642A68D0692A0CD165E0732ACD
:1006B0002ED004DC6F2A73D0702A04D19BE0752AF7
:1006C0006FD0782A6ED01046DDE90F129047761C65
:1006D00050E1C4F30250022806D0032809D00428B0
:1006E00001CF09D0066045E101CFF117C0E90061F3
:1006F00040E101CF06803DE106703BE117F8040BB5
:100700008DF8000000208DF80100EB46012003E089
:1007100057F804BB4FF0FF3061074FF0000102D4DF
:100720000DE008F10101884649450FDA8045F8DB04
:100730001BF808100029F4D108E008F101018846EF
:100740008142FADB1BF808100029F6D1DDE90F23FE
:10075000AAEB08008146214600F036F9304400EB50
:10076000080604E0DDE90F121BF8010B9047B8F111
:100770000108F7D221464846F7E00A21C4F30253A4
:100780004FF0000B0891022B04D001CFC117032BAF
:1007900009D00AE0FF1D27F00707F7E8020108E08B
:1007A00032E01FE020E000B2C117042B01D140B2BB
:1007B000C117031E71F1000307DA4FF0000CD0EBF4
:1007C0000C006CEB01012D2302E0230504D52B2343
:1007D0008DF82430012303E0E30701D02023F7E75D
:1007E000984658E00A2110E010210EE010204FF04A
:1007F000000B08900CE010214FF0000B44F00404B3
:100800004FF00809089103E008214FF0000B089110
:10081000C4F30253022B04D001CF0021032B06D0D6
:1008200006E0FF1D27F00707F7E8020103E080B2AA
:10083000042B00D1C0B24FF0000823072BD5702A3B
:1008400007D0DDF820C08CF0100C5CEA0B0C05D052
:100850000EE040238DF82430012308E050EA010324
:1008600006D030238DF824308DF8252002239846B9
:10087000DDF820C08CF0080C5CEA0B0C0BD150EAC0
:10088000010301D1630706D530238DF824304FF0E2
:100890000108A9F10109582A04D038A20B9208AA2C
:1008A0000A920BE03AA2F9E75B46089AFFF7E1FCEF
:1008B0000B9B9B5C0A9A521E0A92137050EA01022B
:1008C000F2D10A98ADEB000000F1200B600702D5D1
:1008D00024F4803401E04FF00109D94502DDA9EB91
:1008E0000B0000E0002000EB0B0141440890AAEB54
:1008F000010AE00306D4DDE90F232146504600F04B
:1009000063F806444FF0000908E009A911F809004E
:10091000DDE90F12904709F10109761CC145F4DBAE
:10092000E0030CD5DDE90F232146504600F04CF8DA
:10093000064404E0DDE90F1230209047761C089948
:10094000481E08900029F5DC08E00A980A9900780A
:10095000491C0A91DDE90F129047761CBBF100019A
:10096000ABF1010BF1DC21465046DDE90F2300F02D
:1009700019F806446D1C1BE609280100303132339A
:1009800034353637383961626364656600000000CB
:1009900030313233343536373839414243444546B5
:1009A000000000002DE9F041044600251E461746D0
:1009B000880404D405E039462020B0476D1C641E2D
:1009C000F9D52846BDE8F0812DE9F041044600251F
:1009D0001E469046C80301D5302700E02027880432
:1009E00004D505E041463846B0476D1C641EF9D574
:1009F0002846BDE8F0814A68002A06D00A68531CE0
:100A00000B6010704868401E486070470DA10120BF
:100A100000F09CFE00F0F4FD00F0F6FD0028FBD194
:100A20000CA1032000F092FEBFF34F8F1048016825
:100A3000104A01F4E06111430160BFF34F8F00BF22
:100A4000FDE700003A4552524F523A466174616CDC
:100A50000D0A00003A494E464F3A486974207765BE
:100A6000616B2068616E646C65720D0A00000000A5
:100A70000CED00E00400FA050EB500210091CDE96F
:100A800001106A4644F20100FFF7C0FF0EBD00F0FE
:100A900003B800F009B8000072B602480168491CAA
:100AA000016070470000002003490868401E08608C
:100AB00000D162B6704700000000002070B5054606
:100AC00008680C46411C04D000F02EFC206800F0A1
:100AD000F0FB6068411C02D0002100F0E1FB2879A6
:100AE0001F4901EB40102968007F0028A069C1F868
:100AF000240523D0607D227D29681043C1F86C0550
:100B0000D4E900122868C0F80C15C0F8142522E0BA
:100B1000A068411C02D0002100F0C2FBE068411C2B
:100B200004D000F001FCE06800F0C3FBD4E902123D
:100B30002868C0F80825C0F8101570BD607D217DBB
:100B40002A680843C2F86C05D4E900122868C0F886
:100B50001425C0F80C15207D0128D9D070BD0000E7
:100B600040000020002901DA00207047026811448B
:100B7000016001207047000070B5461C0D4601243D
:100B80000020FFF784FF114A10682860D2E90010A6
:100B90009568081A2B1A701C5B1C98420FD963B118
:100BA0000B480C4B294000681B6802EB810163F382
:100BB0009F20C8601068401C1060002401E0881964
:100BC00010600020FFF765FF204670BD6001002027
:100BD000541F000010000020034803C8814201D1C7
:100BE00001207047002070476001002070B50E465C
:100BF0000446007918494FF4A27501EB4010017FBB
:100C00002068A1B14FF4887100F02DFE4FF490716F
:100C1000206800F028FE4FF49271206800F023FE57
:100C20002946206800F01FFE0C49206809E04FF4B7
:100C30008E7100F007FE2946206800F003FE084987
:100C40002068C0F80413206800F08BF93146BDE835
:100C5000704000F06AB9000040000020100302005C
:100C6000800002002DE9FF470D464FF492770446BD
:100C7000394600F0D7FD4FF002094FF001084FF45C
:100C8000827640B13946204600F0D1FD31462046FB
:100C900000F0C8FDB0B3B2463146204600F0C2FDB8
:100CA0004FF0FF36002770B35146204600F0BFFDDD
:100CB00005F10C0001AB07C883E8070095F8230095
:100CC00078B1287B01282DD0D4F84C05C0B28DF81E
:100CD0000600287B022828D0D4F84C05C0B28DF835
:100CE00007004FF4B071204600F0A1FD4FF4AE7143
:100CF000204600F09CFD95F8250080B395F8230070
:100D000068BB3CE000E013E0A868C4F80803C5F83D
:100D10000890A868C4F80403C4F82080C4F81480BC
:100D2000BDE8FF87D4F83C05D0E7D4F83C05D5E70B
:100D30004FF4A471204600F07AFD287B80B14FF477
:100D40000070C4F80002801CA860C4F80863A8689A
:100D5000C4F80403C4F80880C4F82080E0E708E081
:100D600005F10C0001AB07C883E8070095F82500E2
:100D700028B90020C4F80002AF60C4F80863D4F8B2
:100D8000C404C4F8C404810702D58DF8008006E0CD
:100D9000400702D58DF8009001E08DF8007095F8BD
:100DA000250008B985F82470D5E9002168469047E8
:100DB000B6E7000008B50025284600F021FD08B17F
:100DC000FFF75AFE15A1032000F0C0FC00F01CFC48
:100DD0000028FBD100F038FE012401236A46214699
:100DE000144800F027F928B90125224612A1032052
:100DF00000F0D2FC00F008FC0028FBD1641CE4B237
:100E00007F2CEAD945B918A1032000F09FFC00BF50
:100E100000F0FAFB0028FBD1FEE700004150503AF9
:100E2000494E464F3A545749207363616E6E65725E
:100E30002E0D0A00101F00004150503A494E464FF7
:100E40003A54574920646576696365206465746522
:100E500063746564206174206164647265737320D7
:100E6000307825782E0D0A004150503A494E464FB1
:100E70003A4E6F20646576696365207761732066FA
:100E80006F756E642E0D0A0000283ED01F49204A5F
:100E9000096800BF00BF00BF00BF00BF00BF00BFA8
:100EA00000BF91422FD000BF00BF00BF00BF00BFF6
:100EB00000BF00BF00BF00BF00BF00BF00BF00BF3A
:100EC00000BF00BF00BF00BF00BF00BF00BF00BF2A
:100ED00000BF00BF00BF00BF00BF00BF00BF00BF1A
:100EE00000BF00BF00BF00BF00BF00BF00BF00BF0A
:100EF00000BF00BF00BF00BF00BF00BF00BF00BFFA
:100F000000BF00BF00BF401EC3D1704714000020C7
:100F10000024F40000F01F020121914040098000EC
:100F200000F1E020C0F8801170474907090E002841
:100F300006DA00F00F0202F1E02282F8141D03E04D
:100F400000F1E02282F8001400F01F02012191401C
:100F50004009800000F1E020C0F88012C0F80011C4
:100F60007047000B40B270470121B1EB507F01D1B7
:100F700001207047002070470121B1EB507F01D163
:100F800001207047002070470179064A01EB81017A
:100F9000006802EBC1010622C0F80025022081F89A
:100FA000220070471800002070B506460D460079F3
:100FB0001F4900EB800001EBC00494F8220008B147
:100FC000082070BD0020C4E90023A06084F825003B
:100FD00084F82400A87B84F82700687B10B1284699
:100FE00000F0E0FC296840F20C60890001F1A041AA
:100FF000C1F800076968890001F1A041C1F8000744
:10100000D5E900123068C0F80815C0F80C25A968A9
:10101000C0F82415206828B13068297B000B40B245
:10102000FFF783FF012084F82200002070BD00003C
:10103000180000203EB5074D2C68AD6800948DF86F
:101040000110019202958DF802300022694600F0ED
:1010500003F83EBD281F000030B40379064C03EBB3
:10106000830304EBC304006813460A460146204686
:1010700030BC00F0FFBC0000180000202DE9F0415A
:1010800005460079164F904607EB40140E46E07E69
:1010900010B10820BDE8F081707F20772846FFF767
:1010A0000DFD5FEA080060603169216003D0317F87
:1010B0002846FFF79BFD287907EB4010007F0028AA
:1010C000286801D0082100E00421C0F800150020A4
:1010D000E0752076A0750121E176A076DAE70000C0
:1010E000400000202DE9F047054600793F4E90462C
:1010F00006EB40140F46207F18B10846FFF73CFF6F
:1011000030B1284600F074F820B11120BDE8F08716
:101110001020FBE784F81680A7600027A7822879B3
:101120004FF0010806EB40143E46207F0028286857
:1011300025D04FF49079494600F095FB4FF4AC7AF6
:101140005146286800F08FFB2868A17DA268C0F88E
:101150004425C0F848152868C0F808806068F0B9D0
:101160004946286800F07AFB80465146286800F01E
:1011700075FB58EA0001F3D058BBA7750FE04FF498
:101180008E7A514600F05EFB2868C0F80880214640
:10119000286800F08FFD61684FF4807089B1304697
:1011A000B4E75146286800F048FB10B9A08A4845CA
:1011B000F7D1A08A484505D02146286800F07AFD7D
:1011C00000E08146A08AA17D8842EAD3A08A4845F2
:1011D00001D10F26D1E75146286800F02EFB0028E8
:1011E000F9D02868C0F80C80C7E700004000002054
:1011F0000079044901EB4010807D002800D00120D7
:10120000704700004000002070B504460079114985
:10121000002601EB401520682A7FC0F80065686849
:1012200088B1207901EB4010007F0028206801D0B0
:10123000094901E008498C39C0F808132068FFF714
:1012400090FEFFF767FE204600F014FBEE766E601E
:1012500070BD000040000020100302002DE9FF4196
:101260001C46DDE90A7815460E46684600F044F84B
:1012700046EA450141EA840141EA072242EA08417F
:10128000009A00EB8200C0F80017BDE8FF811CB592
:10129000002100910B4601220191FFF7DFFF1CBDE9
:1012A0001CB500220B46009211460192FFF7D6FFB3
:1012B0001CBD1CB5002100910B4601220191114675
:1012C000FFF7CCFF1CBD01B5684600F007F8009A97
:1012D00001219140C0F80C1508BD000001682029CB
:1012E00002D24FF0A040704701F01F010160014899
:1012F00070470000000300500168202902D24FF01F
:10130000A040704701F01F010160014870470000D4
:101310000003005001B56846FFF7E0FF009A012185
:101320009140C0F8081508BD01B56846FFF7E4FF15
:10133000009A01219140C0F8081508BD0048704787
:10134000B513000030B5184C054689B0207828B197
:101350006078854202D1002009B030BD20221349B7
:101360006846FEF76DFF00208DF8140006200090FF
:101370000820019005200390072002904FF0EB70A9
:1013800006900948001DFFF73FFF0DB1002200E065
:10139000074A05486946001DFFF770FE0028DBD1AB
:1013A000012020706570D6E704000020341F000083
:1013B000F11C00002DE9F04FC1B00D004FF000010D
:1013C00040914D984B991C46174601EB000B01D0FC
:1013D0000A2000E00020804600F0AEFA00287CD110
:1013E0006E46BCB9409840AA3118284600F0C0FAB1
:1013F000002872D03846FEF735FFC22800D9C22037
:10140000054640982A4630443946FEF719FF409871
:10141000284440904FF0200A409901EB08023132F5
:101420000DEB01050DEB0206002002E005F801AB13
:10143000401C4045FAD300275C4508D305F801ABB2
:1014400005F801AB05F801AB06F801AB2DE04B98B0
:10145000844202D24A98005D02E0211A4C98405C16
:101460002B46814602460121880022FA00F000F056
:101470000F00092801D9373000E03030C1F1010CEC
:10148000491E03F80C00EFD29D1C05F801ABFEF7D6
:10149000D3FE016811F8090010F03E0F01D0484654
:1014A00000E02E2006F8010B641C7F1C102FC3D314
:1014B0000D2030700A20707085F800A040996846B1
:1014C00041444331409100F03DFA30B100F034FA2C
:1014D00018B9002040905C459ED341B02046BDE83D
:1014E000F08F2DE9F043C7B000251C469046894691
:1014F0004E9F459500F020FA00287AD1459805AE18
:10150000311845AA484600F033FA002835D0072F95
:1015100027D2DFE807F004121B35424F5D0040463A
:10152000FEF7A0FE054645982918FF2919D8304432
:101530002A464146FEF784FE13E045982368C0F52D
:10154000807130444246FFF701F809E0606800907E
:1015500045982368C0F5807130444246FEF7F6FF97
:101560000546294645A8FFF7FDFA459978B3B1F538
:10157000807F3ED805A800F0E5F947B0BDE8F083CC
:10158000D4E90101CDE9000145982368C0F58071D7
:1015900030444246FEF7DAFFE2E7201D07C88DE837
:1015A000070045982368C0F5807130444246FEF735
:1015B000CDFFD5E7201D0FC88DE80F0045982368A3
:1015C000C0F5807130444246FEF7C0FFC8E710E026
:1015D00004F1080001AD0FC885E80F0060680090B5
:1015E00045982368C0F5807130444246FEF7AEFF4F
:1015F000B6E70020C1E7000000487047E314000090
:101600000120FFF79FBE00002DE9F04F87B0FFF7E4
:10161000E3FA18B1002007B0BDE8F08F454ED6E9D7
:10162000014704EA070006EB8000A146641CC56878
:101630000CE000BFC5F3891000EB9550044404EAA8
:10164000070006EB8000A146C568641CA807F1D01E
:1016500005F003004FF0000B022805D0AA0A01A8EC
:10166000C5F38313002153E004EA070006EB800072
:1016700004F1010A0AEA0704C268381B80004FEA35
:101680009558001DC5F38913804521D929490C318E
:1016900038B106EB840400F0FF0CA8EB00000C341A
:1016A00004E00C46002108F0FF0C0846C0B2CDE96A
:1016B0000210CDE9004CD6F81444C5F3C2005946D7
:1016C000A047404511D108F103080AEB98042AE02D
:1016D000002106EB84000C300090CDE901810391DC
:1016E000C5F3C200D6F81444EAE760F38F1509EA9F
:1016F000070006EB8000C56016E000BF04EA070C97
:1017000006EB8C0C491CDCF80CC040F804CB641CC4
:101710009942F3D3C5F3C2000093D6F8105401AB3D
:101720005946A84700B17460FFF756FA80F00100EF
:1017300071E7000060010020034AFF23936000234B
:101740001360536000F054B8600100202DE9F843A5
:101750000F4F88460446002569462846BE68FFF7B5
:101760000BFA002812D00B480021406861F3820078
:10177000009964F3C50001EA060265F3891007EBDE
:10178000820268F39F20491CD0600091BDE8F88375
:1017900060010020541F00002DE9F843124D8846D7
:1017A00004460127914669463846AE68FFF7E4F9DA
:1017B000002817D00D480021806861F3820000994D
:1017C00064F3C50001EA060267F3891005EB8202A3
:1017D00068F39F20491CD0600091314005EB8101E6
:1017E000C1F80C90BDE8F88360010020541F000090
:1017F000024A02F5826203C27047000060010020C5
:1018000070B506460020FFF79DFD040008D1FFF7E4
:1018100095FD0546FFF7F0FE32462946FFF78CFF9F
:10182000204670BD4058002800D00120704708B500
:10183000002242504058009008BD4058002800D077
:101840000120704708B5002242504058009008BD62
:10185000D0F80403084000D0012070474058002809
:1018600000D00120704708B5002242504058009037
:1018700008BD000070B5034600791B4901EB40101C
:101880001968027F4FF0FF30002AD1F80C25D1F8FB
:101890001465D1F80855D1F8104504D0C1F80C05ED
:1018A000C1F8140503E0C1F81405C1F80C05196866
:1018B000C1F80805C1F81005501C02D01046FFF70A
:1018C000E6FC701C02D03046FFF7E1FC601C02D041
:1018D0002046FFF7DCFC681C04D02846BDE87040B9
:1018E000FFF7D5BC70BD00004000002070B5054674
:1018F000C87D0C4600284FF4847128460AD0FFF7B3
:10190000A1FFD5F81805627EE1688854607E401C0E
:10191000607670BDFFF796FFD5F8180570BD1FB54E
:1019200001238DF800308DF808100192D0E90012E3
:10193000684690471FBD00000148FFF759BC0000F2
:101940000800002070B50D460A46014601240648ED
:10195000FEF776FCEAB204490448FFF7C3FB00B186
:101960000024204670BD0000600000200800002018
:1019700010B5144602004FF001000CD00846136861
:1019800006A24FF48071FEF7E1FD01462046BDE856
:101990001040FFF7E7B80021216010BD5B2530380B
:1019A000645D000038B5044640F20C60216889008F
:1019B00001F1A041C1F800076168890001F1A0416F
:1019C000C1F800072068FFF7A5FC6068FFF7A2FCDC
:1019D000216840F20D60890001F1A041C1F80007C3
:1019E0006168890001F1A041C1F800070420FFF7F8
:1019F0004BFA0025606800906846FFF76FFCD0F84E
:101A000010050099C84010F0010F02D0002D1AD027
:101A10000EE02068FFF757FC0420FFF735FA206836
:101A2000FFF778FC0420FFF72FFA6D1C092DE1DB8E
:101A30006068FFF748FC0420FFF726FA6068BDE8FD
:101A40003840FFF767BC38BD1FB5094B0FCB8DE899
:101A50000F00074800231A4669460838FFF7A4FA22
:101A600008B1FFF709F802480838FFF78DFA1FBDE3
:101A7000181F00002DE9F05F06461F4615460C466C
:101A80004FF0000A4FF0080B4FF482795068FFF7CF
:101A90006BFA00287ED04FF0FF30C4F8080396F8A8
:101AA000240028B1B068C4F804031120BDE8F09FF9
:101AB000780703D4F80601D4012000E0002086F85E
:101AC000240095E8070006F10C0383E80700C7F33C
:101AD000001086F825006878C4F888054FF48271F4
:101AE0002046FFF7A4FE4FF492712046FFF79FFEB9
:101AF000F8074FF0010800D04046C4F85005B80779
:101B000001D5404600E00020C4F8400528780028B0
:101B10006CD001287DD002284ED0032814D04FF07D
:101B2000070A380704D42878032801D044F80B802A
:101B3000306800286ED0780702D54FF40070B0608E
:101B4000B068C4F80403B0E0A868FFF70DFA08B362
:101B50004FF48070C4F80002A9786868C4F844059E
:101B6000C4F848154FF4A8712046FFF760FE4FF403
:101B7000B0712046FFF75BFE4FF4A4712046FFF7DB
:101B800056FEC4F82080C4F8088000BF4FF4A87146
:101B9000204600E028E0FFF745FE0028F6D04FF48D
:101BA000A8712046FFF743FEE878A968C4F84415F9
:101BB000C4F848053E4815E0A8786968C4F844159B
:101BC000C4F84805A868FFF7CFF968B1E878A968B4
:101BD000C4F83415C4F838054FF48450C4F8000232
:101BE00040F20220B0609CE710205FE7A8786968A7
:101BF000C4F84415C4F84805B8060FD54FF48070F2
:101C0000C4F800022A48B0604FF4A479494620463F
:101C100001E00CE01BE0FFF70AFE05E04FF4007066
:101C2000C4F80002801CB060C4F8208079E7A8786E
:101C30006968C4F83415C4F838054FF48050C4F806
:101C4000000240F20220B0604FF0000BECE7454686
:101C50004FF482774FF492780BE041462046FFF72D
:101C6000E1FD30B141462046FFF7E1FD25626561A7
:101C7000B94649462046FFF7D5FD0028EDD0D4F8F7
:101C8000C404C4F8C404002186F8241068B10321F8
:101C9000C20701D04FF40241820701D548F2012169
:101CA000400701D548F202218A465046FEE6000070
:101CB0000002040070B50C4605464FF48E71FFF724
:101CC000C1FDA18AA068415CA08A401CA082C5F821
:101CD0001C1570BD1FB500228DF800208DF808106E
:101CE000816801918275D0E90012684690471FBD56
:101CF0000078012801D10149887070470400002054
:101D00002DE9FF470C4605464FF40071FFF7A0FD93
:101D100001274FF40178002618B34FF49279494611
:101D20002846FFF78AFDE0B149462846FFF78AFDBD
:101D3000C5F80883A07E00B96F6002208DF800000E
:101D4000D5F88004C5F880040390E07D8DF8080084
:101D5000E0680190E6752676D4E90012684690475F
:101D600027E004212846FFF773FD10B34FF4847178
:101D70002846FFF762FDE0B121462846FFF7B6FD91
:101D8000E07D617E884214D1207E38B1617EE268B8
:101D9000E0752069E0602676667607E0A07E00B9EF
:101DA0006F60C5F80883E675617EE2682046FFF73C
:101DB000B6FD4FF48E7841462846FFF73EFD88B1C8
:101DC000A08AA17D884204D221462846FFF772FFEF
:101DD00008E041462846FFF735FDA17D11B12046B8
:101DE000FFF778FF4FF4A27841462846FFF725FD1C
:101DF000002812D041462846FFF724FDA07E00B1FE
:101E00002F60E07D002808D0E675617EE26804B0AE
:101E10002046BDE8F047FFF782BDBDE8FF872DE90A
:101E2000FF410C464FF4927705463946FFF716FD01
:101E30000026C0B139462846FFF715FD02208DF86F
:101E40000000D5F88004C5F880040390D5F83C055F
:101E50008DF80800E0680190E6752676D4E9001256
:101E60006846904724E04FF4887739462846FFF7C4
:101E7000F5FCE8B139462846FFF7F5FCD5F83C05F6
:101E8000C1B2E07D884213D1207E60B1E268D5F80E
:101E9000000220F02000C5F80002207EE0752069D5
:101EA000E060267601E0E675E2682046FFF737FD40
:101EB0004FF4A27739462846FFF7D0FC68B139467F
:101EC0002846FFF7D0FCE07D38B1E675D5F83C0533
:101ED000E268C1B22046FFF722FD4FF4907631460A
:101EE0002846FFF7BBFC00280FD031462846FFF7F5
:101EF000BAFCA07D002808D0D5F84C0504B0C1B2CA
:101F00002046BDE8F041FFF7E5BEBDE8FF810000D7
:101F100000300040000100001B0000001A0000001B
:101F20000000980102000000010000000000000015
:101F300000000000FFFFFFFFFFFFFFFFFFFFFFFFAD
:101F4000FFFFFFFF00000000000000000000D601BE
:101F5000070100002900000001000000010000004E
:101F6000010000000100000001000000010000006D
:101F7000010000000200000000404040404040409E
:101F8000404041414141414040404040404040404C
:101F900040404040404040404005020202020202F0
:101FA000020202020202020202202020202020203F
:101FB0002020200202020202020290909090909053
:101FC0001010101010101010101010101010101011
:101FD0001010101002020202020288888888888885
:101FE0000808080808080808080808080808080871
:101FF000080808080202020240000000791F0000E1
:102000004F766572666C6F770D0A00002C20000019
:1020100000000020180000007405000044200000AB
:10202000180000206025000084050000000000006A
:102030000000000000200040000000000020000020
:042040000090D00339
:0400000500000201F4
:00000001FF
