:020000040000FA
:1000000058220020150200001D0200001F020000FF
:100010002102000023020000250200000000000071
:1000200000000000000000000000000027020000A7
:1000300029020000000000002B0200002D02000039
:100040002F0200002F020000690400002F020000B0
:100050002F0200002F0200002F0200002F020000DC
:100060002F0200002F0200002F0200002F020000CC
:100070002F0200002F0200002F0200002F020000BC
:100080002F0200002F0200002F0200002F020000AC
:100090002F0200002F0200002F0200002F0200009C
:1000A0002F0200002F0200002F0200002F0200008C
:1000B0002F0200002F0200000000000000000000DE
:1000C0002F0200002F0200002F0200002F0200006C
:1000D0002F0200002F0200002F0200002F0200005C
:1000E0002F0200002F0200002F0200002F0200004C
:1000F000000000002F0200000000000000000000CF
:1001000000000000000000000000000000000000EF
:1001100000000000000000000000000000000000DF
:1001200000000000000000000000000000000000CF
:1001300000000000000000000000000000000000BF
:1001400000000000000000000000000000000000AF
:10015000000000000000000000000000000000009F
:10016000000000000000000000000000000000008F
:10017000000000000000000000000000000000007F
:10018000000000000000000000000000000000006F
:10019000000000000000000000000000000000005F
:1001A000000000000000000000000000000000004F
:1001B000000000000000000000000000000000003F
:1001C000000000000000000000000000000000002F
:1001D000000000000000000000000000000000001F
:1001E000000000000000000000000000000000000F
:1001F00000000000000000000000000000000000FF
:10020000DFF80CD000F02AF8004800472908000069
:10021000582200200648804706480047FEE7FEE7D0
:10022000FEE7FEE7FEE7FEE7FEE7FEE7FEE7FEE7A6
:10023000810200000102000040EA01039B0703D095
:1002400009E008C9121F08C0042AFAD203E011F815
:10025000013B00F8013B521EF9D27047064C074D96
:1002600006E0E06840F0010394E807009847103486
:10027000AC42F6D3FFF7C8FFA8110000C811000078
:1002800030B54FF080500022D0F8301101230829FA
:1002900002D1D0F8344114B1082909D00BE04FF055
:1002A0008041C1F80C21C1F8102161490A6005E0C4
:1002B000D0F8344114B1082957D059E05D49096894
:1002C0005D4C21605B49091D0968241D2160594965
:1002D00008310968241D216056490C310968241D24
:1002E0002160544910310968241D2160514914319D
:1002F0000968241D21604F49183109684E4C20348B
:1003000021604C491C310968241D21604949203174
:100310000968241D2160474924310968241D216092
:10032000444928310968241D216042492C3109685B
:10033000241D21603F49303109683F4C4034216021
:100340003C4934310968241D21603A493831096833
:10035000241D216037493C310968241D216035493D
:1003600040310968241D216005E0D0F8344114B102
:10037000082904D006E0324C3049216005E0D0F86D
:10038000344114B1082904D006E02E4CFB21216031
:1003900005E0D0F8344114B1082908D00EE090F8F7
:1003A00058422948016864F30301016002E0D0F873
:1003B000340118B925494FF40070086024480168D9
:1003C00041F470010160BFF34F8FBFF36F8F4FF0A7
:1003D0001021D1F80002002803DBD1F80402002824
:1003E00022DA1C4C23601C480368002BFCD012232B
:1003F000C1F800320568002DFCD0C1F80432016854
:100400000029FCD0226001680029FCD0BFF34F8F87
:100410000F487C380168114A01F4E0611143016022
:10042000BFF34F8F00BFFDE70E490D48086030BD98
:10043000380500400404001020C500404881030036
:100440008C56004018F50040E40E004040960240F3
:1004500088ED00E004E5014000E401400400FA05F5
:100460000090D003140000200448017F04480029B4
:10047000024901D000F0FFBD00F06EBD180200205F
:1004800000200040014A024900F013B8A107000013
:100490001000002002E008C8121F08C1002AFAD18B
:1004A00070477047002001E001C1121F002AFBD1F4
:1004B00070472DE9F04116460F460446002503E03B
:1004C0003946B047641C6D1C20780028F8D12846B6
:1004D000BDE8F081BFF34F8F05480168054A01F47C
:1004E000E06111430160BFF34F8F00BFFDE70000E3
:1004F0000CED00E00400FA050EB500210091CDE9F5
:1005000001106A4644F20100FFF7E4FF0EBD10B58A
:100510008268C368934203D000F02FF9002010BD19
:10052000052010BD29B112B1531E134203D009207A
:1005300070470E2070470160838000218160C16098
:100540000846704710B58268C3689A1A83889A4231
:1005500003D800F01CF9002010BD042010BD0000DD
:1005600070B50A4E01460A48B578FFF7D0FF044639
:100570004DB10020B070711C0122C81D00F0F6F9C9
:1005800008B1FFF7B9FF204670BD00000000002051
:1005900038020020F0B5284E89B01F460D000446F1
:1005A00072603BD0A888296882B22448FFF7BAFF5E
:1005B000002834D1A889A96882B220481030FFF7FA
:1005C000B1FF00282BD120221D496846FFF734FED9
:1005D00060690690207C00B101208DF814008DF830
:1005E0001C70607C00B10E208DF81500E068029050
:1005F000A068039020680190606800900E48114A3E
:100600006946083000F07EF9002808D1B0702068F3
:10061000401C04D09DF81D0018B106E0072009B069
:10062000F0BD0548083000F0F9F903490122491CE2
:10063000C81D00F09BF9F2E70000002038020020FE
:1006400088110000B90E000010B501460B48FFF7F5
:1006500079FF040010D10A4800F02AFB60B908496C
:1006600006480839FFF753FF30B905490122083918
:10067000034800F097FA0446204610BD48020020C7
:100680000800002070B5054608680C46411C04D0DF
:1006900000F07CFB206800F052FB6068411C02D037
:1006A000002100F043FB28791F4901EB4010296825
:1006B000007F0028A069C1F8240523D0607D227D39
:1006C00029681043C1F86C05D4E900122868C0F805
:1006D0000C15C0F8142522E0A068411C02D00021AE
:1006E00000F024FBE068411C04D000F04FFBE06800
:1006F00000F025FBD4E902122868C0F80825C0F8EC
:10070000101570BD607D217D2A680843C2F86C0514
:10071000D4E900122868C0F81425C0F80C15207D13
:100720000128D9D070BD0000180200200249085CE1
:10073000012100F035BB0000801100007CB50024D1
:10074000084E25460122305D009500231146019593
:1007500000F0BAFA641C042CF4D3BDE87C4000F02D
:1007600003B800008011000010B500242046FFF7F8
:10077000DDFF641C042CF9D310BD826883881A4005
:1007800003689A5C0A708168491C81607047C2687E
:1007900083881A4003689954C168491CC160704736
:1007A00010B50446C0B2FFF74FFF204610BD000051
:1007B00070B50E460446007918494FF4A27501EB56
:1007C0004010017F2068A1B14FF4887100F011FB47
:1007D0004FF49071206800F00CFB4FF49271206888
:1007E00000F007FB2946206800F003FB0C49206855
:1007F00009E04FF48E7100F0EBFA2946206800F012
:10080000E7FA08492068C0F80413206800F06EF881
:100810003146BDE8704000F04DB8000018020020DD
:1008200010030200800002008AB0FFF787FF182241
:1008300016496846FFF700FD1548069015494FF424
:100840008070CDE9070109900723134A06A968467D
:10085000FFF7A0FE08B1FFF74FFE10A0FFF712FE52
:1008600006A8FFF77DFE0028FAD100BF9DF818000A
:10087000FFF7EAFE0028F9D19DF81800712801D091
:100880005128EDD108A0FFF7FDFDFEE7681100003B
:100890001800002018010020A50E00000D0A537456
:1008A0006172743A200D0A00200D0A45786974219E
:1008B0000D0A00004907090E002806DA00F00F02B1
:1008C00002F1E02282F8141D03E000F1E02282F838
:1008D000001400F01F02012191404009800000F146
:1008E000E020C0F88012C0F800117047000B40B241
:1008F00070470121B1EB507F01D1012070470020EA
:10090000704700002DE9F04105460079164F9046EA
:1009100007EB40140E46E07E10B10820BDE8F081E0
:10092000707F20772846FFF7ADFE5FEA0800606021
:100930003169216003D0317F2846FFF739FF2879DC
:1009400007EB4010007F0028286801D0082100E054
:100950000421C0F800150020E0752076A075012163
:10096000E176A076DAE70000180200202DE9F041D8
:1009700005460079284E904606EB40140F46207F2E
:1009800018B10846FFF7B5FF80B1626800234FF445
:1009900004704FF4017172B12A7906EB4212127F92
:1009A000002A2A6805D0C2F8080304E01020BDE838
:1009B000F081C2F80813E27DB2B1227E7AB162689A
:1009C0005AB12A7906EB4212127F1AB12968C1F88E
:1009D000040302E02868C0F804131120E7E7276148
:1009E000012384F8188005E084F817800020E76070
:1009F000607620762879424606EB40103946007F23
:100A00000028284603D0BDE8F04100F073B8BDE8E7
:100A1000F04100F01BB800001802002070B5044639
:100A20000079094D05EB4010017F00290AD1807E35
:100A3000002807D1204600F007FA2179012005EBB4
:100A40004111887670BD0000180200202DE9F05F8A
:100A500004460079264901EB4015A87E184302D1CF
:100A6000204600F0F1F968680028206806D04FF4AD
:100A70000171C0F804130020BDE8F09F4FF4A27686
:100A8000314600F0A5F9B1464FF4927A4FF4847BD9
:100A90005146206800F097F906465946206800F054
:100AA00092F980464946206800F08DF9074648EAE9
:100AB00007003043ECD056EA070007D129462068EA
:100AC00000F09DF9E87D697E8842E1D80020E87554
:100AD0000EB10320D0E70FB10F20CDE7A97E012092
:100AE0000029216801D00860C5E74860C3E700001D
:100AF000180200202DE9F05F894604464FF48875FE
:100B00009A46904600260068294600F072F94FF494
:100B1000A2773946206800F06CF92068C0F8349557
:100B2000C0F838852068BAF1000F14D0D0F8001250
:100B300041F02001C0F800122179DFF8648008EB51
:100B40004110406850B120684FF40471C0F804139C
:100B50003046BDE8F09F01210160EDE7AA46B946A5
:100B60004FF4927B5146206800F03EF90746494613
:100B7000206800F039F905465946206800F034F93C
:100B8000014647EA05000843ECD02379002208EB30
:100B90004310C27501B10326002DD9D00F26D7E727
:100BA000180200202DE9F047054600793F4E904697
:100BB00006EB40140F46207F18B10846FFF799FE58
:100BC00030B1284600F074F820B11120BDE8F0875C
:100BD0001020FBE784F81680A7600027A7822879F9
:100BE0004FF0010806EB40143E46207F002828689D
:100BF00025D04FF49079494600F0FBF84FF4AC7AD9
:100C00005146286800F0F5F82868A17DA268C0F870
:100C10004425C0F848152868C0F808806068F0B915
:100C20004946286800F0E0F880465146286800F000
:100C3000DBF858EA0001F3D058BBA7750FE04FF47A
:100C40008E7A514600F0C4F82868C0F80880214622
:100C5000286800F009F961684FF4807089B1304666
:100C6000B4E75146286800F0AEF810B9A08A4845AC
:100C7000F7D1A08A484505D02146286800F0F4F84D
:100C800000E08146A08AA17D8842EAD3A08A484537
:100C900001D10F26D1E75146286800F094F80028CA
:100CA000F9D02868C0F80C80C7E7000018020020BF
:100CB0000079044901EB4010807D002800D001201C
:100CC00070470000180200202DE9FF411C46DDE9B5
:100CD0000A7815460E46684600F03CF846EA45019B
:100CE00041EA840141EA072242EA0841009A00EB06
:100CF0008200C0F80017BDE8FF812DE9FF411C46C6
:100D0000DDE90A7815460E46684600F031F846EAF5
:100D1000450141EA840141EA072242EA0841009A7A
:100D200000EB8200C0F80017BDE8FF811CB500226F
:100D30000B46009211460192FFF7DFFF1CBD1CB568
:100D4000002100910B46012201911146FFF7D5FFCA
:100D50001CBD00000168202902D24FF0A04070475E
:100D600001F01F01016001487047000000030050BE
:100D70000168202902D24FF0A040704701F01F0106
:100D800001600148704700000003005001B568464B
:100D9000FFF7EEFF009A01219140C0F8081508BD49
:100DA00038B501240090684631B1FFF7D3FF0099B0
:100DB0008C40C0F8084538BDFFF7CCFF00998C4047
:100DC000C0F80C4538BD4058002800D001207047BD
:100DD00008B5002242504058009008BDD0F80403E6
:100DE000084000D0012070474058002800D0012062
:100DF000704708B5002242504058009008BD70B5B9
:100E00000546C87D0C4600284FF4847128460AD058
:100E1000FFF7DEFFD5F81805627EE1688854607E32
:100E2000401C607670BDFFF7D3FFD5F8180570BD84
:100E30001FB501238DF800308DF808100192D0E91C
:100E40000012684690471FBD10B5044600684FF475
:100E50009271FFF7BDFF4FF484712068FFF7B8FF70
:100E600020680121016010BD70B50C4605464FF4A5
:100E70008E71FFF7ADFFA18AA068415CA08A401C7B
:100E8000A082C5F81C1570BD1FB500228DF800208A
:100E90008DF80810816801918275D0E900126846CA
:100EA00090471FBD0178022901D0012902D1406875
:100EB000FFF722BB704700007CB50178244D81B359
:100EC00001290BD002292BD18DF80010C068691CB4
:100ED00001900122C81DFFF749FD2EE0406801780E
:100EE0001C48FFF72FFB1B4C012618B18DF8006042
:100EF000019006E0A068E168814205D000208DF8ED
:100F00000000696868468847A068E168081AA188F7
:100F1000884207D80E490122491CC81DFFF726FD4B
:100F20007CBD01E0AE70FBE70A4809491030FFF7CD
:100F3000EEFA30B103208DF80000696868468847F2
:100F4000EEE70349012201F10800FFF72BFEE7E776
:100F500000000020380200202DE9FF470C4605461E
:100F60004FF40071FFF73AFF01274FF40178002694
:100F700018B34FF4927949462846FFF724FFE0B1B1
:100F800049462846FFF724FFC5F80883A07E00B92C
:100F90006F6002208DF80000D5F88004C5F8800449
:100FA0000390E07D8DF80800E0680190E6752676F4
:100FB000D4E900126846904727E004212846FFF74D
:100FC0000DFF10B34FF484712846FFF7FCFEE0B12B
:100FD00021462846FFF713FFE07D617E884214D149
:100FE000207E38B1617EE268E0752069E060267697
:100FF000667607E0A07E00B96F60C5F80883E675E5
:10100000617EE2682046FFF713FF4FF48E78414679
:101010002846FFF7D8FE88B1A08AA17D884204D275
:1010200021462846FFF720FF08E041462846FFF703
:10103000CFFEA17D11B12046FFF726FF4FF4A27825
:1010400041462846FFF7BFFE002812D041462846F9
:10105000FFF7BEFEA07E00B12F60E07D002808D023
:10106000E675617EE26804B02046BDE8F047FFF710
:10107000DFBEBDE8FF872DE9FF410C464FF49277B4
:1010800005463946FFF7B0FE0026C0B1394628466E
:10109000FFF7AFFE02208DF80000D5F88004C5F8F8
:1010A00080040390D5F83C058DF80800E0680190B5
:1010B000E6752676D4E900126846904724E04FF49E
:1010C000887739462846FFF78FFEE8B1394628462B
:1010D000FFF78FFED5F83C05C1B2E07D884213D101
:1010E000207E60B1E268D5F8000220F02000C5F84B
:1010F0000002207EE0752069E060267601E0E6755A
:10110000E2682046FFF794FE4FF4A277394628465E
:10111000FFF76AFE68B139462846FFF76AFEE07DB0
:1011200038B1E675D5F83C05E268C1B22046FFF754
:101130007FFE4FF4907631462846FFF755FE002893
:101140000FD031462846FFF754FEA07D002808D076
:10115000D5F84C0504B0C1B22046BDE8F041FFF718
:1011600093BEBDE8FF8100000800000006000000FB
:1011700005000000070000000100000000E0D701AA
:101180000D0E0F100B0C1819FFFFFFFFFFFFFFFFE5
:10119000FFFFFFFFFFFFFFFF000000000000000057
:1011A0000000D60107010000C81100000000002067
:1011B0001800000094040000E01100001800002056
:1011C00040220000A4040000000000000000000015
:1011D0000020004000000000000000000090D0034C
:0400000500000201F4
:00000001FF
