:020000040000FA
:1000000058220020150200001D0200001F020000FF
:100010002102000023020000250200000000000071
:1000200000000000000000000000000027020000A7
:1000300029020000000000002B0200002D02000039
:100040002F0200002F0200004D0500002F020000CB
:100050002F0200002F0200002F0200002F020000DC
:100060002F0200002F0200002F0200002F020000CC
:100070002F0200002F0200002F0200002F020000BC
:100080002F0200002F0200002F0200002F020000AC
:100090002F0200002F0200002F0200002F0200009C
:1000A0002F0200002F0200002F0200002F0200008C
:1000B0002F0200002F0200000000000000000000DE
:1000C0002F0200002F0200002F0200002F0200006C
:1000D0002F0200002F0200002F020000000000008D
:1000E0000000000000000000000000000000000010
:1000F0000000000000000000000000000000000000
:1001000000000000000000000000000000000000EF
:1001100000000000000000000000000000000000DF
:1001200000000000000000000000000000000000CF
:1001300000000000000000000000000000000000BF
:1001400000000000000000000000000000000000AF
:10015000000000000000000000000000000000009F
:10016000000000000000000000000000000000008F
:10017000000000000000000000000000000000007F
:10018000000000000000000000000000000000006F
:10019000000000000000000000000000000000005F
:1001A000000000000000000000000000000000004F
:1001B000000000000000000000000000000000003F
:1001C000000000000000000000000000000000002F
:1001D000000000000000000000000000000000001F
:1001E000000000000000000000000000000000000F
:1001F00000000000000000000000000000000000FF
:10020000DFF80CD000F02AF8004800471D09000074
:10021000582200200648804706480047FEE7FEE7D0
:10022000FEE7FEE7FEE7FEE7FEE7FEE7FEE7FEE7A6
:10023000810200000102000040EA01039B0703D095
:1002400009E008C9121F08C0042AFAD203E011F815
:10025000013B00F8013B521EF9D27047064C074D96
:1002600006E0E06840F0010394E807009847103486
:10027000AC42F6D3FFF7C8FF201200004012000086
:10028000F0B5A3480023021D01780125101D4FF091
:10029000805406290BD11678360708D10678C6F3A4
:1002A0000316032E06D0042E04D0052E02D00629F4
:1002B00007D00EE0B4F82463964FC6F304263E60E0
:1002C00002E01678360704D10678C6F30316032E2B
:1002D00002D0062904D00FE0904F8F4E7E670EE0CB
:1002E0001678360708D10678C6F30316032E06D013
:1002F000042E04D0052E02D0062907D00EE0D4F833
:100300004462874FC6F342363E6002E016783607F5
:1003100004D10678C6F30316032E02D0062906D0B0
:1003200011E0804E376827F0807737600EE016784E
:10033000360708D10678C6F30316032E06D0042E1E
:1003400004D0052E02D006290AD011E04FF08046D5
:10035000C6F80C31C6F81031714E361F336002E01A
:100360001678360704D10678C6F30316032E02D09A
:10037000062905D00CE06A4F032664373E600AE088
:100380001678360704D10678C6F30316032E02D07A
:1003900006290DD014E0644F05263E60624E783683
:1003A0003560614E083633603F263F1D3E6002E0F7
:1003B0001678360704D10678C6F30316052E02D048
:1003C000062957D068E059490968594A11605749C8
:1003D000091D0968121D1160544908310968121D70
:1003E000116052490C310968121D11604F491031DA
:1003F0000968121D11604D4914310968121D116000
:100400004A49183109684A4A2032116047491C316B
:100410000968121D1160454920310968121D1160DB
:10042000424924310968121D116040492831096888
:10043000121D11603D492C310968121D11603B49A4
:10044000303109683A4A403211603849343109681C
:10045000121D1160354938310968121D1160334988
:100460003C310968121D1160304940310968121D84
:10047000116002E0117809070ED10078C0F3031073
:10048000032803D0042801D0052805D1D4F8580248
:10049000284900F04F00086022487438016841F490
:1004A00070010160BFF34F8FBFF36F8F4FF01021CA
:1004B000D1F80002002803DBD1F80402002822DA78
:1004C0001D4A15601D480468002CFCD01524C1F895
:1004D00000420568002DFCD0C1F8044201680029E3
:1004E000FCD0136001680029FCD0BFF34F8F0D488A
:1004F000F0380168124A01F4E06111430160BFF372
:100500004F8F00BFFDE710490E480860F0BD0000A6
:10051000E00F00F0403501400DF0ADBA00C00740DB
:100520003C050040FCED00E01056004004040010C3
:1005300020C50040E40E004004E5014000E4014015
:100540000400FA050090D003140000200448017F45
:1005500004480029024901D000F0C9BD00F038BDAF
:100560001802002000200040014A024900F013B8A0
:10057000950800001000002002E008C8121F08C102
:10058000002AFAD170477047002001E001C1121F14
:10059000002AFBD170472DE9F04116460F4604466C
:1005A000002503E03946B047641C6D1C2078002804
:1005B000F8D12846BDE8F081BFF34F8F05480168A8
:1005C000054A01F4E06111430160BFF34F8F00BFA2
:1005D000FDE700000CED00E00400FA050EB5002177
:1005E0000091CDE901106A4644F20100FFF7E4FFF3
:1005F0000EBD10B58268C368934203D000F037F98E
:10060000002010BD052010BD29B112B1531E1342A8
:1006100003D0092070470E207047016083800021BD
:100620008160C1600846704710B58268C3689A1A35
:1006300083889A4203D800F024F9002010BD0420DA
:1006400010BD000070B50A4E01460A48B578FFF7A4
:10065000D0FF04464DB10020B070711C0122C81DAE
:1006600000F0FEF908B1FFF7B9FF204670BD0000A9
:100670000000002038020020F0B5284E89B01F4647
:100680000D00044672603BD0A888296882B22448D5
:10069000FFF7BAFF002834D1A889A96882B22048A0
:1006A0001030FFF7B1FF00282BD120221D496846EA
:1006B000FFF7C2FD60690690207C00B101208DF833
:1006C00014008DF81C70607C00B10E208DF81500B0
:1006D000E0680290A0680390206801906068009034
:1006E0000E48114A6946083000F086F9002808D102
:1006F000B0702068401C04D09DF81D0018B106E0C1
:10070000072009B0F0BD0548083000F001FA0349A0
:100710000122491CC81D00F0A3F9F2E700000020E7
:100720003802002000120000310F000010B5014611
:100730000B48FFF779FF040010D10A4800F032FBA4
:1007400060B9084906480839FFF753FF30B9054931
:1007500001220839034800F09FFA0446204610BDE4
:1007600048020020080000202DE9F04106460868F4
:100770000C46411C4FF0A0474FF0010506D005FA8A
:1007800000F1C7F80815206800F045FB6068411CBF
:1007900002D0002100F036FB3079204901EB4010F7
:1007A000A169007F00283068C0F8241525D0607D3D
:1007B000227D31681043C1F86C05D4E9001230681D
:1007C000C0F80C15C0F8142524E0A068411C02D024
:1007D000002100F017FBE068411C05D08540C7F8F8
:1007E0000855E06800F017FBD4E902123068C0F841
:1007F0000825C0F81015BDE8F081607D217D3268C4
:100800000843C2F86C05D4E900123068C0F814251A
:10081000C0F80C15207D0128D7D0ECE71802002085
:100820000249085C012100F000BB0000F811000043
:100830007CB50024084E25460122305D009500233A
:100840001146019500F0BAFA641C042CF4D3BDE8FB
:100850007C4000F003B80000F811000010B500243F
:100860002046FFF7DDFF641C042CF9D310BD82681D
:1008700083881A4003689A5C0A708168491C816009
:100880007047C26883881A4003689954C168491C3C
:10089000C160704710B50446C0B2FFF747FF20465D
:1008A00010BD000070B50E460446007918494FF49B
:1008B000A27501EB4010017F2068A1B14FF488714F
:1008C00000F0D4FA4FF49071206800F0CFFA4FF4A2
:1008D0009271206800F0CAFA2946206800F0C6FA32
:1008E0000C49206809E04FF48E7100F0AEFA2946F9
:1008F000206800F0AAFA08492068C0F804132068AC
:1009000000F06EF83146BDE8704000F04DB80000D0
:100910001802002010030200800002008AB0FFF7D6
:1009200087FF182216496846FFF786FC154806908F
:1009300015494FF48070CDE9070109900723134A48
:1009400006A96846FFF798FE08B1FFF747FE10A01A
:10095000FFF70AFE06A8FFF775FE0028FAD100BFD0
:100960009DF81800FFF7E2FE0028F9D19DF8180065
:10097000712801D05128EDD108A0FFF7F5FDFEE761
:10098000E011000018000020180100201F0F0000D7
:100990000D0A53746172743A200D0A00200D0A4545
:1009A000786974210D0A00004907090E002806DA4B
:1009B00000F00F0202F1E02282F8141D03E000F1C2
:1009C000E02282F8001400F01F020121914040094A
:1009D000800000F1E020C0F88012C0F800117047DC
:1009E000000B40B270470121B1EB507F01D10120D3
:1009F00070470020704700002DE9F041054600795E
:100A0000164F904607EB40140E46E07E10B10820CA
:100A1000BDE8F081707F20772846FFF7A5FE5FEAEA
:100A2000080060603169216003D0317F2846FFF7FC
:100A300039FF287907EB4010007F0028286801D093
:100A4000082100E00421C0F800150020E0752076A0
:100A5000A0750121E176A076DAE7000018020020F7
:100A60002DE9F04105460079284E904606EB4014EA
:100A70000F46207F18B10846FFF7B5FF80B16268C6
:100A800000234FF404704FF4017172B12A7906EB20
:100A90004212127F002A2A6805D0C2F8080304E037
:100AA0001020BDE8F081C2F80813E27DB2B1227EC9
:100AB0007AB162685AB12A7906EB4212127F1AB1F2
:100AC0002968C1F8040302E02868C0F80413112063
:100AD000E7E72761012384F8188005E084F8178090
:100AE0000020E760607620762879424606EB4010C9
:100AF0003946007F0028284603D0BDE8F04100F0C9
:100B000073B8BDE8F04100F01BB8000018020020E7
:100B100070B504460079094D05EB4010017F0029AE
:100B20000AD1807E002807D1204600F0CAF9217939
:100B3000012005EB4111887670BD000018020020ED
:100B40002DE9F05F04460079264901EB4015A87EA7
:100B5000184302D1204600F0B4F9686800282068E4
:100B600006D04FF40171C0F804130020BDE8F09FD7
:100B70004FF4A276314600F068F9B1464FF4927A0C
:100B80004FF4847B5146206800F05AF906465946D6
:100B9000206800F055F980464946206800F050F979
:100BA000074648EA07003043ECD056EA070007D171
:100BB0002946206800F060F9E87D697E8842E1D826
:100BC0000020E8750EB10320D0E70FB10F20CDE76C
:100BD000A97E01200029216801D00860C5E748608E
:100BE000C3E70000180200202DE9F05F89460446A3
:100BF0004FF488759A46904600260068294600F012
:100C000035F94FF4A2773946206800F02FF92068B3
:100C1000C0F83495C0F838852068BAF1000F14D0B8
:100C2000D0F8001241F02001C0F800122179DFF85D
:100C3000648008EB4110406850B120684FF40471A3
:100C4000C0F804133046BDE8F09F01210160EDE7D4
:100C5000AA46B9464FF4927B5146206800F001F94C
:100C600007464946206800F0FCF8054659462068CA
:100C700000F0F7F8014647EA05000843ECD0237975
:100C8000002208EB4310C27501B10326002DD9D014
:100C90000F26D7E7180200202DE9F0470546007916
:100CA0003F4E904606EB40140F46207F18B1084691
:100CB000FFF799FE30B1284600F074F820B11120FA
:100CC000BDE8F0871020FBE784F81680A7600027B6
:100CD000A78228794FF0010806EB40143E46207F9A
:100CE0000028286825D04FF49079494600F0BEF8D6
:100CF0004FF4AC7A5146286800F0B8F82868A17D16
:100D0000A268C0F84425C0F848152868C0F80880D3
:100D10006068F0B94946286800F0A3F8804651465B
:100D2000286800F09EF858EA0001F3D058BBA77578
:100D30000FE04FF48E7A514600F087F82868C0F82B
:100D400008802146286800F0CCF861684FF4807074
:100D500089B13046B4E75146286800F071F810B9FF
:100D6000A08A4845F7D1A08A484505D02146286881
:100D700000F0B7F800E08146A08AA17D8842EAD35E
:100D8000A08A484501D10F26D1E75146286800F0D6
:100D900057F80028F9D02868C0F80C80C7E7000091
:100DA000180200200079044901EB4010807D0028E2
:100DB00000D00120704700001802002070B541EA01
:100DC0004201DDE904564FF0A04441EA830141EAC3
:100DD000052104EB800041EA0641C0F8001770BD10
:100DE00070B541EA4201DDE904564FF0A04441EA02
:100DF000830141EA052104EB800041EA0641C0F885
:100E0000001770BD1CB500220B46009211460192DE
:100E1000FFF7E6FF1CBD1CB5002100910B46012227
:100E200001911146FFF7DCFF1CBD01224FF0A043EA
:100E3000824011B1C3F808257047C3F80C257047EC
:100E40004058002800D00120704708B500224250C9
:100E50004058009008BDD0F80403084000D001209D
:100E600070474058002800D00120704708B5002284
:100E700042504058009008BD70B50546C87D0C46EC
:100E800000284FF4847128460AD0FFF7DEFFD5F81A
:100E90001805627EE1688854607E401C607670BDF3
:100EA000FFF7D3FFD5F8180570BD1FB501238DF8E6
:100EB00000308DF808100192D0E900126846904782
:100EC0001FBD10B5044600684FF49271FFF7BDFFD7
:100ED0004FF484712068FFF7B8FF2068012101609A
:100EE00010BD70B50C4605464FF48E71FFF7ADFF8F
:100EF000A18AA068415CA08A401CA082C5F81C158C
:100F000070BD1FB500228DF800208DF80810816893
:100F100001918275D0E90012684690471FBD0178A3
:100F2000022901D0012902D14068FFF757BB704761
:100F30007CB50178244D81B301290BD002292BD136
:100F40008DF80010C068691C01900122C81DFFF7D0
:100F500087FD2EE0406801781C48FFF765FB1B4CBD
:100F6000012618B18DF80060019006E0A068E168E4
:100F7000814205D000208DF80000696868468847E6
:100F8000A068E168081AA188884207D80E490122A2
:100F9000491CC81DFFF764FD7CBD01E0AE70FBE796
:100FA0000A4809491030FFF724FB30B103208DF8BF
:100FB0000000696868468847EEE70349012201F1AD
:100FC0000800FFF769FEE7E7000000203802002074
:100FD0002DE9FF470C4605464FF40071FFF73BFF34
:100FE00001274FF40178002618B34FF4927949464F
:100FF0002846FFF725FFE0B149462846FFF725FFC1
:10100000C5F80883A07E00B96F6002208DF800004B
:10101000D5F88004C5F880040390E07D8DF80800C1
:10102000E0680190E6752676D4E90012684690479C
:1010300027E004212846FFF70EFF10B34FF4847118
:101040002846FFF7FDFEE0B121462846FFF714FFD2
:10105000E07D617E884214D1207E38B1617EE268F5
:10106000E0752069E0602676667607E0A07E00B92C
:101070006F60C5F80883E675617EE2682046FFF779
:1010800014FF4FF48E7841462846FFF7D9FE88B109
:10109000A08AA17D884204D221462846FFF721FF7D
:1010A00008E041462846FFF7D0FEA17D11B1204659
:1010B000FFF727FF4FF4A27841462846FFF7C0FE0E
:1010C000002812D041462846FFF7BFFEA07E00B19F
:1010D0002F60E07D002808D0E675617EE26804B0EC
:1010E0002046BDE8F047FFF7E0BEBDE8FF872DE9E9
:1010F000FF410C464FF4927705463946FFF7B1FEA3
:101100000026C0B139462846FFF7B0FE02208DF810
:101110000000D5F88004C5F880040390D5F83C059C
:101120008DF80800E0680190E6752676D4E9001293
:101130006846904724E04FF4887739462846FFF701
:1011400090FEE8B139462846FFF790FED5F83C05F9
:10115000C1B2E07D884213D1207E60B1E268D5F84B
:10116000000220F02000C5F80002207EE075206912
:10117000E060267601E0E675E2682046FFF795FE1E
:101180004FF4A27739462846FFF76BFE68B139461F
:101190002846FFF76BFEE07D38B1E675D5F83C05D3
:1011A000E268C1B22046FFF780FE4FF490763146E8
:1011B0002846FFF756FE00280FD031462846FFF795
:1011C00055FEA07D002808D0D5F84C0504B0C1B26A
:1011D0002046BDE8F041FFF794BEBDE8FF81000066
:1011E00008000000060000000500000007000000E5
:1011F0000100000000E0D701111213140D0E0F10B2
:10120000FFFFFFFFFFFFFFFFFFFFFFFFFFFFFFFFEE
:1012100000000000000000000000D60107010000EF
:1012200040120000000000201800000078050000B7
:10123000581200001800002040220000880500001D
:10124000000000000000000000200040000000003E
:08125000000000000090D00333
:0400000500000201F4
:00000001FF
