:020000040000FA
:10000000F0270020150200001D0200001F02000062
:100010002102000023020000250200000000000071
:1000200000000000000000000000000027020000A7
:1000300029020000000000002B0200002D02000039
:100040002F0200002F020000710700002F020000A5
:100050002F0200002F020000390300002F020000D1
:100060002F0200002F0200002F0200002F020000CC
:100070002F0200002F0200002F0200002F020000BC
:100080002F020000610500002F0200002F02000077
:10009000850500002F0200002F0200002F02000043
:1000A0002F0200002F0200002F0200002F0200008C
:1000B0002F0200002F0200000000000000000000DE
:1000C0002F0200002F0200002F0200002F0200006C
:1000D0002F0200002F0200002F0200002F0200005C
:1000E0002F0200002F0200002F0200002F0200004C
:1000F000000000002F0200000000000000000000CF
:1001000000000000000000000000000000000000EF
:1001100000000000000000000000000000000000DF
:1001200000000000000000000000000000000000CF
:1001300000000000000000000000000000000000BF
:1001400000000000000000000000000000000000AF
:10015000000000000000000000000000000000009F
:10016000000000000000000000000000000000008F
:10017000000000000000000000000000000000007F
:10018000000000000000000000000000000000006F
:10019000000000000000000000000000000000005F
:1001A000000000000000000000000000000000004F
:1001B000000000000000000000000000000000003F
:1001C000000000000000000000000000000000002F
:1001D000000000000000000000000000000000001F
:1001E000000000000000000000000000000000000F
:1001F00000000000000000000000000000000000FF
:10020000DFF80CD000F086F80048004775180000B1
:10021000F02700200648804706480047FEE7FEE733
:10022000FEE7FEE7FEE7FEE7FEE7FEE7FEE7FEE7A6
:1002300089050000010200002DE9F05F054600205D
:1002400092469B4688460646814640241BE0284647
:1002500041464746224600F04DF853465A46C01ADA
:10026000914110D311461846224600F034F82D1A59
:1002700067EB01084F4622460120002100F02BF8D1
:1002800017EB00094E41201EA4F10104DFDC4846B3
:1002900031462A464346BDE8F09F000000487047BB
:1002A0009C2B000040EA01039B0703D009E008C92A
:1002B000121F08C0042AFAD203E011F8013B00F82B
:1002C000013B521EF9D27047421C10F8011B002955
:1002D000FBD1801A7047202A04DB203A00FA02F191
:1002E000002070479140C2F1200320FA03F3194324
:1002F00090407047202A04DB203A21FA02F00021C6
:10030000704721FA02F3D040C2F120029140084325
:1003100019467047064C074D06E0E06840F00103BF
:1003200094E8070098471034AC42F6D3FFF76CFF0F
:10033000242E0000442E00002DE9F04F00268FB03F
:10034000DFF8B081B14602964FF48075012437463C
:100350000396284601F008FE38B1D8F8040320427D
:1003600003D0284601F0F6FD26432D1D64007F1CB6
:10037000ADB2082FEDD34FF4BE74204601F0F4FD6A
:1003800048B1204601F0E6FD46F0004602AA0221EF
:10039000002001F0C9FD584C16F0FF0F15D00127C1
:1003A000002537420DD008EB8501D1F81005D1F8B2
:1003B0001015C0F3052054F82520C1F3014102B106
:1003C00090477F006D1C082DEBD3002E7DDA0020B6
:1003D000CDF82890411E0DF1080B08AACDF82C90FD
:1003E00042F82010401C91460228F9D300252E46E1
:1003F000A01910F8607F90F9000027F0C008401C99
:1004000049D008A9404601F061FA88B34FEA971A2B
:10041000404601F06BF854F820701FB1BAF1030F99
:1004200003D00FE0BAF1030F35D10AA84FEAD80282
:1004300008F00703815C4FF0010C0CFA03FC41EA61
:100440000C01815406A8CDF8188001F029FD069909
:1004500000EB8100D0F8000702A9C0F3014006902C
:10046000404601F033FA0028069802D0022802D054
:1004700011E003280FD1BAF1030F08D10698022822
:1004800032D00221404601F0E4FC6D1CEDB217B100
:1004900051464046B847761C042EA9D3002D20D0E3
:1004A00004AA0221002001F03FFD00205A4604A9C1
:1004B00052F8206051F82030B34217D000200AAE25
:1004C0004FEA090351F8207000E00AE042F820707A
:1004D00056F8207043F82070401C0228F2D3002DFB
:1004E00084D10FB0BDE8F08F0321CBE7401C022878
:1004F000DED3F6E7006000402001002000F01F027C
:10050000012191404009800000F1E020C0F88012F4
:10051000704700F01F02012191404009800000F166
:10052000E020C0F80011704700F01F020121914047
:100530004009800000F1E020C0F800127047490730
:10054000090E002806DA00F00F0000F1E02080F824
:10055000141D704700F1E02080F80014704700007F
:1005600007480021C0F84011C0F84411C0F84811F4
:10057000C0F84C11C0F80011C0F8041102F0EEB838
:100580000010014002F03CB830B54FF0805000221E
:10059000D0F830110123082902D1D0F8344114B128
:1005A000082909D00BE04FF08041C1F80C21C1F8B7
:1005B000102161490A6005E0D0F8344114B10829DE
:1005C00057D059E05D4909685D4C21605B49091DC0
:1005D0000968241D2160594908310968241D2160DA
:1005E00056490C310968241D2160544910310968AD
:1005F000241D2160514914310968241D21604F498F
:10060000183109684E4C203421604C491C3109686E
:10061000241D2160494920310968241D2160474972
:1006200024310968241D2160444928310968241DAA
:10063000216042492C310968241D21603F49303135
:1006400009683F4C403421603C4934310968241D1D
:1006500021603A4938310968241D216037493C310D
:100660000968241D2160354940310968241D216035
:1006700005E0D0F8344114B1082904D006E0324C2A
:100680003049216005E0D0F8344114B1082904D084
:1006900006E02E4CFB21216005E0D0F8344114B176
:1006A000082908D00EE090F858422948016864F300
:1006B0000301016002E0D0F8340118B925494FF474
:1006C000007008602448016841F470010160BFF3C4
:1006D0004F8FBFF36F8F4FF01021D1F80002002829
:1006E00003DBD1F80402002822DA1C4C23601C48EA
:1006F0000368002BFCD01223C1F800320568002DDE
:10070000FCD0C1F8043201680029FCD022600168E5
:100710000029FCD0BFF34F8F0F487C380168114A85
:1007200001F4E06111430160BFF34F8F00BFFDE7AB
:100730000E490D48086030BD380500400404001023
:1007400020C50040488103008C56004018F5004049
:10075000E40E00404096024088ED00E004E50140D0
:1007600000E401400400FA050090D003B00000202E
:100770000448017F04480029024901D002F0F7B87B
:1007800002F066B888010020002000400FB41CB5BC
:100790000A46521ECDE9000207A9054B6A46069893
:1007A00000F018F8009A002111701CBC5DF814FBD1
:1007B000370C000002E008C8121F08C1002AFAD155
:1007C00070477047002001E001C1121F002AFBD1D1
:1007D000704700002DE9FF4F8DB00F4605460026FB
:1007E00006E025280BD0DDE90F1290476D1C761C22
:1007F00028780028F5D111B03046BDE8F08F0024EC
:10080000A246A1460122EC4900E0044315F8013F4D
:10081000203B02FA03F00842F7D128782A2810D0AA
:100820006FF02F022878A0F13001092914D80AEBC3
:100830008A0102EB410144F0020400EB010A6D1C45
:10084000F0E701CF5FEA000A03D544F40054CAF18F
:10085000000A44F002046D1C28782E2817D115F8E0
:10086000010F44F004042A280ED06FF02F022878DC
:10087000A0F1300109290AD809EB890102EB4101F5
:1008800000EB01096D1CF2E757F8049B6D1C2878FA
:100890006C280FD006DC4C2817D068280DD06A28A9
:1008A00014D104E0742810D07A280FD10DE044F45C
:1008B00000140AE044F4801401E044F44014697820
:1008C000814202D104F580146D1C6D1C2A786E2AB9
:1008D0001FD00CDC632A31D004DC002A8BD0582ACC
:1008E00011D1A3E0642A68D0692A0CD165E0732A8B
:1008F0002ED004DC6F2A73D0702A04D19BE0752AB5
:100900006FD0782A6ED01046DDE90F129047761C22
:1009100050E1C4F30250022806D0032809D004286D
:1009200001CF09D0066045E101CFF117C0E90061B0
:1009300040E101CF06803DE106703BE117F8040B72
:100940008DF8000000208DF80100EB46012003E047
:1009500057F804BB4FF0FF3061074FF0000102D49D
:100960000DE008F10101884649450FDA8045F8DBC2
:100970001BF808100029F4D108E008F101018846AD
:100980008142FADB1BF808100029F6D1DDE90F23BC
:10099000AAEB08008146214600F036F9304400EB0E
:1009A000080604E0DDE90F121BF8010B9047B8F1CF
:1009B0000108F7D221464846F7E00A21C4F3025362
:1009C0004FF0000B0891022B04D001CFC117032B6D
:1009D00009D00AE0FF1D27F00707F7E8020108E049
:1009E00032E01FE020E000B2C117042B01D140B279
:1009F000C117031E71F1000307DA4FF0000CD0EBB2
:100A00000C006CEB01012D2302E0230504D52B2300
:100A10008DF82430012303E0E30701D02023F7E71A
:100A2000984658E00A2110E010210EE010204FF007
:100A3000000B08900CE010214FF0000B44F0040470
:100A40004FF00809089103E008214FF0000B0891CE
:100A5000C4F30253022B04D001CF0021032B06D094
:100A600006E0FF1D27F00707F7E8020103E080B268
:100A7000042B00D1C0B24FF0000823072BD5702AF9
:100A800007D0DDF820C08CF0100C5CEA0B0C05D010
:100A90000EE040238DF82430012308E050EA0103E2
:100AA00006D030238DF824308DF825200223984677
:100AB000DDF820C08CF0080C5CEA0B0C0BD150EA7E
:100AC000010301D1630706D530238DF824304FF0A0
:100AD0000108A9F10109582A04D038A20B9208AAEA
:100AE0000A920BE03AA2F9E75B46089AFFF7A4FBEB
:100AF0000B9B9B5C0A9A521E0A92137050EA0102E9
:100B0000F2D10A98ADEB000000F1200B600702D58E
:100B100024F4803401E04FF00109D94502DDA9EB4E
:100B20000B0000E0002000EB0B0141440890AAEB11
:100B3000010AE00306D4DDE90F232146504600F008
:100B400063F806444FF0000908E009A911F809000C
:100B5000DDE90F12904709F10109761CC145F4DB6C
:100B6000E0030CD5DDE90F232146504600F04CF898
:100B7000064404E0DDE90F1230209047761C089906
:100B8000481E08900029F5DC08E00A980A990078C8
:100B9000491C0A91DDE90F129047761CBBF1000158
:100BA000ABF1010BF1DC21465046DDE90F2300F0EB
:100BB00019F806446D1C1BE6092801003031323358
:100BC0003435363738396162636465660000000089
:100BD0003031323334353637383941424344454673
:100BE000000000002DE9F041044600251E4617468E
:100BF000880404D405E039462020B0476D1C641EEB
:100C0000F9D52846BDE8F0812DE9F04104460025DC
:100C10001E469046C80301D5302700E020278804EF
:100C200004D505E041463846B0476D1C641EF9D531
:100C30002846BDE8F0814A68002A06D00A68531C9D
:100C40000B6010704868401E48607047022000F03A
:100C500083B9000070B50024064D06E068680121E4
:100C600010F8340000F0AAFE641C28788442F5D302
:100C7000002070BD74000020F8B515460C460646ED
:100C8000052A01D20720F8BD00F07AFF18B900F05C
:100C900049FF0028F7D1104900204E600C70C1E9CF
:100CA00002500E4D08610DE006EBC400696800912A
:100CB00081788DF801100078094A694600F0CAFE73
:100CC0000028E0D1641EE4B2EED2BDE8F840054A47
:100CD0000021024800F04AB874000020CC2A00002D
:100CE00069160000C91500000DA1012001F04CFBA0
:100CF00001F0A4FA01F0A6FA0028FBD10CA1032010
:100D000001F042FBBFF34F8F10480168104A01F415
:100D1000E06111430160BFF34F8F00BFFDE70000AA
:100D20003A4552524F523A466174616C0D0A0000C6
:100D30003A494E464F3A486974207765616B20689E
:100D4000616E646C65720D0A000000000CED00E03D
:100D50000400FA050EB500210091CDE901106A46A4
:100D600044F20100FFF7C0FF0EBD0000074B9B7867
:100D700023B12AB120B10068037C1BB10820704761
:100D8000072070474174426100207047C80100206D
:100D900070B501F0D5FB104800240B21047044709D
:100DA0000E4D817014206C602C706C70FFF7A6FBE8
:100DB00007211420FFF7C3FB1420FFF7AAFB084804
:100DC000046007211120FFF7BAFB0548001F0068E7
:100DD000A860002070BD0000C8010020880000202D
:100DE000081501402DE9F843DFF8709099F80230BA
:100DF0005BB350B3052902D20720BDE8F8834369ED
:100E00001BB3437C012B22D00027044600258846D3
:100E10001646284600F036F8684601F021FEC0B1BB
:100E2000012101700E4944600968C0E90218C0E957
:100E300004769DF8000089F80100002000F024F8F5
:100E40001420FFF771FB2846D7E70820D5E70F46A7
:100E5000DBE70425002000F017F8F4E7C8010020C4
:100E6000041501400649897839B130B1416921B191
:100E700000210174022101F051BC082070470000DC
:100E8000C801002000F002B800F008B872B60248AD
:100E90000168491C016070479C00002003490868F4
:100EA000401E086000D162B6704700009C00002020
:100EB00070B5054608680C46411C04D001F017F8CF
:100EC000206800F0BCFF6068411C02D0002100F0E7
:100ED000ADFF28791F4901EB40102968007F0028E9
:100EE000A069C1F8240523D0607D227D29681043C4
:100EF000C1F86C05D4E900122868C0F80C15C0F8D8
:100F0000142522E0A068411C02D0002100F08EFFD1
:100F1000E068411C04D000F0EAFFE06800F08FFFB9
:100F2000D4E902122868C0F80825C0F8101570BD71
:100F3000607D217D2A680843C2F86C05D4E900125F
:100F40002868C0F81425C0F80C15207D0128D9D0D8
:100F500070BD000088010020094908B5085C0090B8
:100F6000684600F08FFFD0F80425009B01219940CE
:100F700021EA0203C0F808351140C0F80C1508BD7D
:100F8000902A00000249085C012100F0BABF00006D
:100F9000902A00000249085C002100F0B2BF000066
:100FA000902A0000084908B5085C0090684600F0E7
:100FB00069FFD0F804050099C84010F0010000D086
:100FC000012080F0010008BD902A00007CB50024BB
:100FD000084E25460122305D0095002311460195FB
:100FE00000F0D0FE641C042CF4D3BDE87C4000F07B
:100FF00003B80000902A000010B500242046FFF737
:10100000C1FF641C042CF9D310BD10B50024204688
:10101000FFF7C0FF641C042CF9D310BD10B50246C5
:10102000064B4FF0FF3000215C5C944201D1084632
:1010300010BD491C0429F7D310BD0000942A0000FC
:101040002DE9F0470D468146FFF7E8FF04460428E6
:1010500036D2DFF874801B481C4EA8F10C0725B36C
:10106000012D0ED0022D2BD104EB440030444578E5
:10107000002D25D0B968002922D02846BDE8F047C8
:10108000084704EB4401755C0E44717849B10E4A7F
:101090004FF40041093A8068FFF7A4FE08B987F8C9
:1010A0000390B17808F80410E2E78068FFF7DAFEF1
:1010B00004EB4401314418F804008D78A842D7D0DD
:1010C000BDE8F087982A000070000020F40000209E
:1010D00010B50549032000F069F8002803D0BDE8E9
:1010E0001040FFF737BE10BD3111000070B500236E
:1010F000042810D20D4D00EB4004012A02D1012931
:101100000CD00022094E00EB4000304461B10129AF
:1011100006D0022906D00723184670BD0E30C2B291
:101120002A55F9E74270F7E78270F5E7F4000020EE
:1011300070B5134C0E28217806D00F281ED1172920
:1011400007D0491C217006E009B1491EFAE71720B3
:1011500000E000202070207800F01CF805460848C8
:101160002178001D50F8212006A1032001F032F95A
:10117000280003D0BDE87040FFF7ECBD70BD000053
:10118000000000204150503A494E464F3A25730D19
:101190000A000000044A014600201279D20702D05A
:1011A000084600F04DB870476400002070B5064650
:1011B0001E480024C0E90161B00720D500250122A6
:1011C00011462846FFF792FF6D1C0446042D02D2FB
:1011D000002CF4D013E094B940F266620421144864
:1011E000FFF74AFD04000AD1FFF734FD040006D1E1
:1011F0000F48104A0021001FFFF7B8FD0446F00712
:1012000001D0FFF7E3FE74B909480B4A00210C38FE
:10121000FFF7ACFD040006D10548084A0121083853
:10122000FFF7A4FD0446204670BD000064000020C6
:10123000A42A000081140000691700004D0C000072
:101240002DE9F05F6A4C054600266078B34618B178
:1012500084F801B000F070FA664F4FF47A694FF4E9
:10126000C87A4FF00108182D62D2DFE805F0AC0C07
:101270000C31404D62676B746B74BE7D7D7D7D7DEE
:10128000ACAFB2B5BEBE0020FFF78CFE00284FF019
:10129000000008D0FFF776FE022D02D14FF4E16086
:1012A00008E0484606E0FFF775FE022D01D1C82090
:1012B00000E05046410CC0034FF4FA72801841F12F
:1012C0000001257052000023FEF7B6FF01462AE018
:1012D0000020FFF767FE00284FF0000004D0FFF762
:1012E00051FE4FF44870E5E7FFF754FEDFE70020BA
:1012F000FFF758FE00284FF0000002D0FFF742FE33
:10130000CFE7FFF747FED4E70020FFF74BFE0028AA
:101310004FF0000002D0FFF735FE01E0FFF73AFE84
:10132000257041F69A1100223868FFF75BFD0646EA
:1013300046E00020FFF710FE257008E0002051E095
:1013400025703DE084F801800120FFF705FE0022B2
:1013500040F6CD41E8E784F801800120FFF7FCFD6D
:1013600000224FF48041DFE77868FFF77BFD0646F7
:10137000D5F1110000D02EB10220FFF703FE84F852
:1013800002B01DE0012816D980B2C8214843C11718
:10139000C90341EA5041C0034FF4FA72801841F189
:1013A000000152000023FEF747FF01460022786843
:1013B000FFF718FD06460220FFF7ECFD84F80280D7
:1013C0003046BDE8F09F00F0B7F9B9E700F0B4F996
:1013D000B4E700F0B1F904E000F0AEF90020FFF747
:1013E000D9FD0120FFF7D6FDAAE7FFF70EFEA7E71C
:1013F00064000020982A0000002901DA00207047CC
:1014000002681144016001207047000070B5461C5D
:101410000D4601240020FFF735FD114A10682860B1
:10142000D2E900109568081A2B1A701C5B1C9842B0
:101430000FD963B10B480C4B294000681B6802EBC5
:10144000810163F39F20C8601068401C1060002475
:1014500001E0881910600020FFF716FD204670BDDE
:10146000D4030020F42A0000AC000020034803C885
:10147000814201D10120704700207047D403002031
:1014800000780221FFF7DCBD05494FF0FF32082844
:1014900041F8202002D3084480F85820704700000B
:1014A00020010020F0B54FF0FF3512B100230826CF
:1014B00001E008230C260C4C05E000BF54F8237013
:1014C0007F1C04D05B1CB342F8D32846F0BD26181D
:1014D0005DB286F8305044F82310002AF5D1E118A7
:1014E00081F85800F1E7000020010020024908447B
:1014F00090F93000704700002001002006480121CB
:10150000016000228807C0F804218160D0F804112E
:101510000029FBD070470000180500402DE9F05F5E
:1015200026484168F1B3DFF898B00E688146DBF8D1
:10153000004087688078E11B21F07F45ED1CB0B941
:10154000DFF880804FF48030C8F84403C8F8040303
:101550001120FEF7D3FF1120FEF7DBFF4FF0010A49
:10156000C8F800A02F2000F0B9F989F802A0B54210
:1015700000D23546124BE8193C3320F07F4018600A
:10158000DBF800105A46091B21F07F41001B20F0B8
:101590007F40C91C81420FD9106818602F2000F0CD
:1015A0009DF900E004E0BDE8F05F1120FEF7BCBF4C
:1015B000BDE8F05F00F0C4BFBDE8F09F88000020E8
:1015C00004150140001001402DE9F04100260125DD
:1015D000144C22E06068226900EBC607387805FAEF
:1015E00000F1114217D08A43226100F093FA0246BB
:1015F0003878E36805FA00F1194002FA00F39942DD
:1016000009D17978012901D0012100E00021514060
:101610007A6802B19047761CF6B220788642D9D318
:10162000BDE8F081740000200E4910B50A784C78AE
:101630000023A24212D0521CD2B20A70022A00D158
:101640000B70084A0B780C3252F82320026088682D
:10165000104420F07F408860012010BD036000200E
:1016600010BD0000880000202DE9F041124E074611
:101670000125BD403068FFF7F5FB00280DD10F4C68
:101680002069284207D1384600F044FA0028E06873
:1016900005D0284304E0A8432061BDE8F081A843B9
:1016A000E060206928432061A1683068BDE8F0410E
:1016B0000022FFF797BB0000CC2A00007400002036
:1016C00070B50E460446007918494FF4A27501EB37
:1016D0004010017F2068A1B14FF4887100F0D6FE60
:1016E0004FF49071206800F0D1FE4FF492712068A1
:1016F00000F0CCFE2946206800F0C8FE0C492068A6
:1017000009E04FF48E7100F0B0FE2946206800F029
:10171000ACFE08492068C0F80413206800F04BF9BB
:101720003146BDE8704000F02AB900008801002071
:1017300010030200800002000A4810B5807860B1F2
:10174000002401E0022C06D02046FFF71BFC641C9D
:10175000042CF7D310BD0324F6E7BDE81040FFF7D3
:101760004BBC00006400002003480179C90702D087
:101770000078FFF765BD7047640000202DE9F04751
:10178000394E002780463D46DFF8E090D6F804A0A9
:1017900057E003D00446D0F81C8035E099F80020CB
:1017A00002EB4201521CD2B289F8002009EBC101C0
:1017B00099F80230091D9A4201D189F80050486811
:1017C0000A780446012A12D0022A02D0032A3BD109
:1017D00008E000F073FF00B10127257434E00574C0
:1017E000C06900E070680028F9D170602CE0207CAE
:1017F00050BB88686060C868A0600869E06048699C
:10180000A061F07800B165606268B168184B501A49
:1018100020F07F40984202D2A168084406E0881A6E
:10182000A16820F07F40814202D9081A206000E0C0
:10183000256065600120A56020742046E56100F008
:101840001FFFB8F10000A4D199F8001099F8010029
:101850008142A3D117B97168514502D00120BDE87A
:10186000F0870020FBE7000088000020C80100206E
:10187000FFFF7F00FFF742FEFFF78AFA08B1FFF78C
:1018800069FA002000F0DAFD08B1FFF763FA07A15A
:10189000032000F079FDFFF71BFC00BF00F0D2FC35
:1018A0000028FBD140BF20BF20BFF7E74150503A8E
:1018B000494E464F3A425350206578616D706C65D1
:1018C00020737461727465642E0D0A00C20800F002
:1018D00007030120895C98400840704700283ED0EB
:1018E0001F49204A096800BF00BF00BF00BF00BFFA
:1018F00000BF00BF00BF91422FD000BF00BF00BF9C
:1019000000BF00BF00BF00BF00BF00BF00BF00BFDF
:1019100000BF00BF00BF00BF00BF00BF00BF00BFCF
:1019200000BF00BF00BF00BF00BF00BF00BF00BFBF
:1019300000BF00BF00BF00BF00BF00BF00BF00BFAF
:1019400000BF00BF00BF00BF00BF00BF00BF00BF9F
:1019500000BF00BF00BF00BF00BF401EC3D1704723
:10196000B00000200024F40000F01F02012191408B
:101970004009800000F1E020C0F88011704749075D
:10198000090E002806DA00F00F0202F1E02282F8C8
:10199000141D03E000F1E02282F8001400F01F02A1
:1019A000012191404009800000F1E020C0F8801240
:1019B000C0F800117047000B40B270472DE9F041AC
:1019C0000E46804600F068FD204D0028404616D0A7
:1019D000FFF78CFD284490F858008009032802D0B6
:1019E00001280AD003E0404600F076FA28B103212E
:1019F0004046BDE8F04100F02CBA0221F8E700F0C3
:101A000057FD002820D04046FFF770FD0446104FD8
:101A10004FF4807007EB840100EB8400D1F81025AF
:101A200080B242F00102C1F8102500F093FA002EB6
:101A30000AD04046FFF75AFD55F82000002803D091
:101A40000120A040C7F80403BDE8F0812001002078
:101A5000006000402DE9FC41DFF8AC80044608EB53
:101A60000400002790F930001346C0170E46401CB2
:101A700001D0082744E0F27819462046FFF712FD0E
:101A80000546401C3BD0B07868B16846009400F031
:101A900007FA009900EB8100D0F8001721F002014D
:101AA000C0F8001707E000217378204600910A462D
:101AB000019100F080F9F078C0B11448317800EB62
:101AC0008500D0F81025124B1A40C0F810254FF4AD
:101AD0007C524FF4403302EA042203EA01410A43F4
:101AE000D0F810150A43C0F8102509E008EB0500EE
:101AF000327810F8581F41EA8211017000E0042783
:101B00003846BDE8FC810000200100200060004054
:101B1000FFC0FCFF10B500F0DFF9002800D0012065
:101B200010BD000070B5144D95F8640008B1082090
:101B300070BD0020411E2A18401CC0B282F830102F
:101B40003028F8D300242046FFF79EFC641CE4B242
:101B50000C2CF8D307210620FFF711FF4FF4BE70BD
:101B600000F0F8F905494FF00040C1F804030120E6
:101B700085F86400002070BD200100200060004056
:101B8000034890F86400002800D00120704700004E
:101B9000200100200121B1EB507F01D101207047CD
:101BA000002070472DE9F04105460079164F904618
:101BB00007EB40140E46E07E10B10820BDE8F0812E
:101BC000707F20772846FFF773F95FEA08006060AE
:101BD0003169216003D0317F2846FFF771FD2879F4
:101BE00007EB4010007F0028286801D0082100E0A2
:101BF0000421C0F800150020E0752076A0750121B1
:101C0000E176A076DAE70000880100202DE9F047B0
:101C1000054600793F4E904606EB40140F46207F64
:101C200018B10846FFF7B6FF30B1284600F074F847
:101C300020B11120BDE8F0871020FBE784F8168062
:101C4000A7600027A78228794FF0010806EB40140F
:101C50003E46207F0028286825D04FF490794946D9
:101C600000F014FC4FF4AC7A5146286800F00EFCEA
:101C70002868A17DA268C0F84425C0F848152868E6
:101C8000C0F808806068F0B94946286800F0F9FBA0
:101C900080465146286800F0F4FB58EA0001F3D072
:101CA00058BBA7750FE04FF48E7A514600F0DDFB6C
:101CB0002868C0F808802146286800F0A3FD616804
:101CC0004FF4807089B13046B4E75146286800F07F
:101CD000C7FB10B9A08A4845F7D1A08A484505D06E
:101CE0002146286800F08EFD00E08146A08AA17D93
:101CF0008842EAD3A08A484501D10F26D1E7514650
:101D0000286800F0ADFB0028F9D02868C0F80C80E6
:101D1000C7E70000880100200079044901EB40106A
:101D2000807D002800D0012070470000880100203D
:101D300070B5044600791149002601EB4015206872
:101D40002A7FC0F80065686888B1207901EB4010EF
:101D5000007F0028206801D0094901E008498C393A
:101D6000C0F808132068FFF726FEFFF7FDFD2046A8
:101D700000F0AAFBEE766E6070BD000088010020C6
:101D8000100302002DE9FF411C46DDE90A781546E3
:101D90000E46684600F076F846EA450141EA8401BD
:101DA00041EA072242EA0841009A00EB8200C0F8AB
:101DB0000017BDE8FF812DE9FF411C46DDE90A78E7
:101DC00015460E46684600F06BF846EA450141EAC2
:101DD000840141EA072242EA0841009A00EB8200AE
:101DE000C0F80017BDE8FF812DE9FF411C46DDE981
:101DF0000A7815460E46684600F060F846EA450146
:101E000041EA840141EA072242EA0841009A00EBD4
:101E10008200C0F80017BDE8FF811CB500210091C9
:101E20000B4601220191FFF7DFFF1CBD1CB500220C
:101E30000B46009211460192FFF7D6FF1CBD1CB560
:101E4000002100910B46012201911146FFF7CCFFC2
:101E50001CBD13B50C46684600F022F8009900EB53
:101E60008101D1F8002722F44032C1F800270099FF
:101E700000EB8100D0F8001741EA0441C0F80017D8
:101E80001CBD00000168202902D24FF0A04070471D
:101E900001F01F010160014870470000000300507D
:101EA0000168202902D24FF0A040704701F01F01C5
:101EB00001600148704700000003005001682029BC
:101EC00002D24FF0A040704701F01F0101600148AD
:101ED000704700000003005001B56846FFF7E0FFBF
:101EE000D0F810050099C84000F0010008BD01B508
:101EF0006846FFF7E3FF009A01219140C0F80815FA
:101F000008BD38B501240090684631B1FFF7BAFF2B
:101F100000998C40C0F8084538BDFFF7B3FF009921
:101F20008C40C0F80C4538BD1CB5094C0144D4E9BF
:101F30000034CDE900346C4606E000BF54F8203090
:101F4000D3F81035401C08C28142F7D81CBD0000F0
:101F5000C42A0000034908B5084400210160006854
:101F6000009008BD0060004002494058012800D0A0
:101F7000002070470060004000487047F11F0000DB
:101F800030B5184C054689B0207828B16078854274
:101F900002D1002009B030BD202213496846FEF767
:101FA00081F900208DF8140006200090082001908F
:101FB00005200390072002904FF0EB70069009482F
:101FC000001DFFF7B5FE0DB1002200E0074A0548ED
:101FD0006946001DFFF7E6FD0028DBD101202070D7
:101FE0006570D6E7A0000020D42A00004128000038
:101FF0002DE9F04FC1B00D004FF0000140914D9818
:102000004B991C46174601EB000B01D00A2000E05B
:102010000020804600F0D8FA00287CD16E46BCB97A
:10202000409840AA3118284600F0D2FB002872D010
:102030003846FEF749F9C22800D9C2200546409823
:102040002A4630443946FEF72DF9409828444090FE
:102050004FF0200A409901EB080231320DEB0105E7
:102060000DEB0206002002E005F801AB401C4045E4
:10207000FAD300275C4508D305F801AB05F801AB9E
:1020800005F801AB06F801AB2DE04B98844202D273
:102090004A98005D02E0211A4C98405C2B4681462C
:1020A00002460121880022FA00F000F00F00092802
:1020B00001D9373000E03030C1F1010C491E03F87E
:1020C0000C00EFD29D1C05F801ABFEF7E7F80168A4
:1020D00011F8090010F03E0F01D0484600E02E2014
:1020E00006F8010B641C7F1C102FC3D30D20307029
:1020F0000A20707085F800A0409968464144433139
:10210000409100F067FA30B100F05EFA18B9002093
:1021100040905C459ED341B02046BDE8F08F2DE94C
:10212000F043C7B000251C46904689464E9F459512
:1021300000F04AFA00287AD1459805AE311845AA30
:10214000484600F045FB002835D0072F27D2DFE8AE
:1021500007F004121B35424F5D004046FEF7B4F80D
:10216000054645982918FF2919D830442A46414682
:10217000FEF798F813E045982368C0F58071304465
:102180004246FEF703FB09E060680090459823682B
:10219000C0F5807130444246FEF7F8FA05462946FC
:1021A00045A8FFF729F9459978B3B1F5807F3ED866
:1021B00005A800F00FFA47B0BDE8F083D4E90101AB
:1021C000CDE9000145982368C0F58071304442464E
:1021D000FEF7DCFAE2E7201D07C88DE80700459806
:1021E0002368C0F5807130444246FEF7CFFAD5E748
:1021F000201D0FC88DE80F0045982368C0F5807139
:1022000030444246FEF7C2FAC8E710E004F1080085
:1022100001AD0FC885E80F006068009045982368FD
:10222000C0F5807130444246FEF7B0FAB6E70020B0
:10223000C1E70000004870471F2100000120FFF7A0
:102240009FBE00002DE9F04F87B0FFF70FF918B1DE
:10225000002007B0BDE8F08F454ED6E9014704EAFB
:10226000070006EB8000A146641CC5680CE000BFB7
:10227000C5F3891000EB9550044404EA070006EB0F
:102280008000A146C568641CA807F1D005F00300D2
:102290004FF0000B022805D0AA0A01A8C5F383134A
:1022A000002153E004EA070006EB800004F1010A74
:1022B0000AEA0704C268381B80004FEA9558001DDF
:1022C000C5F38913804521D929490C3138B106EB72
:1022D000840400F0FF0CA8EB00000C3404E00C4672
:1022E000002108F0FF0C0846C0B2CDE90210CDE98C
:1022F000004CD6F81444C5F3C2005946A0474045E7
:1023000011D108F103080AEB98042AE0002106EB3A
:1023100084000C300090CDE901810391C5F3C20027
:10232000D6F81444EAE760F38F1509EA070006EBD4
:102330008000C56016E000BF04EA070C06EB8C0CB9
:10234000491CDCF80CC040F804CB641C9942F3D360
:10235000C5F3C2000093D6F8105401AB5946A84704
:1023600000B17460FFF782F880F0010071E70000AF
:10237000D4030020034AFF239360002313605360BB
:1023800000F054B8D40300202DE9F8430F4F8846DD
:102390000446002569462846BE68FFF737F800283E
:1023A00012D00B480021406861F38200009964F369
:1023B000C50001EA060265F3891007EB820268F3A3
:1023C0009F20491CD0600091BDE8F883D403002011
:1023D000F42A00002DE9F843124D884604460127EF
:1023E000914669463846AE68FFF710F8002817D0C6
:1023F0000D480021806861F38200009964F3C500F4
:1024000001EA060267F3891005EB820268F39F2058
:10241000491CD0600091314005EB8101C1F80C905E
:10242000BDE8F883D4030020F42A0000024A02F534
:10243000826203C270470000D403002070B50646D4
:102440000020FFF79DFD040008D1FFF795FD05462C
:10245000FFF7F0FE32462946FFF78CFF204670BD9D
:102460004058002800D00120704708B50022425093
:102470004058009008BDD0F80403084000D0012067
:1024800070474058002800D00120704708B500224E
:1024900042504058009008BD0449084490F930006B
:1024A000082801DB01207047002070472001002030
:1024B0000449084490F93000082801D201207047EF
:1024C000002070472001002070B5034600791B49A9
:1024D00001EB40101968027F4FF0FF30002AD1F85D
:1024E0000C25D1F81465D1F80855D1F8104504D061
:1024F000C1F80C05C1F8140503E0C1F81405C1F8D2
:102500000C051968C1F80805C1F81005501C02D067
:102510001046FFF782FC701C02D03046FFF77DFCAE
:10252000601C02D02046FFF778FC681C04D02846C7
:10253000BDE87040FFF771BC70BD0000880100204D
:1025400070B5012670044FF0E0210025C1F880012C
:10255000084C4010C4F84803C4F8080366602F20F4
:10256000FFF7BCF9A660044C2F20A560FFF7B6F971
:10257000A57070BD001001408800002070B50546B0
:10258000C87D0C4600284FF4847128460AD0FFF716
:102590006CFFD5F81805627EE1688854607E401CA7
:1025A000607670BDFFF761FFD5F8180570BD1FB5E7
:1025B00001238DF800308DF808100192D0E9001247
:1025C000684690471FBD00000148FFF7A5BB00000B
:1025D000A400002070B50D460A46014601240648B5
:1025E000FDF760FEEAB204490448FFF70FFB00B1B3
:1025F0000024204670BD0000D4020020A40000206A
:102600002DE9F84F1D4C00256846D4E901A6FFF7D7
:102610000BF8002738B30023009A61681CE0D1F85A
:1026200000C00846944503D9ACEB02020A6015E0ED
:10263000A2EB0C0263440760D0F80CC0C16981466C
:10264000BCF1000F08D006EB030828F07F48C0E972
:10265000018CC9F81C5005460029E0D1284661606C
:10266000FFF78CF803E02846FFF788F810B15046D2
:10267000FEF754FFE770BDE8F88F000088000020E7
:102680000D4B10B5596831B102680C68A24204D8EC
:10269000A21A0A60C161586010BD0B4603E00B46E8
:1026A000C969121B21B10C689442F8D3A41A0C60BA
:1026B0000260C161D86110BD880000202DE9F041A1
:1026C000144E77683D462C4603E0844204D02546EC
:1026D000E469002CF9D11BE0D4B1A5420BD1F86913
:1026E000706040B90C49012088600021B160F07031
:1026F0002F20FFF7F3F82168E069E86110B1026864
:10270000114401607068874202D00120BDE8F08169
:102710000020FBE78800002000100140F8B50646C5
:1027200000240D462046FEF7ADFB684600F098F900
:1027300068B10570084946609DF8000048700020A7
:10274000FEF7A2FB1420FDF7EFFE2046F8BD04249F
:102750000020FEF799FBF8E7C80100202DE9F041C1
:10276000194D6C68002C2CD0184800270068A96807
:10277000B846401A20F07F462068B0420CD8214667
:10278000361A0744E469087C20B181F81080886912
:1027900049698847002CEFD129786878814206D1B1
:1027A000401CC0B26870022801D185F8018006483B
:1027B00069780C3040F82170BDE8F0411420FDF735
:1027C000B3BEBDE8F0810000880000200415014080
:1027D00010B5144602004FF001000CD008461368F3
:1027E00006A24FF48071FDF7D1FF01462046BDE8F7
:1027F0001040FEF701BE0021216010BD5B2530387E
:10280000645D000070B50C4605464FF48E71FFF70D
:102810002CFEA18AA068415CA08A401CA082C5F859
:102820001C1570BD1FB500228DF800208DF8081012
:10283000816801918275D0E90012684690471FBDFA
:102840000078012801D1014988707047A00000205C
:102850002DE9FF470C4605464FF40071FFF70BFECC
:1028600001274FF40178002618B34FF492794946B6
:102870002846FFF7F5FDE0B149462846FFF7F5FD8C
:10288000C5F80883A07E00B96F6002208DF80000B3
:10289000D5F88004C5F880040390E07D8DF8080029
:1028A000E0680190E6752676D4E900126846904704
:1028B00027E004212846FFF7DEFD10B34FF48471B2
:1028C0002846FFF7CDFDE0B121462846FFF756FE2A
:1028D000E07D617E884214D1207E38B1617EE2685D
:1028E000E0752069E0602676667607E0A07E00B994
:1028F0006F60C5F80883E675617EE2682046FFF7E1
:1029000056FE4FF48E7841462846FFF7A9FD88B160
:10291000A08AA17D884204D221462846FFF772FF93
:1029200008E041462846FFF7A0FDA17D11B12046F1
:10293000FFF778FF4FF4A27841462846FFF790FD55
:10294000002812D041462846FFF78FFDA07E00B137
:102950002F60E07D002808D0E675617EE26804B053
:102960002046BDE8F047FFF722BEBDE8FF872DE90E
:10297000FF410C464FF4927705463946FFF781FD3B
:102980000026C0B139462846FFF780FD02208DF8A9
:102990000000D5F88004C5F880040390D5F83C0504
:1029A0008DF80800E0680190E6752676D4E90012FB
:1029B0006846904724E04FF4887739462846FFF769
:1029C00060FDE8B139462846FFF760FDD5F83C05C3
:1029D000C1B2E07D884213D1207E60B1E268D5F8B3
:1029E000000220F02000C5F80002207EE07520697A
:1029F000E060267601E0E675E2682046FFF7D7FD45
:102A00004FF4A27739462846FFF73BFD68B13946B7
:102A10002846FFF73BFDE07D38B1E675D5F83C056B
:102A2000E268C1B22046FFF7C2FD4FF4907631460E
:102A30002846FFF726FD00280FD031462846FFF72D
:102A400025FDA07D002808D0D5F84C0504B0C1B202
:102A50002046BDE8F041FFF7E5BEBDE8FF8100007C
:102A60000A494A788B78521CD2B2934200D1002294
:102A70000B78934201D1002070470270487800EB38
:102A8000400001EBC000001D70470000C80100209D
:102A90000D0E0F100B0C1819B4000020D4000020EC
:102AA000000100200B000300411000000C00030097
:102AB000411000001800030041100000190003003D
:102AC000411000000000005000030050A801002049
:102AD00003000000FFFFFFFFFFFFFFFFFFFFFFFFFF
:102AE000FFFFFFFF00000000000000000000D60113
:102AF00007010000290000000100000001000000A3
:102B000001000000010000000100000001000000C1
:102B100001000000020000000040404040404040F2
:102B200040404141414141404040404040404040A0
:102B30004040404040404040400502020202020244
:102B40000202020202020202022020202020202093
:102B500020202002020202020202909090909090A7
:102B60001010101010101010101010101010101065
:102B700010101010020202020202888888888888D9
:102B800008080808080808080808080808080808C5
:102B9000080808080202020240000000192B000089
:102BA0004253505F494E4449434154455F55534554
:102BB000525F53544154455F300000004253505F10
:102BC000494E4449434154455F414C4552545F305E
:102BD000000000004253505F494E44494341544570
:102BE0005F555345525F53544154455F31000000D7
:102BF0004253505F494E4449434154455F414C451F
:102C000052545F31000000004253505F494E444926
:102C1000434154455F555345525F53544154455FBA
:102C2000320000004253505F494E444943415445ED
:102C30005F414C4552545F32000000004253505FE8
:102C4000494E4449434154455F555345525F53549F
:102C50004154455F330000004253505F494E4449A0
:102C6000434154455F414C4552545F3300000000DE
:102C70004253505F494E4449434154455F434F4E90
:102C80004E454354454400004253505F494E444929
:102C9000434154455F4144564552544953494E4778
:102CA0005F44495245435445440000004253505F3D
:102CB000494E4449434154455F49444C4500000056
:102CC0004253505F494E4449434154455F55534533
:102CD000525F53544154455F4F4646004253505F44
:102CE000494E4449434154455F414C4552545F4F1E
:102CF000464600004253505F494E444943415445C3
:102D00005F424F4E44494E47000000004253505F1F
:102D1000494E4449434154455F5343414E4E494E09
:102D2000470000004253505F494E444943415445D7
:102D30005F4144564552544953494E4700000000F4
:102D40004253505F494E4449434154455F53454EB9
:102D5000545F4F4B000000004253505F494E4449BE
:102D6000434154455F5243565F4F4B004253505FBF
:102D7000494E4449434154455F555345525F53546E
:102D80004154455F4F4E00004253505F494E444905
:102D9000434154455F53454E445F4552524F5200A4
:102DA0004253505F494E4449434154455F46415464
:102DB000414C5F4552524F52000000004253505F59
:102DC000494E4449434154455F5243565F45525230
:102DD0004F5200004253505F494E444943415445CD
:102DE0005F4144564552544953494E475F574849FD
:102DF00054454C49535400004253505F494E444996
:102E0000434154455F4144564552544953494E4706
:102E10005F534C4F570000004F766572666C6F77BA
:102E20000D0A0000442E000000000020B400000045
:102E3000B4070000F82E0000B40000203C2700007A
:102E4000C407000000000000AC2C00000C2D0000A6
:102E5000242D0000D42D0000F82D0000882C000047
:102E6000F42C0000702C0000402D0000882D000084
:102E7000582D0000BC2D0000A02D0000BC2B000030
:102E8000F02B0000242C0000582C0000DC2C00004B
:102E9000C02C0000A02B0000D42B0000082C000048
:102EA0003C2C00006C2D0000000000000000000021
:102EB0000000000000000000000000000000000012
:102EC0000000000000000000000000000000000002
:102ED00000000000000000000000000000000000F2
:102EE0000000000000000000002000400000000082
:082EF000182E00000090D00331
:0400000500000201F4
:00000001FF
