:020000040000FA
:1000000048200020150200001D0200001F02000011
:100010002102000023020000250200000000000071
:1000200000000000000000000000000027020000A7
:1000300029020000000000002B0200002D02000039
:100040005D0200002F020000AD0400002F0200003E
:100050002F0200002F0200002F0200002F020000DC
:100060002F0200002F0200002F020000B502000046
:100070002F0200002F0200002F0200002F020000BC
:100080002F0200002F0200002F0200002F020000AC
:100090002F0200002F0200002F0200002F0200009C
:1000A0002F0200002F0200002F0200002F0200008C
:1000B0002F0200002F0200000000000000000000DE
:1000C0002F0200002F0200002F0200002F0200006C
:1000D0002F0200002F0200002F0200002F0200005C
:1000E0002F0200002F0200002F0200002F0200004C
:1000F000000000002F0200000000000000000000CF
:1001000000000000000000000000000000000000EF
:1001100000000000000000000000000000000000DF
:1001200000000000000000000000000000000000CF
:1001300000000000000000000000000000000000BF
:1001400000000000000000000000000000000000AF
:10015000000000000000000000000000000000009F
:10016000000000000000000000000000000000008F
:10017000000000000000000000000000000000007F
:10018000000000000000000000000000000000006F
:10019000000000000000000000000000000000005F
:1001A000000000000000000000000000000000004F
:1001B000000000000000000000000000000000003F
:1001C000000000000000000000000000000000002F
:1001D000000000000000000000000000000000001F
:1001E000000000000000000000000000000000000F
:1001F00000000000000000000000000000000000FF
:10020000DFF80CD000F018F800480047E1050000C6
:10021000482000200648804706480047FEE7FEE7E2
:10022000FEE7FEE7FEE7FEE7FEE7FEE7FEE7FEE7A6
:10023000C502000001020000064C074D06E0E06820
:1002400040F0010394E8070098471034AC42F6D31D
:10025000FFF7DAFFB00C0000D00C00002DE9F041F0
:100260004FF48077384600F0F3F90124104EA507CB
:1002700048B1384600F0F3F90120C5F8080374705E
:10028000002000F08DF94FF48277384600F0E0F955
:1002900000280BD0384600F0E2F90220C5F8080328
:1002A000B470BDE8F041012000F07AB9BDE8F081FA
:1002B0001000002003220021014800F0C5BA000010
:1002C00000B0004030B54FF080500022D0F830111F
:1002D0000123082902D1D0F8344114B1082909D0EA
:1002E0000BE04FF08041C1F80C21C1F810216149A9
:1002F0000A6005E0D0F8344114B1082957D059E01C
:100300005D4909685D4C21605B49091D0968241D30
:100310002160594908310968241D216056490C3172
:100320000968241D2160544910310968241D216089
:10033000514914310968241D21604F491831096859
:100340004E4C203421604C491C310968241D216029
:10035000494920310968241D216047492431096831
:10036000241D2160444928310968241D2160424927
:100370002C310968241D21603F49303109683F4C08
:10038000403421603C4934310968241D21603A49D8
:1003900038310968241D216037493C310968241D22
:1003A0002160354940310968241D216005E0D0F8FD
:1003B000344114B1082904D006E0324C30492160A0
:1003C00005E0D0F8344114B1082904D006E02E4CE1
:1003D000FB21216005E0D0F8344114B1082908D090
:1003E0000EE090F858422948016864F30301016067
:1003F00002E0D0F8340118B925494FF400700860C4
:100400002448016841F470010160BFF34F8FBFF3CE
:100410006F8F4FF01021D1F80002002803DBD1F8D4
:100420000402002822DA1C4C23601C480368002BBD
:10043000FCD01223C1F800320568002DFCD0C1F8B1
:10044000043201680029FCD0226001680029FCD038
:10045000BFF34F8F0F487C380168114A01F4E06107
:1004600011430160BFF34F8F00BFFDE70E490D48F8
:10047000086030BD380500400404001020C500406D
:10048000488103008C56004018F50040E40E0040FF
:100490004096024088ED00E004E5014000E40140A0
:1004A0000400FA050090D0030C0000200448017FEE
:1004B00004480029024901D000F076BB00F0E5BAFB
:1004C000240000200020004002E008C8121F08C1DC
:1004D000002AFAD170477047002001E001C1121FC5
:1004E000002AFBD170470000BFF34F8F0548016819
:1004F000054A01F4E06111430160BFF34F8F00BF73
:10050000FDE700000CED00E00400FA050EB5002147
:100510000091CDE901106A4644F20100FFF7E4FFC3
:100520000EBD00F003B800F009B8000072B6024832
:100530000168491C016070470800002003490868F1
:10054000401E086000D162B670470000080000201D
:100550000249085C012100F017BA0000A80C000055
:100560007CB50024084E25460122305D009500230D
:100570001146019500F0CAF9641C042CF4D3BDE8BF
:100580007C4000F003B80000A80C000010B5002467
:100590002046FFF7DDFF641C042CF9D310BD0000DA
:1005A00070B5084C050009D010342168002907D027
:1005B00008682060496828468847F6E70834F4E769
:1005C00070BD0000100000200268134602E08A425D
:1005D00004D01268002AFAD10B6001607047000055
:1005E0001CB5FFF7BDFF00F043F808B1FFF78EFF21
:1005F000002000F05FF81449144AD1E90001CDE968
:10060000000140F6FF70ADF800000F486946083061
:1006100000F0EAF808B1FFF779FF0B480121083034
:1006200000F062F90848012318220021083000F088
:100630008DF808B1FFF76AFF0348083000F0C8F8EA
:1006400040BF20BF20BFFBE7980C0000F30900006B
:1006500000F180400068002800D00120704708B5F4
:1006600000F18040002101600068009008BD00009A
:1006700070B50E4C0025207808B1852513E00021C7
:10068000A16061602161E1604FF0E020D0F80001DD
:10069000012610F0010F03D10721002000F03AF8E5
:1006A000034806602670284670BD00001000002038
:1006B0001805004070B5154D0446A87838B114B13E
:1006C0006168012088470020FFF72BFF15E000201C
:1006D000FFF727FF24B10D4821461030FFF774FFC4
:1006E000E86850B94FF48270FFF7B9FF0220410764
:1006F000C1F80403064901200860E868401CE8606E
:10070000BDE870400020FFF70EBF00001000002081
:10071000080000404907090E002806DA00F00F0221
:1007200002F1E02282F8141D03E000F1E02282F8D9
:10073000001400F01F02012191404009800000F1E7
:10074000E020C0F88012C0F8001170472DE9F04198
:1007500005464FF4A07000EB810086B228684FF484
:1007600080348C40C0F848432868C0F8084322F021
:100770007F406A79154F02EB42023A445278002AD0
:100780002A6802EB8101C1F8400512D02968D1F82E
:100790000425111A824202D26FF07F400144687929
:1007A00000EB400038448078884202DD0D20BDE82F
:1007B000F08133B13146286800F0F9F82868C0F8B4
:1007C00004432868C0F844430020F0E700000020FC
:1007D000016801220A604079024A00EB40000221D0
:1007E000115470470000002070B50D4604465AB100
:1007F000607914490E1F41F82020607900EB400019
:10080000305C18B1082070BD072070BDA97894F93C
:100810000400FFF77FFF20682988C0F80815617978
:10082000287901EB4101314448706179E87801EBA6
:100830004101314488706179012001EB410170541C
:10084000002070BD040000202DE9F0479146884645
:1008500004464FF480354FF4A0760027DFF884A0DB
:1008600016E000BFD4F8040328420DD0A05958B1B7
:10087000C4F84853C4F808533146204600F097F8AE
:100880005AF82810F8B28847361D6D00B6B27F1CA2
:100890004F45E7D3D4F804034FF4807110F0010FF3
:1008A00009D0D4F8000130B1204600F080F85AF8A1
:1008B000281004208847D4F804034FF4827110F004
:1008C000020F0CD0D4F80401002808D0204600F014
:1008D0006EF85AF82810BDE8F04705200847BDE833
:1008E000F08700000400002070B50E4605464FF466
:1008F00080710124006800F05AF82868C0F8444369
:10090000002E02D02868C0F8044370BD2DE9FF41D5
:100910001C46DDE90A7815460E46684600F010F8D8
:1009200046EA450141EA840141EA072242EA0841D8
:10093000009A00EB8200C0F80017BDE8FF810000BC
:100940000168202902D24FF0A040704701F01F013A
:10095000016001487047000000030050202802D2C7
:100960004FF0A04202E0074A00F01F00D2F8043521
:100970000121814021EA0300C2F808051940C2F8AC
:100980000C1570470003005038B5012400906846EC
:1009900031B1FFF7D5FF00998C40C0F8084538BD4C
:1009A000FFF7CEFF00998C40C0F80C4538BD08B564
:1009B000002242504058009008BD4058002800D006
:1009C0000120704708B5002242504058009008BDF1
:1009D000D0F80403084000D0012070474058002898
:1009E00000D00120704708B50022425040580090C6
:1009F00008BD20B1042804D10D20FFF7AFBF0E20A1
:100A0000FBE7704770B50546C87D0C4600284FF4DB
:100A1000847128460AD0FFF7D5FFD5F81805627E05
:100A2000E1688854607E401C607670BDFFF7CAFFA5
:100A3000D5F8180570BD1FB501238DF800308DF86D
:100A400008100192D0E90012684690471FBD70B5AA
:100A50000C4605464FF48E71FFF7B4FFA18AA068DB
:100A6000415CA08A401CA082C5F81C1570BD1FB552
:100A700000228DF800208DF80810816801918275A0
:100A8000D0E90012684690471FBD2DE9FF470C468C
:100A900005464FF40071FFF79BFF01274FF40178E3
:100AA000002618B34FF4927949462846FFF785FF90
:100AB000E0B149462846FFF785FFC5F80883A07EC8
:100AC00000B96F6002208DF80000D5F88004C5F8E9
:100AD00080040390E07D8DF80800E0680190E675E1
:100AE0002676D4E900126846904727E0042128467C
:100AF000FFF76EFF10B34FF484712846FFF75DFFD8
:100B0000E0B121462846FFF77DFFE07D617E884207
:100B100014D1207E38B1617EE268E0752069E06022
:100B20002676667607E0A07E00B96F60C5F8088378
:100B3000E675617EE2682046FFF77DFF4FF48E7810
:100B400041462846FFF739FF88B1A08AA17D884237
:100B500004D221462846FFF77AFF08E0414628469E
:100B6000FFF730FFA17D11B12046FFF780FF4FF462
:100B7000A27841462846FFF720FF002812D04146C0
:100B80002846FFF71FFFA07E00B12F60E07D002800
:100B900008D0E675617EE26804B02046BDE8F04703
:100BA000FFF749BFBDE8FF872DE9FF410C464FF431
:100BB000927705463946FFF711FF0026C0B1394646
:100BC0002846FFF710FF02208DF80000D5F88004BA
:100BD000C5F880040390D5F83C058DF80800E0685E
:100BE0000190E6752676D4E900126846904724E025
:100BF0004FF4887739462846FFF7F0FEE8B13946CA
:100C00002846FFF7F0FED5F83C05C1B2E07D8842EA
:100C100013D1207E60B1E268D5F8000220F02000F8
:100C2000C5F80002207EE0752069E060267601E0CC
:100C3000E675E2682046FFF7FEFE4FF4A2773946DC
:100C40002846FFF7CBFE68B139462846FFF7CBFEB2
:100C5000E07D38B1E675D5F83C05E268C1B22046C2
:100C6000FFF7E9FE4FF4907631462846FFF7B6FECF
:100C700000280FD031462846FFF7B5FEA07D00289A
:100C800008D0D5F84C0504B0C1B22046BDE8F0410B
:100C9000FFF7EDBEBDE8FF81000007410000000046
:100CA00000B000400B0003000D0E0F100B0C1819C4
:100CB000D00C00000000002010000000C80400005C
:100CC000E00C00001000002038200000D8040000D4
:100CD0000000000000000000000000000090D003B1
:0400000500000201F4
:00000001FF
