:020000040000FA
:1000000038200020150200001D0200001F02000021
:100010002102000023020000250200000000000071
:1000200000000000000000000000000027020000A7
:1000300029020000000000002B0200002D02000039
:100040002F0200002F020000750500002F020000A3
:100050002F0200002F0200002F0200002F020000DC
:10006000290500002F0200002F0200002F020000CF
:100070002F0200002F0200002F0200002F020000BC
:100080002F0200002F0200002F0200002F020000AC
:100090002F0200002F0200002F0200002F0200009C
:1000A0002F0200002F0200002F0200002F0200008C
:1000B0002F0200002F0200000000000000000000DE
:1000C0002F0200002F0200002F0200002F0200006C
:1000D0002F0200002F0200002F020000000000008D
:1000E0000000000000000000000000000000000010
:1000F0000000000000000000000000000000000000
:1001000000000000000000000000000000000000EF
:1001100000000000000000000000000000000000DF
:1001200000000000000000000000000000000000CF
:1001300000000000000000000000000000000000BF
:1001400000000000000000000000000000000000AF
:10015000000000000000000000000000000000009F
:10016000000000000000000000000000000000008F
:10017000000000000000000000000000000000007F
:10018000000000000000000000000000000000006F
:10019000000000000000000000000000000000005F
:1001A000000000000000000000000000000000004F
:1001B000000000000000000000000000000000003F
:1001C000000000000000000000000000000000002F
:1001D000000000000000000000000000000000001F
:1001E000000000000000000000000000000000000F
:1001F00000000000000000000000000000000000FF
:10020000DFF80CD000F018F8004800476106000045
:10021000382000200648804706480047FEE7FEE7F2
:10022000FEE7FEE7FEE7FEE7FEE7FEE7FEE7FEE7A6
:100230005D02000001020000064C074D06E0E06888
:1002400040F0010394E8070098471034AC42F6D31D
:10025000FFF7DAFF240B0000440B0000F0B5A348C1
:100260000023021D01780125101D4FF0805406293E
:100270000BD11678360708D10678C6F30316032E7D
:1002800006D0042E04D0052E02D0062907D00EE099
:10029000B4F82463964FC6F304263E6002E0167855
:1002A000360704D10678C6F30316032E02D00629BA
:1002B00004D00FE0904F8F4E7E670EE01678360721
:1002C00008D10678C6F30316032E06D0042E04D0F8
:1002D000052E02D0062907D00EE0D4F84462874FDD
:1002E000C6F342363E6002E01678360704D106783F
:1002F000C6F30316032E02D0062906D011E0804E65
:10030000376827F0807737600EE01678360708D117
:100310000678C6F30316032E06D0042E04D0052E4D
:1003200002D006290AD011E04FF08046C6F80C3101
:10033000C6F81031714E361F336002E0167836076A
:1003400004D10678C6F30316032E02D0062905D081
:100350000CE06A4F032664373E600AE016783607E1
:1003600004D10678C6F30316032E02D006290DD059
:1003700014E0644F05263E60624E78363560614E6B
:10038000083633603F263F1D3E6002E01678360790
:1003900004D10678C6F30316052E02D0062957D0DD
:1003A00068E059490968594A11605749091D0968A7
:1003B000121D1160544908310968121D116052491B
:1003C0000C310968121D11604F4910310968121D66
:1003D00011604D4914310968121D11604A491831E4
:1003E00009684A4A2032116047491C310968121DC8
:1003F0001160454920310968121D116042492431BC
:100400000968121D1160404928310968121D1160E8
:100410003D492C310968121D11603B493031096892
:100420003A4A40321160384934310968121D11606E
:10043000354938310968121D116033493C3109686A
:10044000121D1160304940310968121D116002E02F
:10045000117809070ED10078C0F30310032803D0E8
:10046000042801D0052805D1D4F85802284900F005
:100470004F00086022487438016841F4700101603F
:10048000BFF34F8FBFF36F8F4FF01021D1F80002F1
:10049000002803DBD1F80402002822DA1D4A156087
:1004A0001D480468002CFCD01524C1F800420568E2
:1004B000002DFCD0C1F8044201680029FCD0136073
:1004C00001680029FCD0BFF34F8F0D48F038016858
:1004D000124A01F4E06111430160BFF34F8F00BF86
:1004E000FDE710490E480860F0BD0000E00F00F085
:1004F000403501400DF0ADBA00C007403C0500405A
:10050000FCED00E0105600400404001020C500403F
:10051000E40E004004E5014000E401400400FA0557
:100520000090D003040000202DE9F84300250F4C73
:1005300004274FF4A078BE034FEA050908EB8500B5
:1005400006FA05F122585AB1D4F804230A4207D01A
:1005500044F800902158064A00915168126890476B
:100560006D1CEDB2BD42E9D3BDE8F88300800040C8
:10057000080000200448017F04480029024901D0F6
:1005800000F04BBA00F0BAB914000020002000407F
:1005900002E008C8121F08C1002AFAD1704770474C
:1005A000002001E001C1121F002AFBD170470000AA
:1005B000BFF34F8F05480168054A01F4E06111431C
:1005C0000160BFF34F8F00BFFDE700000CED00E0BE
:1005D0000400FA050EB500210091CDE901106A462C
:1005E00044F20100FFF7E4FF0EBD000007490B5C79
:1005F0004FF0A041D1F804250120984020EA0203E1
:10060000C1F808351040C1F80C0570471C0B0000FC
:100610000249085C012100F0F7B800001C0B000043
:100620007CB50024084E25460122305D009500234C
:100630001146019500F0D6F8641C042CF4D3BDE8F3
:100640007C4000F003B800001C0B000010B5002433
:100650002046FFF7DDFF641C042CF9D310BD000019
:100660000EB5FFF7DDFF0F490F4AD1E90201CDE9D1
:10067000010101A90B4800F06DF808B1FFF7AAFFCE
:1006800008480068D0F81005084A0021C24001203F
:1006900003460090034800F047F8024800F036F89F
:1006A00030BFFDE70C0B0000A108000000127A002B
:1006B0004907090E002806DA00F00F0202F1E022D5
:1006C00082F8141D03E000F1E02282F8001400F02B
:1006D0001F02012191404009800000F1E020C0F894
:1006E0008012C0F80011704730B54FF480340568AF
:1006F0008C4013B1C5F8044301E0C5F80843006815
:1007000000EB8100C0F8402530BD000001680122E7
:100710000A600079034A00EB400002EB80000221EE
:100720000172704708000020F0B40468049E40F293
:100730000115D4F800728D40AF43C4F8007204680C
:10074000D4F800521D43C4F800523346F0BCFFF702
:10075000CBBF0000F8B504460D460079204900EBF8
:10076000400001EB8006307A08B10820F8BD3AB1AC
:10077000326068687060002003464FF4A07709E09B
:100780000720F8BD226807EB800153505158401CE8
:10079000C0B2009161798142F4D82068E978000BF9
:1007A00040B2FFF785FF20686978D0F8042561F32F
:1007B0000102C0F804252068A978D0F8082561F363
:1007C0000102C0F8082520682978D0F8102561F3C7
:1007D0000302C0F81025012030720020F8BD00008F
:1007E0000800002070B541EA4201DDE904564FF0EF
:1007F000A04441EA830141EA052104EB800041EA7B
:100800000641C0F8001770BD01224FF0A04382409E
:1008100011B1C3F808257047C3F80C25704740583C
:10082000002800D00120704708B5002242504058EF
:10083000009008BDD0F80403084000D001207047A4
:100840004058002800D00120704708B500224250CF
:100850004058009008BD70B50546C87D0C4600287C
:100860004FF4847128460AD0FFF7DEFFD5F818054B
:10087000627EE1688854607E401C607670BDFFF740
:10088000D3FFD5F8180570BD1FB501238DF80030D2
:100890008DF808100192D0E90012684690471FBDFC
:1008A000064A0346116801F00300491C1160B3F5C4
:1008B000A07F01D1FFF79ABE704700000000002022
:1008C00070B50C4605464FF48E71FFF7ADFFA18A57
:1008D000A068415CA08A401CA082C5F81C1570BDB0
:1008E0001FB500228DF800208DF808108168019155
:1008F0008275D0E90012684690471FBD2DE9FF4779
:100900000C4605464FF40071FFF794FF01274FF4A2
:100910000178002618B34FF4927949462846FFF72C
:100920007EFFE0B149462846FFF77EFFC5F8088301
:10093000A07E00B96F6002208DF80000D5F8800419
:10094000C5F880040390E07D8DF80800E068019010
:10095000E6752676D4E900126846904727E0042120
:100960002846FFF767FF10B34FF484712846FFF75E
:1009700056FFE0B121462846FFF76DFFE07D617E1E
:10098000884214D1207E38B1617EE268E07520692A
:10099000E0602676667607E0A07E00B96F60C5F855
:1009A0000883E675617EE2682046FFF76DFF4FF42D
:1009B0008E7841462846FFF732FF88B1A08AA17D94
:1009C000884204D221462846FFF77AFF08E04146D4
:1009D0002846FFF729FFA17D11B12046FFF780FFD0
:1009E0004FF4A27841462846FFF719FF002812D09D
:1009F00041462846FFF718FFA07E00B12F60E07D3A
:100A0000002808D0E675617EE26804B02046BDE8A3
:100A1000F047FFF739BFBDE8FF872DE9FF410C46DE
:100A20004FF4927705463946FFF70AFF0026C0B11A
:100A300039462846FFF709FF02208DF80000D5F857
:100A40008004C5F880040390D5F83C058DF80800B3
:100A5000E0680190E6752676D4E900126846904772
:100A600024E04FF4887739462846FFF7E9FEE8B1DD
:100A700039462846FFF7E9FED5F83C05C1B2E07DCE
:100A8000884213D1207E60B1E268D5F8000220F0E0
:100A90002000C5F80002207EE0752069E06026761F
:100AA00001E0E675E2682046FFF7EEFE4FF4A2771C
:100AB00039462846FFF7C4FE68B139462846FFF795
:100AC000C4FEE07D38B1E675D5F83C05E268C1B2F8
:100AD0002046FFF7D9FE4FF4907631462846FFF7BF
:100AE000AFFE00280FD031462846FFF7AEFEA07DAE
:100AF000002808D0D5F84C0504B0C1B22046BDE8A6
:100B0000F041FFF7EDBEBDE8FF810000008000402E
:100B1000000400000000030700000000111213147D
:100B20000D0E0F10440B0000000000200800000014
:100B3000900500004C0B0000080000203020000051
:0C0B4000A0050000000000000090D003A1
:0400000500000201F4
:00000001FF
