:020000040000FA
:10000000A0200020150200001D0200001F020000B9
:100010002102000023020000250200000000000071
:1000200000000000000000000000000027020000A7
:1000300029020000000000002B0200002D02000039
:100040002F0200002F020000490600002F020000CE
:100050002F0200002F0200005D0200002F020000AE
:10006000FD0500002F0200002F0200002F020000FB
:100070002F0200002F0200002F0200002F020000BC
:100080002F0200002F0200002F0200002F020000AC
:100090002F0200002F0200002F0200002F0200009C
:1000A0002F0200002F0200002F0200002F0200008C
:1000B0002F0200002F0200000000000000000000DE
:1000C0002F0200002F0200002F0200002F0200006C
:1000D0002F0200002F0200002F0200002F0200005C
:1000E0002F0200002F0200002F0200002F0200004C
:1000F000000000002F0200000000000000000000CF
:1001000000000000000000000000000000000000EF
:1001100000000000000000000000000000000000DF
:1001200000000000000000000000000000000000CF
:1001300000000000000000000000000000000000BF
:1001400000000000000000000000000000000000AF
:10015000000000000000000000000000000000009F
:10016000000000000000000000000000000000008F
:10017000000000000000000000000000000000007F
:10018000000000000000000000000000000000006F
:10019000000000000000000000000000000000005F
:1001A000000000000000000000000000000000004F
:1001B000000000000000000000000000000000003F
:1001C000000000000000000000000000000000002F
:1001D000000000000000000000000000000000001F
:1001E000000000000000000000000000000000000F
:1001F00000000000000000000000000000000000FF
:10020000DFF80CD000F018F800480047F9070000AC
:10021000A02000200648804706480047FEE7FEE78A
:10022000FEE7FEE7FEE7FEE7FEE7FEE7FEE7FEE7A6
:100230001504000001020000064C074D06E0E068CE
:1002400040F0010394E8070098471034AC42F6D31D
:10025000FFF7DAFF880F0000A80F00002DE9F04F2C
:1002600000258DB0DFF8A481A94605954FF480766E
:1002700001242F460695304600F00CFD38B1D8F821
:100280000403204203D0304600F0FAFC2543361D1B
:1002900064007F1CB6B2082FEDD34FF4BE74204625
:1002A00000F0F8FC48B1204600F0EAFC45F00045BB
:1002B00005AA0221002000F0CDFC554E15F0FF0FDD
:1002C00015D0012700242F420DD008EB8401D1F86E
:1002D0001005D1F81015C0F3052056F82420C1F3FD
:1002E000014102B190477F00641C082CEBD3002D24
:1002F0004DDA0020CDF82490411E4FF0010A0DF197
:10030000140B07ADCDF8289045F82010401C0228AA
:10031000FAD300BF96F854704FF0000878B227F077
:10032000C004401C33D007A9204600F089FA0028F9
:100330002DD04FEA9719204600F00AFA56F820709F
:100340001FB1B9F1030F03D00CE0B9F1030F1ED1B7
:1003500009A8E10804F00702435C0AFA02FC43EA38
:100360000C03435402A8029400F05CFC029900EBD9
:100370008100D0F8000705A9C0F301400290204693
:1003800000F05EFA0028029804D0022804D00DB0D4
:10039000BDE8F08F0328FAD1B9F1030F08D1029814
:1003A00002282CD00221204600F019FC4FF0010851
:1003B00017B149462046B847B8F1000FE7D001AA67
:1003C0000221002000F046FC00205A460DF10401F5
:1003D00052F8204051F82030A34212D0002009AB3F
:1003E00051F8204042F8204053F8204045F8204082
:1003F000401C0228F4D3B8F1000F8BD1C7E70321CA
:10040000D1E7401C0228E3D3C1E7000000600040B0
:100410001800002030B54FF080500022D0F8301185
:100420000123082902D1D0F8344114B1082909D098
:100430000BE04FF08041C1F80C21C1F81021614957
:100440000A6005E0D0F8344114B1082957D059E0CA
:100450005D4909685D4C21605B49091D0968241DDF
:100460002160594908310968241D216056490C3121
:100470000968241D2160544910310968241D216038
:10048000514914310968241D21604F491831096808
:100490004E4C203421604C491C310968241D2160D8
:1004A000494920310968241D2160474924310968E0
:1004B000241D2160444928310968241D21604249D6
:1004C0002C310968241D21603F49303109683F4CB7
:1004D000403421603C4934310968241D21603A4987
:1004E00038310968241D216037493C310968241DD1
:1004F0002160354940310968241D216005E0D0F8AC
:10050000344114B1082904D006E0324C304921604E
:1005100005E0D0F8344114B1082904D006E02E4C8F
:10052000FB21216005E0D0F8344114B1082908D03E
:100530000EE090F858422948016864F30301016015
:1005400002E0D0F8340118B925494FF40070086072
:100550002448016841F470010160BFF34F8FBFF37D
:100560006F8F4FF01021D1F80002002803DBD1F883
:100570000402002822DA1C4C23601C480368002B6C
:10058000FCD01223C1F800320568002DFCD0C1F860
:10059000043201680029FCD0226001680029FCD0E7
:1005A000BFF34F8F0F487C380168114A01F4E061B6
:1005B00011430160BFF34F8F00BFFDE70E490D48A7
:1005C000086030BD380500400404001020C500401C
:1005D000488103008C56004018F50040E40E0040AE
:1005E0004096024088ED00E004E5014000E401404F
:1005F0000400FA050090D003140000202DE9F84310
:1006000000250F4C04274FF4A078BE034FEA0509DC
:1006100008EB850006FA05F122585AB1D4F80423F4
:100620000A4207D044F800902158064A00915168C8
:10063000126890476D1CEDB2BD42E9D3BDE8F88366
:1006400000800040700000200448017F0448002919
:10065000024901D000F015BC00F084BB7C000020F2
:100660000020004002E008C8121F08C1002AFAD189
:1006700070477047002001E001C1121F002AFBD122
:1006800070470000BFF34F8F05480168054A01F429
:10069000E06111430160BFF34F8F00BFFDE7000031
:1006A0000CED00E00400FA050EB500210091CDE943
:1006B00001106A4644F20100FFF7E4FF0EBD00F0AE
:1006C00003B800F009B8000072B602480168491C7E
:1006D000016070471000002003490868401E086050
:1006E00000D162B6704700001000002005494FF0AD
:1006F000FF32082841F8202002D3084480F84C201B
:100700007047000018000020F0B54FF0FF3512B11F
:100710000023082601E0082309260C4C05E000BF51
:1007200054F823707F1C04D05B1CB342F8D32846D6
:10073000F0BD26185DB286F8245044F82310002A34
:10074000F5D1E11881F84C00F1E700001800002015
:100750000249084490F92400704700001800002066
:100760000121814003484068014201D001207047C7
:10077000002070470800002001218140080300D0BC
:10078000012070473EB5194802A9006802900D206B
:1007900000F0A8F808B1FFF787FF0020014600909D
:1007A0000123134A134800F0A3F901A800F00EF941
:1007B00008B1FFF779FF0F4804680D2004F5A07415
:1007C00000F0E8F8024621469DF8040000F02EF9FA
:1007D00008B1FFF769FF9DF8040000F049F908B17E
:1007E000FFF762FF0D2000F0DFF83EBD740F000040
:1007F000400D0300000000201CB500F04DF908B1C9
:10080000FFF752FF00F040F808B1FFF74DFF09492C
:10081000094AD1E90101CDE900016946074800F024
:100820007DF908B1FFF740FFFFF7ACFF034800F088
:1008300051F9FEE7740F0000270D000000000020B2
:10084000C20800F007030120895C98400840704707
:100850004907090E002806DA00F00F0202F1E02233
:1008600082F8141D03E000F1E02282F8001400F089
:100870001F02012191404009800000F1E020C0F8F2
:100880008012C0F80011704770B5144D95F85500EE
:1008900008B1082070BD0020411E2A18401CC0B2BB
:1008A00082F824103028F8D300242046FFF71EFFDA
:1008B000641CE4B2092CF8D307210620FFF7C8FF17
:1008C0004FF4BE7000F0DCF905494FF00040C1F86C
:1008D0000403012085F85500002070BD1800002099
:1008E000006000402DE9FC41044627480D462044A5
:1008F000002690F92410491C01D008263EE0A97872
:10090000002751B3012200212046FFF7FDFE411CC4
:1009100021D083001D482A7818446978D0F8103512
:10092000DFF86CC003EA0C03C0F81035D0F81035BE
:100930004FF47C5C0CEA042C43EA0C034FF4403C7B
:100940000CEA02424FF4801C0CEA01510A431343A3
:10095000C0F8103504E0042610E0FE2180F82410D1
:100960006878012820460CD000F051F90122204679
:10097000009700231146019700F018F93046BDE8B2
:10098000FC8100F05DF9F1E71800002000600040F4
:10099000FFC0ECFF10B5FFF7DBFE0249800601EB5C
:1009A000106010BD006000400649084490F9240022
:1009B000810005480844D0F8101541F00301C0F843
:1009C0001015704718000020006000402DE9F04726
:1009D0000427144E814600244FF001080020FFF741
:1009E0006EFE08FA04F5354203D02046FFF7B8FE44
:1009F00058B10020FFF765FE27B104F10104AE43B2
:100A0000E4B2EBD13846BDE8F087074908FA04F0B4
:100A100000274A681043486089F800403846FFF7CD
:100A200050FEEFE7FFFF0F00080000202DE9F04126
:100A300014460D00074612D08CB10026FFF79CFE2D
:100A400078B13846FFF78CFE68B1084800EBC70064
:100A5000C0F81055C0F814453046BDE8F0810E20AE
:100A6000FBE70726F8E70826F6E7000000F001405C
:100A700070B5044601260025A640FFF77DFE18B19B
:100A80002046FFF76DFE18B102480660284670BD8B
:100A90000825FBE704F501400448017809B18520E9
:100AA00070470121017000207047000008000020FD
:100AB00030B54FF4803405688C4013B1C5F8044359
:100AC00001E0C5F80843006800EB8100C0F840254C
:100AD00030BD0000016801220A600079034A00EB82
:100AE000400002EB8000022101727047700000207C
:100AF000F0B40468049E40F20115D4F800728D40F1
:100B0000AF43C4F800720468D4F800521D43C4F81F
:100B100000523346F0BCFFF7CBBF0000F8B50446E7
:100B20000D460079204900EB400001EB8006307A49
:100B300008B10820F8BD3AB13260686870600020E2
:100B400003464FF4A07709E00720F8BD226807EBC1
:100B5000800153505158401CC0B2009161798142CC
:100B6000F4D82068E978000B40B2FFF771FE2068E6
:100B70006978D0F8042561F30102C0F804252068E3
:100B8000A978D0F8082561F30102C0F8082520688B
:100B90002978D0F8102561F30302C0F81025012050
:100BA00030720020F8BD0000700000202DE9FF41E8
:100BB0001C46DDE90A7815460E46684600F032F814
:100BC00046EA450141EA840141EA072242EA084136
:100BD000009A00EB8200C0F80017BDE8FF8113B552
:100BE0000C46684600F01EF8009900EB8101D1F830
:100BF000002722F44032C1F80027009900EB810061
:100C0000D0F8001741EA0441C0F800171CBD01B537
:100C1000684600F007F8009A01219140C0F80C15D1
:100C200008BD00000168202902D24FF0A0407047A3
:100C300001F01F01016001487047000000030050EF
:100C400001B56846FFF7EEFF009A01219140C0F818
:100C5000081508BD1CB5094C0144D4E90034CDE9A0
:100C600000346C4606E000BF54F82030D3F810354D
:100C7000401C08C28142F7D81CBD0000800F000054
:100C8000034908B50844002101600068009008BDD0
:100C90000060004002494058012800D00020704701
:100CA000006000404058002800D00120704708B57F
:100CB000002242504058009008BDD0F8040308407C
:100CC00000D0012070474058002800D00120704714
:100CD00008B5002242504058009008BD70B5054646
:100CE000C87D0C4600284FF4847128460AD0FFF7CF
:100CF000DEFFD5F81805627EE1688854607E401CEE
:100D0000607670BDFFF7D3FFD5F8180570BD1FB52D
:100D100001238DF800308DF808100192D0E90012FF
:100D2000684690471FBD704770B50C4605464FF4A6
:100D30008E71FFF7BCFFA18AA068415CA08A401CAD
:100D4000A082C5F81C1570BD1FB500228DF80020CB
:100D50008DF80810816801918275D0E9001268460B
:100D600090471FBD2DE9FF470C4605464FF4007123
:100D7000FFF7A3FF01274FF40178002618B34FF4C3
:100D8000927949462846FFF78DFFE0B1494628464B
:100D9000FFF78DFFC5F80883A07E00B96F600220C1
:100DA0008DF80000D5F88004C5F880040390E07D3C
:100DB0008DF80800E0680190E6752676D4E9001207
:100DC0006846904727E004212846FFF776FF10B3D6
:100DD0004FF484712846FFF765FFE0B121462846AD
:100DE000FFF77CFFE07D617E884214D1207E38B120
:100DF000617EE268E0752069E0602676667607E04D
:100E0000A07E00B96F60C5F80883E675617EE26870
:100E10002046FFF77CFF4FF48E7841462846FFF7C7
:100E200041FF88B1A08AA17D884204D2214628468C
:100E3000FFF77AFF08E041462846FFF738FFA17D1B
:100E400011B12046FFF780FF4FF4A27841462846B3
:100E5000FFF728FF002812D041462846FFF727FF5A
:100E6000A07E00B12F60E07D002808D0E675617E8D
:100E7000E26804B02046BDE8F047FFF748BFBDE890
:100E8000FF872DE9FF410C464FF49277054639461E
:100E9000FFF719FF0026C0B139462846FFF718FFB3
:100EA00002208DF80000D5F88004C5F88004039076
:100EB000D5F83C058DF80800E0680190E6752676C7
:100EC000D4E900126846904724E04FF48877394609
:100ED0002846FFF7F8FEE8B139462846FFF7F8FE46
:100EE000D5F83C05C1B2E07D884213D1207E60B1C7
:100EF000E268D5F8000220F02000C5F80002207E4C
:100F0000E0752069E060267601E0E675E26820463B
:100F1000FFF7FDFE4FF4A27739462846FFF7D3FED0
:100F200068B139462846FFF7D3FEE07D38B1E67553
:100F3000D5F83C05E268C1B22046FFF7E8FE4FF461
:100F4000907631462846FFF7BEFE00280FD0314686
:100F50002846FFF7BDFEA07D002808D0D5F84C0537
:100F600004B0C1B22046BDE8F041FFF7EDBEBDE8D8
:100F7000FF810000030001000400030700000000DF
:100F80000000005000030050A80F000000000020E7
:100F90001800000064060000C00F000018000020C8
:100FA000882000007406000000800040000400005B
:100FB0000000000000000000000000000090D003CE
:0400000500000201F4
:00000001FF
