:020000040001F9
:10F000002858002015F201001DF201001FF2010036
:10F0100021F2010023F2010025F2010000000000AE
:10F0200000000000000000000000000027F20100C6
:10F0300029F20100000000002BF201002DF2010076
:10F04000F1F501002FF2010061F901002FF201003A
:10F050002FF201002FF20100EDF301002FF2010069
:10F060002FF201002FF201002FF201002FF2010018
:10F070002FF201002FF201002FF201002FF2010008
:10F080002FF2010049F601002FF201002FF20100DA
:10F090006DF601002FF2010071F601002FF2010060
:10F0A0002FF201002FF201002FF201002FF20100D8
:10F0B0002FF201002FF2010000000000000000000C
:10F0C0002FF201002FF201002FF201002FF20100B8
:10F0D0002FF201002FF201002FF2010000000000CA
:10F0E0000000000000000000000000000000000020
:10F0F0000000000000000000000000000000000010
:10F1000000000000000000000000000000000000FF
:10F1100000000000000000000000000000000000EF
:10F1200000000000000000000000000000000000DF
:10F1300000000000000000000000000000000000CF
:10F1400000000000000000000000000000000000BF
:10F1500000000000000000000000000000000000AF
:10F16000000000000000000000000000000000009F
:10F17000000000000000000000000000000000008F
:10F18000000000000000000000000000000000007F
:10F19000000000000000000000000000000000006F
:10F1A000000000000000000000000000000000005F
:10F1B000000000000000000000000000000000004F
:10F1C000000000000000000000000000000000003F
:10F1D000000000000000000000000000000000002F
:10F1E000000000000000000000000000000000001F
:10F1F000000000000000000000000000000000000F
:10F20000DFF80CD000F0B4F80048004731390200B4
:10F21000285800200648804706480047FEE7FEE7DA
:10F22000FEE7FEE7FEE7FEE7FEE7FEE7FEE7FEE7B6
:10F2300095F6010001F201002DE9F05F054600207E
:10F2400092469B4688460646814640241BE0284657
:10F2500041464746224600F07AF853465A46C01ABD
:10F26000914110D311461846224600F061F82D1A3C
:10F2700067EB01084F4622460120002100F058F8B4
:10F2800017EB00094E41201EA4F10104DFDC4846C3
:10F2900031462A464346BDE8F09F000000487047CB
:10F2A000C47F020010B5431A934209D2831888180C
:10F2B00003E010F8011D03F8011D521EF9D210BD24
:10F2C00040EA01039B0703D009E008C9121F08C0E8
:10F2D000042AFAD203E011F8013B00F8013B521E68
:10F2E000F9D210BDD2B201E000F8012B491EFBD2C9
:10F2F00070470022F6E710B513460A460446194641
:10F30000FFF7F0FF204610BD421C10F8011B00293A
:10F31000FBD1801A704730B504460020034600E058
:10F320005B1C934203D2E05CCD5C401BF8D030BD47
:10F33000202A04DB203A00FA02F1002070479140B5
:10F34000C2F1200320FA03F3194390407047202AAA
:10F3500004DB203A21FA02F00021704721FA02F37F
:10F36000D040C2F120029140084319467047000086
:10F37000064C074D06E0E06840F0010394E8070002
:10F3800098471034AC42F6D3FFF73EFFA881020045
:10F39000C881020070B58C1810F8015B15F00703E6
:10F3A00001D110F8013B2A1106D110F8012B03E01E
:10F3B00010F8016B01F8016B5B1EF9D12B0705D426
:10F3C0000023521E0DD401F8013BFAE710F8013B6F
:10F3D000CB1A921C03E013F8015B01F8015B521E8B
:10F3E000F9D5A142D8D3002070BD00002DE9F04727
:10F3F00000268CB0DFF86091B0464FF48075012490
:10F4000037460696284605F001F838B1D9F80403C6
:10F41000204203D0284604F0EFFF26432D1D640050
:10F420007F1CADB2082FEDD34FF4BE74204604F01C
:10F43000EDFF48B1204604F0DFFF46F0004606AA83
:10F440000121002004F0C4FF444D16F0FF0F15D039
:10F450000127002437420DD009EB8401D1F81005B3
:10F46000D1F81015C0F3042055F82420C1F3014150
:10F4700002B190477F00641C082CEBD3002E67DAA2
:10F480004FF0FF30CDE9088000263446281910F8E7
:10F49000507F90F9000027F0C008401C44D009A913
:10F4A000404604F0BBFB58B34FEA9719404602F0C0
:10F4B00083FA55F820701FB1B9F1030F03D00FE0A4
:10F4C000B9F1030F30D108A84FEAD80208F00703BA
:10F4D000815C4FF0010C0CFA03FC41EA0C018154F1
:10F4E0004FF0A04101EB8800D0F8000706A9C0F357
:10F4F000014A404604F092FB18B1BAF1020F03D062
:10F5000012E0BAF1030F0FD1B9F1030F08D1BAF12C
:10F51000020F1BD00221404604F03DFF761CF6B2DC
:10F5200017B149464046B847641C042CAED3002EA0
:10F530000ED06A460121002004F04AFF0699009887
:10F54000884205D00690089809909DE70321E2E7DC
:10F550000CB0BDE8F087000000600040D82F00200C
:10F5600000F01F02012191404009800000F1E020DD
:10F57000C0F88012704700F01F020121914040093D
:10F58000800000F1E020C0F88011704700F01F02F9
:10F59000012191404009800000F1E020C0F80011F5
:10F5A000704700F01F02012191404009800000F1E6
:10F5B000E020C0F80011704700F01F0201219140C7
:10F5C0004009800000F1E020C0F8001270474907B0
:10F5D000090E002806DA00F00F0000F1E02080F8A4
:10F5E000141D704700F1E02080F8001470470000FF
:10F5F0002DE9F0414FF48077384604F0BFFB012439
:10F60000104EA50748B1384604F0BFFB0120C5F8ED
:10F6100008037470002002F05FFA4FF482773846D6
:10F6200004F0ACFB00280BD0384604F0AEFB0220FF
:10F63000C5F80803B470BDE8F041012002F04CBAEF
:10F64000BDE8F081C42F002007480021C0F8401118
:10F65000C0F84411C0F84811C0F84C11C0F80011AE
:10F66000C0F8041107F0B0BF0010014007F0FABE67
:10F67000074810B5406830B18047002807D0BDE882
:10F68000104000F0D5BDBDE8104003F0FDBD10BD39
:10F69000C8260020F0B5A3480023021D01780125EB
:10F6A000101D4FF0805406290BD11678360708D16B
:10F6B0000678C6F30316032E06D0042E04D0052EBA
:10F6C00002D0062907D00EE0B4F82463964FC6F3A3
:10F6D00004263E6002E01678360704D10678C6F3A9
:10F6E0000316032E02D0062904D00FE0904F8F4E50
:10F6F0007E670EE01678360708D10678C6F3031643
:10F70000032E06D0042E04D0052E02D0062907D0E1
:10F710000EE0D4F84462874FC6F342363E6002E002
:10F720001678360704D10678C6F30316032E02D0E6
:10F73000062906D011E0804E376827F080773760C1
:10F740000EE01678360708D10678C6F30316032EA6
:10F7500006D0042E04D0052E02D006290AD011E0CE
:10F760004FF08046C6F80C31C6F81031714E361F86
:10F77000336002E01678360704D10678C6F3031624
:10F78000032E02D0062905D00CE06A4F0326643709
:10F790003E600AE01678360704D10678C6F30316F1
:10F7A000032E02D006290DD014E0644F05263E60DA
:10F7B000624E78363560614E083633603F263F1D15
:10F7C0003E6002E01678360704D10678C6F30316C9
:10F7D000052E02D0062957D068E059490968594AD0
:10F7E00011605749091D0968121D116054490831FB
:10F7F0000968121D116052490C310968121D11600F
:10F800004F4910310968121D11604D4914310968C2
:10F81000121D11604A49183109684A4A20321160A4
:10F8200047491C310968121D11604549203109689A
:10F83000121D1160424924310968121D11604049AE
:10F8400028310968121D11603D492C310968121DCB
:10F8500011603B49303109683A4A403211603849F9
:10F8600034310968121D1160354938310968121D9B
:10F87000116033493C310968121D11603049403133
:10F880000968121D116002E0117809070ED1007895
:10F89000C0F30310032803D0042801D0052805D1A4
:10F8A000D4F85802284900F04F0008602248743804
:10F8B000016841F470010160BFF34F8FBFF36F8F98
:10F8C0004FF01021D1F80002002803DBD1F8040228
:10F8D000002822DA1D4A15601D480468002CFCD05F
:10F8E0001524C1F800420568002DFCD0C1F804427F
:10F8F00001680029FCD0136001680029FCD0BFF327
:10F900004F8F0D48F0380168124A01F4E06111434D
:10F910000160BFF34F8F00BFFDE710490E4808603C
:10F92000F0BD0000E00F00F0403501400DF0ADBA31
:10F9300000C007403C050040FCED00E010560040D0
:10F940000404001020C50040E40E004004E501401E
:10F9500000E401400400FA050090D003DC260020FA
:10F960000448017F04480029024901D007F06DBF17
:10F9700007F0DCBE30300020002000400FB41CB582
:10F980000A46521ECDE9000207A9054B6A460698B1
:10F9900000F02AF8009A002111701CBC5DF814FBDD
:10F9A0004BFE010002E008C8121F08C1002AFAD16C
:10F9B00070477047002001E001C1121F002AFBD1EF
:10F9C000704700000121202803DA814005480140EA
:10F9D00003E0402802DA2038814009B10120704755
:10F9E00000207047FC06FFBD2DE9FF4F8DB00F468C
:10F9F0000546002606E025280BD0DDE90F129047CA
:10FA00006D1C761C28780028F5D111B03046BDE871
:10FA1000F08F0024A246A1460122EC4900E00443F5
:10FA200015F8013F203B02FA03F00842F7D128788D
:10FA30002A2810D06FF02F022878A0F13001092970
:10FA400014D80AEB8A0102EB410144F0020400EBF6
:10FA5000010A6D1CF0E701CF5FEA000A03D544F408
:10FA60000054CAF1000A44F002046D1C28782E28C4
:10FA700017D115F8010F44F004042A280ED06FF0B6
:10FA80002F022878A0F1300109290AD809EB890151
:10FA900002EB410100EB01096D1CF2E757F8049BF2
:10FAA0006D1C28786C280FD006DC4C2817D06828ED
:10FAB0000DD06A2814D104E0742810D07A280FD110
:10FAC0000DE044F400140AE044F4801401E044F42E
:10FAD00040146978814202D104F580146D1C6D1CBC
:10FAE0002A786E2A1FD00CDC632A31D004DC002A6D
:10FAF0008BD0582A11D1A3E0642A68D0692A0CD18E
:10FB000065E0732A2ED004DC6F2A73D0702A04D1EA
:10FB10009BE0752A6FD0782A6ED01046DDE90F126F
:10FB20009047761C50E1C4F30250022806D0032807
:10FB300009D0042801CF09D0066045E101CFF117B3
:10FB4000C0E9006140E101CF06803DE106703BE184
:10FB500017F8040B8DF8000000208DF80100EB462B
:10FB6000012003E057F804BB4FF0FF3061074FF06E
:10FB7000000102D40DE008F10101884649450FDA81
:10FB80008045F8DB1BF808100029F4D108E008F1E3
:10FB9000010188468142FADB1BF808100029F6D1E2
:10FBA000DDE90F23AAEB08008146214600F036F973
:10FBB000304400EB080604E0DDE90F121BF8010BEE
:10FBC0009047B8F10108F7D221464846F7E00A21EC
:10FBD000C4F302534FF0000B0891022B04D001CF65
:10FBE000C117032B09D00AE0FF1D27F00707F7E82C
:10FBF000020108E032E01FE020E000B2C117042B50
:10FC000001D140B2C117031E71F1000307DA4FF0B2
:10FC1000000CD0EB0C006CEB01012D2302E023055E
:10FC200004D52B238DF82430012303E0E30701D012
:10FC30002023F7E7984658E00A2110E010210EE053
:10FC400010204FF0000B08900CE010214FF0000B3B
:10FC500044F004044FF00809089103E008214FF034
:10FC6000000B0891C4F30253022B04D001CF0021F2
:10FC7000032B06D006E0FF1D27F00707F7E8020177
:10FC800003E080B2042B00D1C0B24FF0000823077C
:10FC90002BD5702A07D0DDF820C08CF0100C5CEA60
:10FCA0000B0C05D00EE040238DF82430012308E032
:10FCB00050EA010306D030238DF824308DF825203A
:10FCC00002239846DDF820C08CF0080C5CEA0B0C8F
:10FCD0000BD150EA010301D1630706D530238DF81B
:10FCE00024304FF00108A9F10109582A04D038A2A4
:10FCF0000B9208AA0A920BE03AA2F9E75B46089A2F
:10FD0000FFF79AFA0B9B9B5C0A9A521E0A92137099
:10FD100050EA0102F2D10A98ADEB000000F1200B8D
:10FD2000600702D524F4803401E04FF00109D94581
:10FD300002DDA9EB0B0000E0002000EB0B014144C9
:10FD40000890AAEB010AE00306D4DDE90F2321465F
:10FD5000504600F063F806444FF0000908E009A996
:10FD600011F80900DDE90F12904709F10109761C2D
:10FD7000C145F4DBE0030CD5DDE90F2321465046F5
:10FD800000F04CF8064404E0DDE90F123020904703
:10FD9000761C0899481E08900029F5DC08E00A98AE
:10FDA0000A990078491C0A91DDE90F129047761CE8
:10FDB000BBF10001ABF1010BF1DC21465046DDE95E
:10FDC0000F2300F019F806446D1C1BE609280100FA
:10FDD00030313233343536373839616263646566C1
:10FDE0000000000030313233343536373839414283
:10FDF00043444546000000002DE9F041044600253B
:10FE00001E461746880404D405E039462020B04732
:10FE10006D1C641EF9D52846BDE8F0812DE9F0413E
:10FE2000044600251E469046C80301D5302700E051
:10FE30002027880404D505E041463846B0476D1CAC
:10FE4000641EF9D52846BDE8F0814A68002A06D02C
:10FE50000A68531C0B6010704868401E4860704769
:10FE600010B560B159B102780B785208B2EB530F5C
:10FE700005D10622401C491CFFF74DFA08B10020AD
:10FE800010BD012010BD2DE9FC470025178806464E
:10FE9000158090F82D001446894630B13A46214627
:10FEA000484600F0F5FF050009D1B0784FF00C0A84
:10FEB00018B32088C846001DB84202D95046BDE894
:10FEC000FC87684679DF0028F9D12088032108F8EB
:10FED000001020881921401C80B2208008F80010F2
:10FEE0002088401C80B2208000EB0801BDF8000093
:10FEF00007F023FD218808442080F0780222C8B151
:10FF0000218896F9033001F1030C4846BC45D5D849
:10FF1000425421884FF0010C491C89B2218000F81D
:10FF200001C02188491C89B2218009F8013020884C
:10FF3000401C20807068B8B1218890F9003001F130
:10FF4000030C4846BC45B9D8425421880A22491CB2
:10FF500089B2218042542188491C89B2218009F844
:10FF600001302088401C2080308950B1CDE9004705
:10FF70004B460622022106F1080007F037FD050076
:10FF80009DD1308A50B1CDE900474B46072203216D
:10FF900006F1100007F02AFD050090D1308B50B11A
:10FFA000CDE900474B461522142106F1180007F051
:10FFB0001DFD050083D1306A30B13B4622464946DB
:10FFC00001F0F4FD0500DBD1706A30B13B462246FA
:10FFD000494603F05FFD0500D2D196F82C0038B1F8
:10FFE0003B4622464946304606F0BEFD0500C7D1D5
:10FFF000307838B13B4622464946304603F07CFD16
:020000040002F8
:100000000500BDD128465AE7134A0021535C0BB1C5
:10001000012203E0491C0629F8D300220F490128D8
:1000200006D0022809D003280CD0042812D10DE0F4
:10003000487810B10AB101207047887810B10AB130
:1000400002207047C87808B103207047087908B1CA
:100050000420704700207047B5250020602900204B
:1000600010B501220221002001F0CCFA08B10728C6
:1000700010D107220221012001F0C4FA08B107289B
:1000800008D100210A22084601F0BCFA08B107286D
:1000900000D1002010BD000010B530B108A1032030
:1000A00004F0C4FB05F0F4FE02E0032000F068FC5D
:1000B000002803D0BDE8104000F0BAB810BD000021
:1000C0004150503A494E464F3A457261736520623D
:1000D0006F6E6473210D0A0070B58CB015460E4624
:1000E00000236C46C3F10F01415CE1545B1C102BF3
:1000F000F8D30D2104F11000FFF7FBF80020C0F148
:100100000F02315C2244401C11740328F7D3684667
:1001100043DF0020C0F10F01214491F82010295441
:10012000401C0328F6D30CB070BD022001F02EB99C
:1001300070B50024064D06E06868012110F834000F
:1001400003F0DEFE641C28788442F5D3002070BDE5
:1001500074260020F8B515460C460646052A01D23D
:100160000720F8BD03F0B2FF18B903F081FF0028A3
:10017000F7D1104900204E600C70C1E902500E4DBD
:1001800008610DE006EBC4006968009181788DF884
:1001900001100078094A694603F004FF0028E0D105
:1001A000641EE4B2EED2BDE8F840054A00210248E0
:1001B00000F04AB874260020E07E0200D52A020032
:1001C000151D02000DA1012004F030FB04F088FA97
:1001D00004F08AFA0028FBD10CA1032004F026FBCE
:1001E000BFF34F8F10480168104A01F4E0611143DA
:1001F0000160BFF34F8F00BFFDE700003A45525248
:100200004F523A466174616C0D0A00003A494E46FD
:100210004F3A486974207765616B2068616E646C41
:1002200065720D0A000000000CED00E00400FA0504
:100230000EB500210091CDE901106A4644F201009B
:10024000FFF7C0FF0EBD0000074B9B7823B12AB11A
:1002500020B10068037C1BB108207047072070475D
:1002600041744261002070477030002070B506F084
:100270006DF9104800240B21047044700E4D8170FC
:1002800014206C602C706C70FFF76AF90721142041
:10029000FFF79DF91420FFF779F90848046007215A
:1002A0001120FFF794F90548001F0068A86000209E
:1002B00070BD000070300020882600200815014025
:1002C0002DE9FC47DFF8789099F8023073B368B3F2
:1002D000052902D20720BDE8FC87436933B3437C7C
:1002E000012B25D0002704460025884616468DF8A8
:1002F0000050684600F038F801A807F05FFBC8B16D
:10030000012101700F4944600968C0E90218C0E981
:1003100004769DF8040089F801009DF8000000F0C3
:1003200047F81420FFF748F92846D4E70820D2E719
:100330000F46D8E704259DF8000000F039F8F3E7F0
:1003400070300020041501400649897839B130B178
:10035000416921B100210174022107F011B908207F
:10036000704700007030002030B5EFF3108172B696
:100370000D4A9468012324B10370002900D162B6AC
:1003800030BD93604FF0E023D3F88051074C2540F7
:100390001560C3F88041D3F8844154605A17C3F8FC
:1003A000842100220270E8E77C310020FC06FFBDBA
:1003B0000B498A68002A11D000280FD1EFF3108072
:1003C00072B60B684FF0E022C2F800314B68C2F8F9
:1003D000043100228A60002800D162B67047000014
:1003E0007C31002010B5144C00224FF4803120687D
:1003F000FFF766FF08B1FFF71BFF00224FF4004133
:100400006068FFF75DFF08B1FFF712FF002242F2BC
:100410006661A068FFF754FF08B1FFF709FF0022EB
:100420004FF42031E068FFF74BFF002803D0BDE810
:100430001040FFF7FDBE10BDF87D02002DE9F04130
:10044000064608680C46411C4FF0A0474FF00105D6
:1004500006D005FA00F1C7F80815206803F080FF00
:100460006068411C02D0002103F071FF30792049FF
:1004700001EB4010A169007F00283068C0F8241506
:1004800025D0607D227D31681043C1F86C05D4E928
:1004900000123068C0F80C15C0F8142524E0A068DC
:1004A000411C02D0002103F052FFE068411C05D03E
:1004B0008540C7F80855E06803F052FFD4E90212FE
:1004C0003068C0F80825C0F81015BDE8F081607DDF
:1004D000217D32680843C2F86C05D4E90012306807
:1004E000C0F81425C0F80C15207D0128D7D0ECE702
:1004F000303000202DE9F043044687B0008800F03A
:100500005DFC8146208802F031FE214F8046667AEC
:10051000208800223978A56800F0A2FCB9F1000F0C
:1005200033D06079400711D50721404604F0CCFE56
:10053000A0B108218DF80C1021880590ADF80E109F
:10054000ADF8108003A801F0D7FC07E02088B97847
:1005500000F070FC10B1404602F0F4FD03208DF86D
:1005600000002088ADF802006079C0F380008DF8AB
:100570000400A079C0F380008DF805008DF80650C6
:100580008DF80760684601F0B7FC07B0BDE8F0835E
:10059000102600202DE9F0430546007D93B00E465D
:1005A0000024A0B107949DF81C0020F00F00401C0F
:1005B00020F0F00010308DF81C00707B8DF81D00CD
:1005C0009DF81E0020F00600801C8DF81E001C21E6
:1005D0006846FEF78EFE9DF8000040F002008DF8A0
:1005E0000000297D11B140F0100001E020F0100062
:1005F0008DF80000019403940494287D00B107A8AD
:10060000CDE9050401278DF8427042F61920ADF8B6
:1006100040000D94B07B8DF83400F07B8DF83500F0
:100620009DF83600142120F00600801C20F01900EF
:100630008DF83600307B8DF8440008A8FEF759FE8F
:100640000DF140080DF13409ADF8287011A8CDE97D
:100650000889ADF82A40ADF82C700C90A888AB1D25
:1006600008AA6946A2DF002838D1B06898B38DF88F
:10067000427042F60810ADF840000D94307C8DF8C1
:1006800034009DF8350020F0FF008DF835009DF80E
:10069000360020F00600801C20F019008DF836008E
:1006A0000EA8B16800F09FFD0646142108A8FEF7C9
:1006B00020FEADF828600EA8CDE90889ADF82A40E3
:1006C000ADF82C600C90E88805F10E0208A9A3DFB4
:1006D000002803D101E0FFE7EC81002013B0BDE862
:1006E000F083000010B50C490C4806F07CF9C1B24B
:1006F00009487C3800F0C6F900280BD0082809D03A
:10070000132807D043F20141884203D0BDE81040CE
:10071000FFF78EBD10BD0000C4280020602500201A
:10072000F0B50C4693B01F210726ADF80010ADF8C8
:100730000410002750B1C17849070DD56A4602A9B7
:10074000FFF7A1FB002808D102AD02E00025ADF8BB
:1007500000706CB1E07810B1304613B0F0BD01AA62
:100760000AA92046FFF78FFB0028F6D10AAA02E06B
:100770000022ADF80470BDF80400C3B2BDF800005B
:10078000C1B2284672DFE8E70149087170470000EE
:100790009C2500202DE9F0471F46DDF820801346F8
:1007A0008946040043D0EBB3404D01200026287059
:1007B000EE70202219463E48FEF774FD2E71C5E901
:1007C00004784FF6FF706881AE613948AE83AE772A
:1007D0003C212030FEF78DFD354821782030017016
:1007E000A1788170E178C170617841703049D4E9B5
:1007F0000423C1E90C23D4E90223C1E90A23D4E983
:100800000623C1E90E23616AE1B100F13C0100F168
:10081000480241628A60636A1B880B80616A436A8E
:10082000898800E003E099800021436A07E00E20F8
:10083000BDE8F087656AAD686D5C5554491C9D88BC
:100840008D42F7D8A16AD9B1194A9432A2F10C01AC
:100850008A608162A36A9B888B80A16A836A098807
:1008600019800021836A04E0A56AAD686D5C555467
:10087000491C9D888D42F7D894F82C1080F82C10D4
:10088000216A49B109490C310162226A52884A80C1
:10089000216A026A09881180616801B14160494694
:1008A000BDE8F04702482030FFF73ABF9C25002002
:1008B0006029002010B50188144C102918D0112986
:1008C0001CD01B2919D1007A002816D1E078052107
:1008D000401CB0FBF1F201FB120000BF00F050F829
:1008E00000280AD06169002907D0BDE810400847F8
:1008F000C17B012901D18088608110BD0021A171D7
:10090000808861898842F8D10120E7E79C25002092
:1009100010B5022801D0032810D1094C60780028B6
:100920000CD000206070E07800F02AF8002805D094
:100930006169002902D0BDE81040084710BD0000E1
:100940009C25002010B574DF0B4C01200B49A071D1
:10095000002020720620C87000210848FFF7E0FE42
:10096000002807D1E07800F00BF810B1616901B1FF
:100970008847002010BD00009C2500208029002011
:100980002DE9F0413D4C804686B0207848B184F88E
:10099000038004A801F07AFD0498012628B166704E
:1009A00068E0082006B0BDE8F0810025A561344F5D
:1009B000A583A577787810B1E078012806D0B878BB
:1009C00058B1E078012801D0022806D1216919B177
:1009D00066710820884700E065714046FFF714FB08
:1009E000E070216939B1032801D0042803D1387897
:1009F00008B1A07990B1E571009502950195039534
:100A00008DF800508DF808501C48E1781830052901
:100A100025D2DFE801F03108111D21002572E671B1
:100A200007208847E8E7A67001908DF80060ADF8D0
:100A30000C50ADF80A5014E00221A17001908DF81D
:100A40000060B889ADF80C003889ADF80A0008E0FC
:100A5000684606F06FF902E0684606F08FF9E07824
:100A600020B12179684673DF00289BD1216909B143
:100A7000A0788847002095E7A570F7E79C2500201F
:100A80006029002073B586B0040034D0217C9DF825
:100A90001C20002091422CD0002501260095ADF8A5
:100AA000006007A8ADF802500190E188608A6A46AC
:100AB000A4DF00281DD19DF81C002074608AA0F5D9
:100AC0007F41FF3919D0207DB8B102950395049577
:100AD0000595E088ADF80800BDF80200ADF80C00FF
:100AE00001988DF80A60CDF810D00590608A02A9AF
:100AF000A6DF08B070BD0E20FBE70820F9E738B587
:100B00000D4604001BD0D5B1286820604FF6FF7059
:100B1000608228792075FF20207401208DF8020062
:100B200041F60F00ADF80000221D69460120A0DF4C
:100B3000002803D129462046FFF72CFD38BD0E20A2
:100B400038BD38B5002823D0002921D00A88102AC2
:100B500019D0112A19D0502A1AD10446007D002834
:100B600016D031F8060F6289904211D148890228C7
:100B70000ED1206800280BD001F10C0000F02FFBF3
:100B800038B1002006E0898801E04FF6FF7141820C
:100B900038BD01208DF80000226869462046904744
:100BA00038BD000070B5054601461C220F48FEF70F
:100BB00079FB0F4C00262670286830B1016861600F
:100BC0004068A060201D7ADF02E00948001D7BDF3D
:100BD00000280AD14FF6FF7060806670BDE8704053
:100BE000044A00210448FFF72FBB70BD342A0020BF
:100BF000BC25002045790200407E020070B51E4CE5
:100C0000068800231B49E289102E15D01B4D112E9A
:100C10001CD0122E29D0502E17D130F8061F914229
:100C200013D14189022910D10C3000F0D8FA88B1D3
:100C3000BDE8704001F000B884884C800469CC6045
:100C4000406908614B70002AF2D070BD4FF6FF700A
:100C500048804B702868FFF777FB0028F5D0A16922
:100C60000029F2D0BDE8704008478268CA60C068B9
:100C70000861DDE7BC250020342A0020407E020008
:100C800002494A6C091D05F02BBD0000502A0020C6
:100C900002460248016D001D05F00FBD502A0020DC
:100CA00002460248416D001D05F007BD502A002094
:100CB0002DE9F047044603883F480122A4B000F123
:100CC000480A102B09D0112B54D01A2B70D1217A3D
:100CD000B2EB111F53D2012352E0D0E911218A4314
:100CE0000546011D12A805F0FBFC442212A901A82B
:100CF000FEF7D8FADFF8C0900026374609F144091C
:100D00000DF104080AE000BF08EB46001D228388AD
:100D10004946281D009705F095FC761C0198B042C5
:100D2000F2D8686CA688C04305F0AEFCA0F57F4100
:100D3000FF3917D005EB400001238680324651462B
:100D4000281D05F0F2FC012332464946281D05F016
:100D5000ECFCE07B02280BD000231749A2884C3121
:100D6000281D20E024B00420BDE8F047FFF760BA5A
:100D70000123F2E70023A2885146001D13E000235F
:100D80000D490546A2885031001D05F0CEFC207AA1
:100D90000221B1EB101F01D2012300E0002306491C
:100DA000A2885431281D24B0BDE8F04705F0BDBC31
:100DB00024B0BDE8F0870000502A002070B50A4E2C
:100DC000054600242A46301D716C05F076FC40B1C2
:100DD0002A46301DF16C05F070FC08B1022400E0D9
:100DE0000124204670BD0000502A002010B50024C8
:100DF000204606F0D7FD28B1641CE4B2182CF7D3C6
:100E0000182010BD03480122A2400168114301606F
:100E1000204610BD502A002010B5044606F0C2FD41
:100E2000002803D0024800EB8400806D10BD000054
:100E3000502A002070B505460C46084606F0B2FD63
:100E4000002809D005482A4600EB8401001D896D61
:100E5000BDE8704005F031BC70BD0000502A002094
:100E600070B5064615460C46084606F09BFD002860
:100E70000AD006482B4600EB84013246BDE870409C
:100E8000001D583105F051BC70BD0000502A0020F3
:100E90007CB5054608880C460930904201D90C20E3
:100EA0007CBD68466DDF0028FAD12188082068548F
:100EB00020881B21401C80B2208029542088401C9F
:100EC00080B220802844DDF801100160BDF80510D3
:100ED00081802088801D80B220809DF80010490804
:100EE00000D0012129542088401C208000207CBD96
:100EF0007FB5044601208DF8060041F60A00ADF8E2
:100F00000400454A01A90120A0DF00287ED12288E3
:100F100004F13C0552B140482B46801C009042F63B
:100F20002920616800F050FD002873D1228952B158
:100F300039482B460A30009042F62420E16800F040
:100F400043FD002866D1228A52B133482B46123025
:100F5000009042F62520616900F036FD002859D145
:100F6000228B52B12C482B461A30009042F6272093
:100F7000E16900F029FD00284CD1228C52B12648AD
:100F80002B462230009042F62620616A00F01CFDBC
:100F900000283FD1228D52B11F482B462A300090A5
:100FA00042F62820E16A00F00FFD002832D1216BC3
:100FB00071B102A806F035FA17482B46323000907E
:100FC000082202A942F6232000F0FEFC002821D1CD
:100FD000606B58B110492B463A3100910279016893
:100FE00042F62A2000F0F0FC002813D1A16B81B159
:100FF00002A805F051F808482B464230009007221D
:1010000002A942F6502000F0DFFC00E002E00028D8
:1010100000D1002004B070BD2A26002010B504467F
:10102000FFF746FE204604F069FE21460D4800F019
:1010300078F80C4821461838FFF783FD2046FFF763
:10104000DDFD204600F02AFA204603F00FFD204681
:10105000FFF730FC21460348BDE81040503002F055
:10106000F7BD00006028002030B50446008CADB00C
:10107000A0F57F42FF3A23D06A46204601F0D6FE13
:101080000546ADF89C000020289029902A902B90CE
:101090002189ADF8A0100121ADF8A4008DF8A210AF
:1010A00027A82A90CDF8ACD0208C28A9A6DF00284C
:1010B00004D1BDF89C10A94200D00C202DB030BD49
:1010C0000820FBE738B5044608682060087960719D
:1010D0004FF6FF702084002084F82200A4F84C0012
:1010E0009B2084F84E0001208DF8020041F60D008F
:1010F0000D46ADF80000A21D69460120A0DF0028C2
:101100000ED12946204601F02FFE002808D1A868FC
:1011100028B12946204600F0DFF8002800D1002041
:1011200038BD38B502460888102815D0112815D0CA
:10113000502816D1881DC9889389994211D14189B7
:10114000144602290DD1216800290AD00C3000F084
:1011500046F838B1002006E0888801E04FF6FF70BD
:10116000108438BD01208DF80000226869462046B1
:10117000904738BD028C4B889A4208D10A88A2F564
:101180002063773B03D10979C91E80F84E10704760
:1011900070B50446B0F84C000D4614280AD104F18D
:1011A00026012622881EFEF77DF8B4F84C00401E6A
:1011B000A4F84C00B4F84C0004EB4001401CA4F827
:1011C0004C008D8470BD80F82210704770B50446C5
:1011D0000D460846FEF798F82080656070BD0078DF
:1011E00000F0010070470A780270497841700220CF
:1011F0007047000030B5344885B000230069049082
:10120000D822324904A806F0C1F808B1FFF710F857
:10121000002403A8039406F02BF808B1FFF708F8A0
:101220000094019402948DF8004069460120039ACD
:1012300069DF08B1FEF7FCFF012500948DF800502E
:101240008DF80140019402948DF8024069464020D7
:10125000039A69DF08B1FEF7EBFF00948DF80050A8
:101260009E20ADF802000194029469462320039A5F
:1012700069DF08B1FEF7DCFF009401944FF4A07021
:101280008DF80050ADF8040002948DF802506946C4
:101290002020039A69DF08B1FEF7CAFF03A805F012
:1012A000FBFF08B1FEF7C4FF094805F0EBFF08B1EA
:1012B000FEF7BEFF074806F0A1F8002801D0FEF7B0
:1012C000B7FF05B030BD0000F87D02007027002098
:1012D0001D10020011740200F0B58FB00D460646D5
:1012E0001C216846FEF705F800249DF800000394D1
:1012F00040F002008DF80000012701948DF836704F
:1013000042F63820049405940694ADF834000C9409
:10131000E87B8DF83000287C8DF831009DF8320094
:10132000142120F00600801C20F019008DF83200F6
:1013300007A8FDF7DEFF0DA807900CA8ADF82470F4
:101340000890ADF82640ADF82870A8680B90F0889A
:1013500006F1100307AA6946A2DF0FB0F0BD000036
:101360000149085C70470000107E02000649095CD4
:101370004FF0A040D0F81005C84010F0010000D098
:10138000012080F001007047107E020007490B5CCD
:101390004FF0A041D1F804250120984020EA020333
:1013A000C1F808351040C1F80C0570470C7E0200EA
:1013B0000249085C012102F0FFBF00000C7E020020
:1013C0000249085C002102F0F7BF00000C7E020019
:1013D0000649095C4FF0A040D0F80405C84010F061
:1013E000010000D0012080F0010070470C7E020057
:1013F0007CB50024084E25460122305D009500236F
:101400001146019502F064FF641C042CF4D3BDE87E
:101410007C4000F003B800000C7E020010B50024F0
:101420002046FFF7C5FF641C042CF9D310BD10B58E
:1014300000242046FFF7C4FF641C042CF9D310BD20
:1014400010B50246064B4FF0FF3000215C5C944221
:1014500001D1084610BD491C0429F7D310BD000076
:10146000107E020070B50C4E0C004FF0000530608D
:101470000BD0012000F0A2F808B1022004E0002007
:1014800000F09CF800B10B202070706810B9FEF7D6
:10149000E7FD0546284670BD9425002010B51A4C7E
:1014A0000188606810290ED011292BD1401E606080
:1014B00028D1FEF7D5FD002824D02168002921D0AD
:1014C000BDE810400847D0B900210122084600F0CD
:1014D00099F808B107280FD107220221012000F056
:1014E00091F808B1072807D104220221002000F05A
:1014F00089F820B1072802D0216801B188476068C7
:10150000401C606010BD00009425002010B5002034
:1015100000F0CCF908B1062806D1012000F0C6F988
:1015200008B1062800D1002010BD00002DE9F047C9
:101530000D468146FFF784FF0446042836D2DFF8C3
:1015400074801B481C4EA8F10C0725B3012D0ED04A
:10155000022D2BD104EB440030444578002D25D0DA
:10156000B968002922D02846BDE8F047084704EBB7
:101570004401755C0E44717849B10E4A4FF4004144
:10158000093A8068FEF79CFE08B987F80390B178A5
:1015900008F80410E2E78068FEF7D6FE04EB440189
:1015A000314418F804008D78A842D7D0BDE8F08700
:1015B000147E02009025002034290020FFF7D6BEBB
:1015C00001460F4810B54088042907D007290ED0DE
:1015D0000A2914D1BDE8104005F0F2BB132176DFD3
:1015E0000BE000280BD0BDE81040FEF721BEA0F5AF
:1015F0007F41FF3903D1FFF7A5F90828F1D110BDCC
:101600005825002070B50023042810D20D4D00EBA2
:101610004004012A02D101290CD00022094E00EB1E
:101620004000304461B1012906D0022906D00723C9
:10163000184670BD0E30C2B22A55F9E74270F7E77E
:101640008270F5E734290020044A0146002012790F
:10165000D20702D0084600F04DB87047842500201C
:1016600070B506461E480024C0E90161B00720D5C8
:101670000025012211462846FFF7C4FF6D1C0446D1
:10168000042D02D2002CF4D013E094B940F266622B
:1016900004211448FEF75EFD04000AD1FEF748FD60
:1016A000040006D10F48104A0021001FFEF7CCFDB0
:1016B0000446F00701D0FFF79BFE74B909480B4AB6
:1016C00000210C38FEF7C0FD040006D10548084A89
:1016D00001210838FEF7B8FD0446204670BD000021
:1016E00084250020207E02004D190200E53302000F
:1016F0002B0102002DE9F05F6A4C05460026607858
:10170000B34618B184F801B001F054FE664F4FF4AF
:101710007A694FF4C87A4FF00108182D62D2DFE8D9
:1017200005F0AC0C0C31404D62676B746B74BE7D80
:101730007D7D7D7DACAFB2B5BEBE0020FFF748FE1B
:1017400000284FF0000008D0FFF732FE022D02D132
:101750004FF4E16008E0484606E0FFF731FE022D55
:1017600001D1C82000E05046410CC0034FF4FA728A
:10177000801841F10001257052000023FDF75CFD47
:1017800001462AE00020FFF723FE00284FF000006A
:1017900004D0FFF70DFE4FF44870E5E7FFF710FEA9
:1017A000DFE70020FFF714FE00284FF0000002D012
:1017B000FFF7FEFDCFE7FFF703FED4E70020FFF7BA
:1017C00007FE00284FF0000002D0FFF7F1FD01E016
:1017D000FFF7F6FD257041F69A1100223868FEF7F2
:1017E0006FFD064646E00020FFF7D0FD257008E0BB
:1017F000002051E025703DE084F801800120FFF7D2
:10180000C5FD002240F6CD41E8E784F801800120C3
:10181000FFF7BCFD00224FF48041DFE77868FEF758
:1018200093FD0646D5F1110000D02EB10220FFF73E
:10183000BFFD84F802B01DE0012816D980B2C8218E
:101840004843C117C90341EA5041C0034FF4FA723B
:10185000801841F1000152000023FDF7EDFC014624
:1018600000227868FEF72CFD06460220FFF7A8FD4F
:1018700084F802803046BDE8F09F01F09BFDB9E797
:1018800001F098FDB4E701F095FD04E001F092FD50
:101890000020FFF795FD0120FFF792FDAAE7FFF773
:1018A000C6FDA7E784250020147E020010B5FFF7CF
:1018B00057FD032102F05EFD002010BD002901DA72
:1018C0000020704702681144016001207047000049
:1018D000F8B5461C00208DF800000D46012468462E
:1018E000FEF742FD114A10682860D2E900109568A1
:1018F000081A2B1A701C5B1C98420FD963B10C4854
:101900000C4B294000681B6802EB810163F39F20A8
:10191000C8601068401C1060002401E08819106045
:101920009DF80000FEF744FD2046F8BD0C34002071
:101930001C7F0200C4260020034803C8814201D155
:1019400001207047002070470C34002000780221ED
:10195000FFF7ECBD05494FF0FF32082841F8202081
:1019600002D3084480F8482070470000D82F002098
:10197000F0B54FF0FF3512B10023082601E008232F
:101980000C260C4C05E000BF54F823707F1C04D0DB
:101990005B1CB342F8D32846F0BD26185DB286F82A
:1019A000305044F82310002AF5D1E11881F848009E
:1019B000F1E70000D82F00200249084490F93000D8
:1019C00070470000D82F00202DE9F0438FB01E464D
:1019D000DDF8589015460F00804602D10020FEF732
:1019E00027FC15B90020FEF723FC1C216846FDF7F3
:1019F00080FC00249DF80000039440F002008DF864
:101A00000000012001948DF836000494059406949A
:101A1000ADF834800C9430788DF8300070788DF803
:101A200031009DF83200142120F00600801C20F0C7
:101A300019008DF8320007A8FDF75BFC0DA8079090
:101A40000CA808900748ADF82450ADF82640ADF832
:101A500028500B974B4607AA69460088A2DF0FB0B3
:101A6000BDE8F0832A26002038B10549814204D818
:101A70000449814201D901207047002070470000CD
:101A8000E0260020F0260020044A0168914201D09F
:101A9000083101E0014938390160704764320020A3
:101AA00070B504464FF6FF750A462846AC4208D189
:101AB0004FF480742146104604F0DCF8A04209D0AF
:101AC00070BDFF2CFCD82146104604F0C6F808B1C2
:101AD000204670BD284670BD70B5084C050009D081
:101AE00010342168002907D008682060496828461A
:101AF0008847F6E70834F4E770BD0000C42F0020E3
:101B00002DE9F05F26484168F1B3DFF898B00E6820
:101B10008146DBF8004087688078E11B21F07F4533
:101B2000ED1CB0B9DFF880804FF48030C8F8440372
:101B3000C8F804031120FDF713FD1120FDF726FD61
:101B40004FF0010AC8F800A02F2002F027F989F809
:101B500002A0B54200D23546124BE8193C3320F0C2
:101B60007F401860DBF800105A46091B21F07F41C6
:101B7000001B20F07F40C91C81420FD910681860FB
:101B80002F2002F00BF900E004E0BDE8F05F112027
:101B9000FDF712BDBDE8F05F04F0D8BCBDE8F09FD2
:101BA0008826002004150140001001402DE9F04175
:101BB00017880646B81D14460D46984202D90C20D7
:101BC000BDE8F0813188072206290AD34FF4486C1A
:101BD0004FF6FF73614501D9994202D170880628FA
:101BE00001D21046ECE7604501D99842F9D19942FB
:101BF00003D0984201D08142F3D80520E8552088CF
:101C00001221401C80B2208029542088401C80B2C0
:101C100020804119308805F090FE2188084480B268
:101C200020804119708805F088FE218808442080B2
:101C30000020C5E7FEF7FCBAF8B5134801F09CFB9D
:101C4000114D0026114C0C3D30B16169B9B1012034
:101C50008DF80000684611E0287820B1616971B103
:101C60008DF80060F6E7687858B1A168084800224E
:101C70000068FEF725FB10B1A16901B188472E70FD
:101C8000F8BD6168F2E70000C8250020342A002072
:101C9000407E02007FB50C4610B1012004B070BD3B
:101CA0002079002638B141F61D5501281BD00228A5
:101CB00026D00F20F2E702960396E068019069466D
:101CC00001A804F02DFB50B102988188E1800088C2
:101CD0002081BDF80010029804F096FB00E00A2075
:101CE00002212171DAE70A4B6A460021A01D04F0A7
:101CF000D3FA38B1064908398E60CE600A28CDD1B2
:101D00002846CBE702488188019804F07DFBF5E77F
:101D1000A42600202DE9F04100260125144C22E0E4
:101D20006068226900EBC607387805FA00F11142B5
:101D300017D08A43226102F091F902463878E368AD
:101D400005FA00F1194002FA00F3994209D17978B5
:101D5000012901D0012100E0002151407A6802B13F
:101D60009047761CF6B220788642D9D3BDE8F08140
:101D7000742600200E4910B50A784C780023A24240
:101D800012D0521CD2B20A70022A00D10B70084A3B
:101D90000B780C3252F8232002608868104420F03F
:101DA0007F408860012010BD0360002010BD00004E
:101DB000882600203EB5094D38CD8DE83800ADF8B5
:101DC000041007498DF80620ADF8020000220978BA
:101DD000FFF746F8684600F08FF83EBDCC7E020063
:101DE0001026002010B503780022072B06D2DFE86A
:101DF00003F00504060C1C252B000A7010BD0122FF
:101E00000A7002898A81828814E002220A7002899B
:101E10008A818288CA81C2688A60007C062802D0D2
:101E20000020087410BD0120FBE703220A70C2885D
:101E30008A810289CA81C068886010BD04230B7042
:101E4000C0888881CA8110BD0520087010BD0000BF
:101E500070B5064D0646002455F8241009B13046E9
:101E60008847641C082CF7D370BD00009431002013
:101E70000EB5002911D011290FD000220092029234
:101E8000ADF8020001910D2908D0862908D009205B
:101E90008DF80000684600F03DF80EBD0B20F7E716
:101EA0000A20F5E70149096808470000D825002005
:101EB00070B5054D06460024304655F82410884775
:101EC000641C022CF8D370BD5C7E02002DE9F04149
:101ED00007460024064E074D05E000BF56F82410C3
:101EE00038468847641CE8788442F7DBBDE8F08117
:101EF000782F00200026002070B5054D06460024EE
:101F0000304655F824108847641C022CF8D370BD65
:101F1000947E02000149096808470000D87E02004B
:101F2000704700007FB50446406858B10020039018
:101F300020780026384D06285DD2DFE800F05C05E9
:101F4000052641690120F2E7A08900F0B1F918B92E
:101F5000E08904F073FA80B3A089A0F54040ADF8A1
:101F60000200A07B8DF8040020780128606806D06C
:101F700048B104208DF80000606803901AE0002842
:101F8000F8D00320F6E70120F4E7A08900F090F9EB
:101F900018B9E08904F052FA78B1A089A0F5404060
:101FA000ADF80200A07B8DF80400606830B1052018
:101FB0008DF80000A06802901AE01CE00220F7E70C
:101FC000A08900F075F9B0B1E089A0B9A089FF211E
:101FD000A0F5404080B2ADF802008DF804106168B1
:101FE00081B107208DF800006E70AE7003F02AFBFF
:101FF000684603F0FFF96878002802D06E7003F09D
:1020000021FB7FBD06218DF8001003F0A9FBEBE753
:1020100008208DF80000EBE7EC25002000B5114901
:1020200087B00978890702D4022007B000BDA0F567
:102030007F41FF3911D005218DF8001001218DF865
:102040000410ADF8060000221146684602F03AFE80
:1020500028B104F003F90020E7E70420E5E70820B1
:10206000E3E700009C26002000B50E4887B000780A
:10207000800702D4022007B000BD06208DF80000C2
:1020800000221146684602F01DFE40B10648017864
:1020900009B10121017304F0E1F80020EBE7082009
:1020A000E9E700009C2600209432002010B58CB097
:1020B00014216846FDF71DF91D480078810703D5F6
:1020C0006846FFF7C5FE30E0C0072ED1012000F0C2
:1020D00013F900F083F901248DF8144002F08EFE0C
:1020E0000C281BD2DFE800F0061006101A18091899
:1020F0001A1216120B200CB010BD022000F0FCF8D2
:10210000012000F0DFF8DBE7002000E003208DF87D
:10211000180003E00220FAE78DF81840002211466B
:1021200005A802F0CFFD04F099F80020E3E70000D5
:102130009C26002038B5040011D0694604F0F0F860
:1021400088B10A48BDF8001000EB0110818941B147
:10215000A27A32B1491E81810020A07238BD0520CB
:1021600038BD062038BD0A2038BD0000743200207A
:102170001FB501A9684604F08FF804B010BD07B57B
:1021800013460A466946002004F086F80EBD07B5DE
:1021900013460A460021684604F07EF80EBD20B1C1
:1021A00019B10068086000207047052070470000E2
:1021B00038B50D46040015D0A5B1694604F0B0F855
:1021C00090B10A49BDF80020606801EB02129189C4
:1021D000491C9181286060680C3068600120A07201
:1021E000002038BD052038BD0A2038BD74320020DB
:1021F00018B10323002205F0C1BC0520704702235B
:10220000002205F0BBBC12B1022305F0B7BC0520CB
:1022100070470000064A5178082906D0054B43F85C
:102220002100491C5170002070470C2070470000AD
:102230009C2600209431002038B504460A480D46FB
:102240000078800701D4022038BD54B16946284681
:1022500005F0A8FD0028F7D1BDF8001021806580A9
:1022600038BD052038BD00009C26002010B504466E
:102270000D480078800701D4022010BD84B1218868
:1022800002290FD8094800EB011042896088121A10
:10229000032A07D405F07CFD00202080608010BD5B
:1022A000052010BD042010BD9C26002074320020A3
:1022B00043F6FE71A0F54040884201D801207047E6
:1022C0000020704702490A7882430A707047000074
:1022D0009C26002010B504460078182802D1FEF78D
:1022E00085FD207010BD10B504460078182802D175
:1022F000FEF77CFD207010BD02490A7802430A7087
:10230000704700009C26002070B513460022064648
:102310001546862905D0112901D019B170BD0125B6
:1023200000E001220D4C73B16179FEF799FD2A4658
:1023300021793046FEF794FD002261783046FEF7A1
:102340008FFD002203E06178FEF78AFD2A4621789E
:102350003046BDE87040FEF783BD00001426002023
:10236000F8B506461A481F46154600780C46C007C1
:1023700008D03046FFF778FB30B13CB1200507D0DC
:102380000620F8BD0120F8BD0220F8BD0320F8BDED
:102390003068A04204D8716804EB0530884201D946
:1023A0000520F8BD7DB1684603F0A6FE68B100982F
:1023B0000221C0E900670172210B8181058203F0CF
:1023C0005DFF0020F8BD0420F8BD0720F8BD000027
:1023D000B4260020084603F0ABBE00002DE9F0470C
:1023E0002748284C4FF01021001B0209496910466C
:1023F0004B1C03D14FF0805149690903DFF888A0D5
:102400009AF80070FB0702D00020BDE8F087002397
:10241000A14607E009EB0314256815B1646804B10F
:10242000401E5B1C9342F5D3002422E0002504F0FB
:10243000FF0C2B4613E000BF09EB0316D6F8008013
:10244000B8F1000F04D0D6F80480B8F1000F05D120
:10245000767BAE4202D9354603F0FF0C5B1C9342FB
:10246000EAD309EB0C13641C59601D7BA1EB053109
:1024700019608442DAD347F001018AF80010C3E7FB
:10248000F0260020E0260020B426002020B10349D9
:10249000496E01600020704703207047A43200207D
:1024A0002DE9F84307461D48DDF820801E460078D8
:1024B00015460C46C0070CD03846FFF7D5FA50B188
:1024C0005DB154B145EA0400800708D00620BDE89C
:1024D000F8830120FBE70220F9E70320F7E73868DB
:1024E000A04204D8786804EB8601884201D2052016
:1024F000EDE77EB1684603F0FFFD68B10098012169
:10250000C0E900780172C0E90354868203F0B6FE88
:102510000020DCE70420DAE70720D8E7B426002013
:1025200070B5174A17490446106E0B7800EB40004F
:1025300002EBC0009D0715D5022C02D0032C1BD145
:1025400002E002F095FB17E04A78521CD2B24A70C2
:10255000032A11D900224A70082104F0BBF903F0C4
:10256000B5FD09E0580707D523F004000870526E46
:1025700012B140F002000870BDE8704003F036BEB2
:10258000A4320020B42600200EB517A19DF8080043
:1025900020F00F00401C20F0F00010308DF80800F3
:1025A0000A2202A87CDF08B1FDF742FE40F241306A
:1025B00078DF08B1FDF73CFE0020009001904FF459
:1025C000A071ADF80400ADF800104FF4C8704FF4DE
:1025D0000271ADF80600ADF8021068467ADF0028F7
:1025E00001D0FDF725FE0EBD4E6F726469635F4832
:1025F000524D000010B508880C46A0F520617739CF
:1026000005D1A388628805A1032002F061F9214663
:10261000BDE810401048FEF7ADBD00004150503AF3
:10262000494E464F3A4741545420415454204D544A
:1026300055206F6E20636F6E6E656374696F6E20D8
:1026400030782578206368616E67656420746F2038
:1026500025642E0D0A0000006028002070B508B126
:10266000012070BD184C0025207B08B1257301E0C6
:1026700000F0A2F82078082824D2DFE800F0230434
:10268000080C1023141EBDE8704000F01FB8BDE810
:10269000704000F07FB8BDE8704000F061B8BDE860
:1026A000704000F037B808496088203901EB00100D
:1026B0004068BDE8704002F081BB6560BDE87040D5
:1026C00002F08ABB0F2070BD943200201049F0B494
:1026D0008A1C00200346A1F120050C18A67A3EB101
:1026E000A37205EB0014A68916B9A47B012C0AD0AD
:1026F000401C80B20228F0D30B704B804B60F0BCC2
:1027000041F61D5070471080F0BC00F043B8000047
:102710009432002010B50F4CA4F12001608801EB29
:102720000010818961B1052020700B48022100232F
:1027300081800168BDE8104001220848FFF710BE03
:102740004168002301220548FFF70AFE0421217099
:1027500010BD000094320020AC260020E0260020AE
:1027600038B50A49084803240B684268898803EB96
:102770008101538804700020DB1C00909BB2044848
:10278000FFF78EFE38BD000094320020AC260020FA
:10279000E0260020074910B54888091D03F00EFE09
:1027A00018B1BDE81040FFF7DBBFBDE81040FFF7F0
:1027B000B1BF000094320020F0B51D481D4901252D
:1027C000067802248B88A0F12002082E18D2DFE8B8
:1027D00006F00417171A212C2C160189491C0181B7
:1027E0000021418080F80C1002EB01131B7843B1EB
:1027F00000234418491C89B2A3720229F4D305703E
:10280000F0BD0123F5E742685288D21C1A448A8041
:102810000470F0BD46880D6802EB061256680E6023
:10282000556013818C80062100E007210170F0BD06
:1028300094320020AC260020F0B504460088384DC4
:10284000A5B050281ED0522802D0542828D103E029
:10285000A08800F0DDFF23E006208DF84400A0886A
:1028600000F084FCADF84600A188ADF8481000F0F7
:102870005DF9A0880022E978FEF7F2FA11A8FFF7C7
:1028800011FB0DE0207B01280AD1A07A012807D195
:102890002089A0F52451023902D1A08800F0F2FF6E
:1028A000A878FEF7B9FAC8B114A8FEF7E9F94422EE
:1028B00014A96846FCF7F6FC00246E460BE000BF46
:1028C00006EB4407A978B888FEF7B4FA10B1B888C7
:1028D00000F09EFF641C0098A042F1D86878FEF7D3
:1028E0009BFAC8B114A8FEF7CBF9442214A9684694
:1028F000FCF7D8FC00246E460BE000BF06EB440753
:102900006978B888FEF796FA10B1B88800F0BAFF77
:10291000641C0098A042F1D804F08EF825B0F0BDF8
:10292000D02500203EB504464088ADF8020020784E
:10293000A8B101281FD0022810D1207900280DD07D
:10294000608800F053FBA0F57F41FF3906D00F49A6
:102950000122C978FEF784FA04F06EF83EBD00202B
:102960008DF800006846FFF79DFA608800F03EFB96
:1029700000F04EFF3EBD01208DF80000A088ADF8AC
:1029800004006846FFF78EFA3EBD0000D025002007
:1029900010B50446007801280FD1608800F038FF98
:1029A000608800F089F9002807D004496088012276
:1029B000C978BDE81040FEF753BA10BDD0250020FD
:1029C00010B5104C00202070FEF710FA6070FEF772
:1029D0000DFAA070FEF70AFAE070FEF707FA207110
:1029E000617818290BD0A178182908D0E178182926
:1029F00005D0182803D001202070002010BD03202E
:102A000010BD0000D02500202DE9F04192B000F06B
:102A1000A5F86846FEF734F900246D464FF6FF77B7
:102A2000DFF834800FE000BF05EB4406B08800F00B
:102A30009DFBB84205D1B088012298F80310FEF73B
:102A40000FFA641CA4B20098A042EDD803F0F4FF82
:102A500012B0BDE8F0810000D025002001780729E0
:102A600002D1408800F00EBF7047000010B5044648
:102A70000A4841782046FEF7DDF968B10848002190
:102A800001EB410200EB82025288A24201D1C8B29E
:102A900010BD491C1429F3D3FF2010BDE8250020E8
:102AA000082B002070B5094D094E002404EB4400AA
:102AB00005EB800071784088FEF7BCF920B1641CFA
:102AC000142CF3D3FF2070BDE0B270BD082B0020A2
:102AD000E82500202DE9F041124E07460125BD40B2
:102AE0003068FDF731FC00280DD10F4C20692842D9
:102AF00007D1384601F0B2FA0028E06805D0284333
:102B000004E0A8432061BDE8F081A843E0602069AB
:102B100028432061A1683068BDE8F0410022FDF73C
:102B2000CFBB0000E07E0200742600201CB5054AE1
:102B3000D2E90212CDE900120022694602F027FB19
:102B40001CBD0000487E020003484FF6FF718180E3
:102B50000121017000207047DC25002010B54FF6E0
:102B6000FF7002F053FA03498880BDE8104003F07B
:102B70008FBF0000DC2500202DE9FC41804600F0DD
:102B8000F5FA002403250127A0F57F412646FF39E9
:102B900008D06A46082102F0D5FA18B90198841DB8
:102BA0008688056832462B4621464046A9DF042820
:102BB00004D0082804D00B2808D002E0112000E03F
:102BC0000020002F00D10B20BDE8FC810027A807C2
:102BD00001D50125E6E73443F5D000242646032538
:102BE000E0E72DE9FC41804600F0C0FA0746A0F579
:102BF0007F40FF380ED001252A466D1C0026ADB25D
:102C00006B460821384602F0C7FA040006D0072CAC
:102C100024D024E043F20200BDE8FC8101990323A3
:102C20000A1D0B604046891DAADF040004D00C2C4D
:102C300008D0052C08D008E00821384602F044FBF3
:102C400004460CE0012600E000240821384602F08A
:102C500027FB00B10324002ECED100E00C24204637
:102C6000DAE700001FB504460078012815D1207965
:102C7000012812D1608802AA012102F063FA60B92A
:102C800002208DF800006088ADF80200094901209B
:102C90008DF8040009686846884706480838808827
:102CA000A0F57F41FF3903D0BDE81F4003F0F0BE1F
:102CB0001FBD0000E42500201CB500F057FA6A464D
:102CC000012102F03FFA08B100201CBD01980078F4
:102CD0001CBD00002DE9F041084C07464FF6FF7679
:102CE00043F20305324661883846A7DFA84203D184
:102CF0006088401C6080F5E7BDE8F081DC2500209D
:102D00008188A1F57F42FF3A03D0008808B10120F5
:102D1000704700207047000010B51149114803F0BA
:102D200062FE104C81B2103C6068401C60600C4830
:102D30007438FEF799F948B1082807D0132805D050
:102D400043F20141884201D0FDF772FA6068032125
:102D5000B0FBF1F201FB120000B10120207010BDA8
:102D6000D42800206825002070B5B6B000240546A0
:102D70002E949DF8B8000E4620F00F00401C20F065
:102D8000F00010308DF8B800087B8DF8B9009DF880
:102D9000BA001C2120F00600801C8DF8BA0068469D
:102DA000FCF7A7FA9DF80000039440F010008DF89E
:102DB00000002EA8CDE9044001208DF8D600019432
:102DC00042F637200694ADF8D4003494707B8DF829
:102DD000D000B07B8DF8D1009DF8D200142120F0F6
:102DE0000600801C20F0180040F001008DF8D20091
:102DF0002FA8FCF77EFA35A82F9034A8309007AAA8
:102E00000021284600F012F8ADF8C4009B20ADF870
:102E1000C80007A8ADF8C6403390E88805F108035C
:102E20002FAA6946A2DF36B070BD00002DE9F0413F
:102E3000044640799046002500B1042594F822000C
:102E400008B145F00205CAB2FF2908D9090A88F875
:102E5000012045F0010588F80210032602E088F8F9
:102E600001200226B4F84C0008B145F010050027F7
:102E70001BE000BF94F84E10B21C91420BD2B4F884
:102E80004C0004EB4701C01B420004F12400243134
:102E9000FCF708FA0DE004EB470008EB0601808C14
:102EA0000870000A4870D6B27F1CB4F84C00B842D3
:102EB000E0DC34F84C0FC01B208088F8005030460E
:102EC000BDE8F0813EB5027802230C46B3EB520F09
:102ED00017D1B0F80110ADF80010C1788DF80210CC
:102EE0008188ADF8041080798DF8060002AA01A946
:102EF0002046FDF7F1F8032202A96846FCF70BFA19
:102F000008B100203EBD01203EBD000010B50C46BA
:102F1000FFF7ACFDFF280CD0074900EB400001EBA8
:102F20008000416821600189A180807AA071002021
:102F300010BD052010BD0000082B002070B50188D1
:102F400090B010294FD1011D34226846FCF7AAF930
:102F50009DF804004FF6FF76032134466D46B1EB31
:102F6000500F2AD002F0AEFA9DF8040040080ED0AF
:102F700001280CD0022820D118E00F99281D11310A
:102F8000FCF76EFF18B100BFBDF8344015E00EAA83
:102F90000DA9072002F06EFA0028EED10DE00F997E
:102FA000281D491CFFF78EFF0028EDD10EAA0DA9A0
:102FB000072002F05FFA0028F1D1BDF80000291DBA
:102FC00000F0E8FDB4420ED0BDF80000214600F04C
:102FD0007EF8BDF80000ADF8360001208DF8340011
:102FE0000DA8FEF765FF10B070BD0000094A002172
:102FF00001EB410332F82330834205D101EB41005C
:1030000002EB800040887047491C1429F0D34FF62A
:10301000FF707047082B002010B50D4C18200D4A8A
:10302000607000204FF6FF7100EB400302EB83035A
:10303000401C59801428F7D3FDF7D8FE607018287B
:1030400003D001202070002010BD032010BD00001F
:10305000E8250020082B002070B504460D46401CD2
:1030600000F098F900280ED01022691C601CFCF7B3
:1030700052F948B15FF0000605F1110104F11100A9
:10308000FCF7EEFE304370BD0126F5E7018811B96B
:10309000421892780AB101207047491C0829F7D3D9
:1030A0000020704710B50C460346FFF7EFFF0028DD
:1030B0000AD018882188884205D10822A11C981CB2
:1030C000FCF729F908B1002010BD012010BD02F065
:1030D0009BBB10B50446007888B0002828D1207921
:1030E000072825D1608801AA072102F02BF80028C3
:1030F0001ED102F0E7F91DE06088BDF8001088429B
:1031000018D004990298FFF7A7FF98B16088FFF7DD
:103110006DFFADF8160000208DF814006088ADF842
:103120001800BDF80000ADF81A0005A8FEF7C0FEB3
:1031300008B010BD03AA6946072002F09BF90028D9
:10314000DAD1F5E770B50446FFF750FF0546204693
:1031500001F0FBFF4FF6FF7104468D4203D014B916
:10316000284602F051FB204670BD000010B5FFF765
:103170007DFCFF2805D0044900EB400031F8200019
:1031800010BD4FF6FF7010BD082B00203EB5044661
:1031900002F098F90EE0019920464631FFF782FFD0
:1031A00028B9019920462A31FFF77CFF10B1BDF8FC
:1031B00008003EBD6A4602A9072002F05BF900281C
:1031C000E9D14FF6FF703EBD2DE9F0410F4628B121
:1031D0000120FFF777F80120BDE8F081397961B16E
:1031E0000026264D01290DD0254C4FF0020802295A
:1031F000206822D003293CD128E001F0EDFD012117
:10320000397134E05FF0000005EB00110978022904
:103210000CD0401C80B20228F6D30220FFF76CF8D5
:103220000120FFF74FF841F61D50D5E705EB0014DC
:10323000606801F0C3FD267019E0014600230122F9
:103240001048FFF78DF8A4F804800FE001F0B6FDF8
:103250000A4922682031498805EB01114B68236037
:103260004A60A2880A81A4F804800E703E7100288A
:10327000B2D00120FFF726F80E20ADE7743200200F
:10328000AC260020E0260020F8B51C4C2078002851
:1032900032D02069002658B10025607800282BD153
:1032A000684648DF052805D030B1FCF7C1FF0AE0C9
:1032B0000125F2E7012606E0009800F0F1FDA16883
:1032C00009B1009888479DB96078002814D16088BA
:1032D000ADF800006946E06861DF052803D020B141
:1032E000FCF7A6FF04E0012502E0D4E903018847CA
:1032F000002ED2D0002DE6D0F8BD0000C826002058
:1033000070B50E460446007918494FF4A27501EBDA
:103310004010017F2068A1B14FF4887101F07AFB61
:103320004FF49071206801F075FB4FF492712068A2
:1033300001F070FB2946206801F06CFB0C49206805
:1033400009E04FF48E7101F054FB2946206801F02A
:1033500050FB08492068C0F80413206800F0CCFD39
:103360003146BDE8704000F0ABBD000030300020B9
:103370001003020080000200054940880A8890423C
:1033800004D34988884201D8012070470020704743
:10339000C02500200021425C0AB101207047491C71
:1033A0001029F8D300207047800701D00020704713
:1033B000012070470A4810B5807860B1002401E010
:1033C000022C06D02046FDF7F3FF641C042CF7D333
:1033D00010BD0324F6E7BDE81040FEF71FB800005B
:1033E0008425002003480179C90702D00078FEF740
:1033F00081B97047842500209E21018017214180DA
:10340000002101714171A22181711B21C17170479D
:103410002DE9F047234D81461F46287A0E469046F7
:10342000084302D026B1002104E00520BDE8F08762
:103430001C491031484603F019FE0446014600229B
:103440004846FEF761FF1FB121464846FEF710FDD2
:10345000112C0FD005DC5CB1082C09D00D2C06D145
:1034600006E0862C12D0A4F54050023800D0032488
:103470002046DBE73246E9784846FDF7F1FC424654
:10348000A9784846FDF7ECFC0024F1E73246E978DC
:103490004846FDF7E5FC4246A9784846FDF7E0FCC2
:1034A000E6E70000142600202DE9FC4117460C0039
:1034B000064604D02078C00705D0012004E0002192
:1034C0007EDFBDE8FC8102208DF804003046FFF766
:1034D0004DFE0546A0F57F40FF3808D001A80090BA
:1034E0002B463A462146304600F021F806E0207887
:1034F0002146C007304603D000F07DF804460BE0BB
:103500007EDF04004FF00000009007D0002201236E
:103510002946304603F0A4F914B106E00122F6E78B
:103520009DF80410304603F0C5F92046C9E72DE99F
:10353000F04F85B090468946834600259A462E4630
:1035400001AA072118460E9F01F0FCFD040008D1D6
:10355000029D95F84400183510F0010601D0029D37
:10356000343558EA04004FF000080FD175B126B980
:1035700005F11200FFF78AFD40B12A4605F112015C
:10358000584685DF044687F8008021E00CB1052C01
:103590001ED199F80000C0070DD003AB012207210E
:1035A000504601F0F9FD04000AD10721504601F010
:1035B000EDFE040004D1494658467EDF040007D0E2
:1035C0000721504601F06CFE10B1052800D00324FD
:1035D000CDF80080387808B1012300E0002344B121
:1035E00000225146584603F03BF905B02046BDE89D
:1035F000F08F0122F5E7FEB50F46064601F0A0FD6B
:103600000546A0F57F40FF381ED001AB01220721FF
:10361000284601F0C1FD04000AD10721284601F027
:10362000B5FE040004D1394630467EDF040007D0E1
:103630000721284601F034FE10B1052800D00324EC
:10364000012000905CB102E00324002000900022E1
:1036500001232946304603F003F92046FEBD01222E
:10366000F6E700002DE9F041134D0F46164680465F
:103670002978FDF7DFFB00281BD04046FFF776FDD9
:103680000446A0F57F40FF3813D069784046FDF727
:10369000D1FB38B133463A4621464046BDE8F041B9
:1036A00001F028BC324639464046BDE8F041FEF7FD
:1036B00081BBBDE8F0810000102600202DE9F04319
:1036C00091B08146FDF7A8FB002820D06846FDF7A1
:1036D000D7FA00246E4617E006EB44054946A88851
:1036E000FDF7A8FB78B10B4FA888B978FDF7A2FBCE
:1036F0008046A888F978FDF79DFB0146A88801233C
:103700004246FFF785FE641C0098A042E4D811B041
:10371000BDE8F083142600202DE9F047394E00273C
:1037200080463D46DFF8E090D6F804A057E003D08D
:103730000446D0F81C8035E099F8002002EB4201E5
:10374000521CD2B289F8002009EBC10199F802306D
:10375000091D9A4201D189F8005048680A78044648
:10376000012A12D0022A02D0032A3BD108E003F03A
:10377000D7FE00B10127257434E00574C06900E06C
:1037800070680028F9D170602CE0207C50BB8868FC
:103790006060C868A0600869E0604869A061F0786E
:1037A00000B165606268B168184B501A20F07F4024
:1037B000984202D2A168084406E0881AA16820F065
:1037C0007F40814202D9081A206000E025606560D0
:1037D0000120A56020742046E56103F083FEB8F166
:1037E0000000A4D199F8001099F801008142A3D1FA
:1037F00017B97168514502D00120BDE8F08700205B
:10380000FBE700008826002070300020FFFF7F00CB
:10381000FEB504460026A0F57F40FF382FD0204695
:10382000FFF7AAF9050013D00B2D15D0112D11D0DB
:10383000A5F5405002381CD009208DF80000204624
:10384000FFF794FCADF80200ADF8044002950DE0DE
:10385000022002E001260CE003208DF80000204643
:10386000FFF784FCADF80200ADF804406846FEF7AF
:1038700019FB0348324681782046FDF7F1FAFEBD78
:10388000D0250020FEB504460026FFF7AAF905461C
:10389000112818D003DCA5B10C2D06D115E0862D1A
:1038A00027D0A5F5405002381CD009208DF8000023
:1038B0002046FFF75BFCADF80200ADF8044002952E
:1038C0000DE0012002E001260CE007208DF8000049
:1038D000ADF804402046FFF749FCADF80200684609
:1038E000FEF7E0FA0448324641782046FDF7B8FA80
:1038F000FEBD0820EAE70000D0250020F8B5054607
:1039000000780C46002620420FD100208DF80000E0
:103910006846FCF729FD2878204202D12043287010
:1039200001269DF80000FCF743FD3046F8BD00007D
:1039300098B0002001F046F808B1FCF779FC03F0DC
:103940007DFE41490320FDF78BFE08B1FCF770FCBA
:1039500069460020FDF786FD08B1FCF769FC9DF87B
:10396000000002286ED00025FDF744FCFEF70CFE97
:103970003649374800F05AF908B1FCF759FC3C21A8
:1039800001A8FBF7B6FC02208DF8040001248DF895
:10399000064006208DF807002E4803260690ADF855
:1039A0001460202110A8FBF7A4FC8DF843404FF4CD
:1039B00096701490B42000241590274B10AA21462D
:1039C000009401A8FCF7E6FE08B1FCF731FC0120E9
:1039D000FCF7DAFE03F00CF902F0AEFF1C2168469A
:1039E000FBF787FC4FF42030CDE900404FF4702006
:1039F000029017488DF80C6050388089ADF80E00A1
:103A000016480590164806908DF810406846FDF758
:103A1000C9F808B1FCF70CFC01F004FF11A1032068
:103A200000F004FFFCF7DEFC2846FCF735FB00BF86
:103A300000F05AFE0028FBD13EDF0028F8D0FCF74A
:103A4000F7FBF5E701258FE7C1150200F525020018
:103A5000B028002078250020214A0200694B02008E
:103A6000351C02004150503A494E464F3A48656174
:103A7000727420526174652053656E736F72206595
:103A800078616D706C6520737461727465642E0D5D
:103A90000A00000070B5144682880E46054620884C
:103AA000111D0144921C994201D8FE2A01D90C2013
:103AB00070BD521C32542088FF21401C80B22080EF
:103AC00031542088401C80B220808119288803F05E
:103AD00034FF2188084480B22080AA8842B1A968B6
:103AE00041B13044FBF7DEFB2088A98808442080E0
:103AF000002070BD072070BDF8B50E460178144651
:103B00000546012901D1687830B12088821C9A428B
:103B10002DD8012902D006E00720F8BD69780144BC
:103B2000891C994223D8181A801E87B2ADF80070FC
:103B30002188B01C084469467DDF0028EDD1287833
:103B4000022805D1BDF80010B94201D809210AE0C8
:103B50000821012805D16878B84202D8ADF80000E4
:103B600001E0ADF80070BDF80000FE2801D90C207E
:103B7000F8BD2288401CB0542088401C80B22080B0
:103B800031542088401C2080BDF80010084420805B
:103B90000020F8BD70B505460C004FF0FF0020D0A6
:103BA0004FF6FF76B5421CD00E48012241782846D8
:103BB000FDF756F92846FEF759FFFF2803D1FEF717
:103BC00071FFFF280DD0084B00EB400203EB820190
:103BD0004D8023F8226022684A60A2880A81A27977
:103BE0008A7270BDE8250020082B002070B54FF6C2
:103BF000FF750E46A84201D1002000E0401C84B2AF
:103C000008E02146304602F050F808B1204670BD69
:103C1000641CA4B2FF2CF4D9284670BDC20800F081
:103C200007030120895C98400840704710B560B1D7
:103C300001619E2120F8021B20F8021BA22100F83E
:103C4000021BFFF7D9FB002010BD0E2010BD0000A5
:103C5000F0B58D8893B00446002D38D10888444FC4
:103C60000026222839D006DC102809D011280BD0D4
:103C7000212867D14DE03A280AD0552862D128E0A2
:103C8000204600F07FFF5DE0A01DFFF7B5FB59E087
:103C90002246488934F8061F814200D808466080D1
:103CA000172800D217206080106970B1607960B168
:103CB000D7E90001CDE90301ADF80E506088ADF8F9
:103CC0001000136903A9104698476671267113B056
:103CD000F0BD204600F098FF34E0342205A8091D0D
:103CE000FBF7E0FABDF81400BDF8182004EBC001A2
:103CF0004A73226932B3D7E90423CDE90323ADF82F
:103D00000E00487B8DF810002269204603A99047D9
:103D100018E00296039631F8040F04EBC00208790C
:103D2000127B824200D21046ADF80800ADF80A00BE
:103D30000888002202A98FDF020003D00D4901206C
:103D400000F09AFDA07A0028C1D0E18828469EDFC5
:103D5000020008D0112ABAD013B00749BDE8F040DC
:103D6000012000F089BDA6720120E072AFE70000DB
:103D7000647E0200C88002001480020000F18040CE
:103D80000068002800D00120704708B500F180408D
:103D9000002101600068009008BD000000283ED0AE
:103DA0001F49204A096800BF00BF00BF00BF00BF15
:103DB00000BF00BF00BF91422FD000BF00BF00BFB7
:103DC00000BF00BF00BF00BF00BF00BF00BF00BFFB
:103DD00000BF00BF00BF00BF00BF00BF00BF00BFEB
:103DE00000BF00BF00BF00BF00BF00BF00BF00BFDB
:103DF00000BF00BF00BF00BF00BF00BF00BF00BFCB
:103E000000BF00BF00BF00BF00BF00BF00BF00BFBA
:103E100000BF00BF00BF00BF00BF401EC3D170473E
:103E2000DC2600200024F40070B50F4C002520781B
:103E300008B1852516E00021A16061602161E16083
:103E40004FF0E020D0F80001012610F0010F03D15F
:103E50000721002000F034F803F0CAFA08B903483B
:103E600006602670284670BDC42F0020180500404B
:103E700038B500208DF800006846FCF775FA074C4D
:103E8000207808B9FFF7D0FFE068401CE06001200F
:103E9000A0709DF80000FCF78BFA38BDC42F0020FD
:103EA000002801D1FDF718BE704700F01F02012164
:103EB00091404009800000F1E020C0F88011704777
:103EC0004907090E002806DA00F00F0202F1E0228D
:103ED00082F8141D03E000F1E02282F8001400F0E3
:103EE0001F02012191404009800000F1E020C0F84C
:103EF0008012C0F800117047000B40B270470000FC
:103F00002DE9F0418846054601F0CAFC234E002801
:103F100028461AD0FDF750FD304490F8480080093B
:103F2000032802D001280ED007E04FF0A040D0F8BF
:103F30001005E84010F0010F05D003212846BDE828
:103F4000F04100F028BA0221F8E701F0B5FC0028A2
:103F500022D02846FDF730FD04464FF4807000EB78
:103F600084000F4F81B207EB8400D0F8102542F097
:103F70000102C0F81025084600F03EFAB8F1000F23
:103F80000AD02846FDF718FD56F82000002803D077
:103F90000120A040C7F80403BDE8F081D82F00201D
:103FA000006000402DE9FC41DFF8A480044608EBE6
:103FB0000400002790F930001346C0170E46401C3D
:103FC00001D0082741E0F27819462046FDF7D0FCE1
:103FD0000546401C38D0B07850B14FF0A04000EBFF
:103FE0008400D0F8001721F00201C0F8001707E0A4
:103FF00000217378204600910A46019100F07AF979
:10400000F078C0B11348317800EB8500D0F8102566
:10401000114B1A40C0F810254FF4F8524FF44033BA
:1040200002EA042203EA01410A43D0F810150A43C8
:10403000C0F8102509E008EB0500327810F8481F99
:1040400041EA8211017000E004273846BDE8FC8196
:10405000D82F002000600040FFE0FCFF4FF0A0419F
:10406000D1F81015C14011F0010000D001207047B7
:1040700070B5144D95F8540008B1082070BD0020AB
:10408000411E2A18401CC0B282F830102028F8D3F4
:1040900000242046FDF75EFC641CE4B20C2CF8D32F
:1040A00007210620FFF70CFF4FF4BE7000F0A4F9C3
:1040B00005494FF00040C1F80403012085F8540081
:1040C000002070BDD82F002000600040034890F809
:1040D0005400002800D0012070470000D82F002095
:1040E0000121B1EB507F01D10120704700207047C2
:1040F0002DE9F04105460079164F904607EB401434
:104100000E46E07E10B10820BDE8F081707F207778
:104110002846FCF793F95FEA080060603169216086
:1041200003D0317F2846FFF7EBF8287907EB4010E2
:10413000007F0028286801D0082100E00421C0F891
:1041400000150020E0752076A0750121E176A076AB
:10415000DAE70000303000202DE9F047054600790D
:104160003F4E904606EB40140F46207F18B108469C
:10417000FFF7B6FF30B1284600F074F820B11120E7
:10418000BDE8F0871020FBE784F81680A7600027C1
:10419000A78228794FF0010806EB40143E46207FA5
:1041A0000028286825D04FF49079494600F032FC69
:1041B0004FF4AC7A5146286800F02CFC2868A17DA9
:1041C000A268C0F84425C0F848152868C0F80880DF
:1041D0006068F0B94946286800F017FC80465146EF
:1041E000286800F012FC58EA0001F3D058BBA7750C
:1041F0000FE04FF48E7A514600F0FBFB2868C0F8C0
:1042000008802146286803F06BFA61684FF48070DB
:1042100089B13046B4E75146286800F0E5FB10B993
:10422000A08A4845F7D1A08A484505D0214628688C
:1042300003F056FA00E08146A08AA17D8842EAD3C5
:10424000A08A484501D10F26D1E75146286800F0E1
:10425000CBFB0028F9D02868C0F80C80C7E7000025
:10426000303000200079044901EB4010807D0028A7
:1042700000D00120704700003030002070B50446A7
:1042800000791149002601EB401520682A7FC0F80B
:104290000065686888B1207901EB4010007F002834
:1042A000206801D0094901E008498C39C0F8081399
:1042B0002068FFF721FEFFF7F8FD204601F008FB1C
:1042C000EE766E6070BD00003030002010030200FA
:1042D00070B541EA4201DDE904564FF0A04441EADD
:1042E000830141EA052104EB800041EA0641C0F860
:1042F000001770BD70B541EA4201DDE904564FF088
:10430000A04441EA830141EA052104EB800041EA2F
:104310000641C0F8001770BD70B541EA4201DDE901
:1043200004564FF0A04441EA830141EA052104EB21
:10433000800041EA0641C0F8001770BD1CB500219D
:1043400000910B4601220191FFF7E6FF1CBD1CB551
:1043500000220B46009211460192FFF7DDFF1CBDC3
:104360001CB5002100910B46012201911146FFF777
:10437000D3FF1CBD4FF0A04202EB8000D0F8002715
:1043800022F44032C0F80027D0F8002742EA014169
:10439000C0F8001770474FF0A04202EB8000D0F841
:1043A000002722F44032C0F80027D0F8002742EA64
:1043B0000141C0F80017704701224FF0A04382402E
:1043C00011B1C3F808257047C3F80C2570470000E9
:1043D00018B5084B6C4601441B68009306E000BF0B
:1043E00054F82030D3F81035401C08C28142F7D869
:1043F00018BD0000DC7E0200034908B50844002116
:1044000001600068009008BD00600040024940580B
:10441000012800D00020704700600040004870472D
:104420009544020030B5184C054689B0207828B173
:104430006078854202D1002009B030BD20221349A6
:104440006846FAF72FFF00208DF814000620009030
:104450000820019005200390072002904FF0EB7098
:1044600006900948001DFFF709FF0DB1002200E08A
:10447000074A05486946001DFFF73AFE0028DBD1D0
:10448000012020706570D6E7B8260020FC7E02006F
:104490001D7702002DE9F04FC1B00D004FF0000173
:1044A00040914D984B991C46174601EB000B01D0EB
:1044B0000A2000E00020804602F0A2FA00287CD109
:1044C0006E46BCB9409840AA3118284603F0EEF871
:1044D000002872D03846FAF717FFC22800D9C22048
:1044E000054640982A4630443946FAF7DBFE4098A4
:1044F000284440904FF0200A409901EB08023132E5
:104500000DEB01050DEB0206002002E005F801AB02
:10451000401C4045FAD300275C4508D305F801ABA1
:1045200005F801AB05F801AB06F801AB2DE04B989F
:10453000844202D24A98005D02E0211A4C98405C05
:104540002B46814602460121880022FA00F000F045
:104550000F00092801D9373000E03030C1F1010CDB
:10456000491E03F80C00EFD29D1C05F801ABFAF7C9
:1045700095FE016811F8090010F03E0F01D0484681
:1045800000E02E2006F8010B641C7F1C102FC3D303
:104590000D2030700A20707085F800A040996846A0
:1045A00041444331409102F031FA30B102F028FA2F
:1045B00018B9002040905C459ED341B02046BDE82C
:1045C000F08F2DE9F043C7B000251C469046894680
:1045D0004E9F459502F014FA00287AD1459805AE11
:1045E000311845AA484603F061F8002835D0072F56
:1045F00027D2DFE807F004121B35424F5D0040462A
:10460000FAF782FE054645982918FF2919D8304443
:104610002A464146FAF746FE13E045982368C0F55E
:10462000807130444246FBF7A9F909E060680090C8
:1046300045982368C0F5807130444246FBF79EF9E7
:104640000546294645A8FDF739F9459978B3B1F5EE
:10465000807F3ED805A802F0D9F947B0BDE8F083C5
:10466000D4E90101CDE9000145982368C0F58071C6
:1046700030444246FBF782F9E2E7201D07C88DE887
:10468000070045982368C0F5807130444246FBF727
:1046900075F9D5E7201D0FC88DE80F0045982368F0
:1046A000C0F5807130444246FBF768F9C8E710E076
:1046B00004F1080001AD0FC885E80F0060680090A4
:1046C00045982368C0F5807130444246FBF756F99F
:1046D000B6E70020C1E7000000487047C34502006C
:1046E0000120FFF79FBE00002DE9F04F87B0FDF7D6
:1046F00023F918B1002007B0BDE8F08F454ED6E988
:10470000014704EA070006EB8000A146641CC56867
:104710000CE000BFC5F3891000EB9550044404EA97
:10472000070006EB8000A146C568641CA807F1D00D
:1047300005F003004FF0000B022805D0AA0A01A8DB
:10474000C5F38313002153E004EA070006EB800061
:1047500004F1010A0AEA0704C268381B80004FEA24
:104760009558001DC5F38913804521D929490C317D
:1047700038B106EB840400F0FF0CA8EB00000C3409
:1047800004E00C46002108F0FF0C0846C0B2CDE959
:104790000210CDE9004CD6F81444C5F3C2005946C6
:1047A000A047404511D108F103080AEB98042AE01C
:1047B000002106EB84000C300090CDE901810391CB
:1047C000C5F3C200D6F81444EAE760F38F1509EA8E
:1047D000070006EB8000C56016E000BF04EA070C86
:1047E00006EB8C0C491CDCF80CC040F804CB641CB4
:1047F0009942F3D3C5F3C2000093D6F8105401AB2D
:104800005946A84700B17460FDF796F880F00100A2
:1048100071E700000C340020034AFF23936000235B
:104820001360536000F0C6B80C3400202DE9F84343
:104830000F4F88460446002569462846BE68FDF7A6
:1048400047F8002812D00B480021406861F382002D
:10485000009964F3C50001EA060265F3891007EBCD
:10486000820268F39F20491CD0600091BDE8F88364
:104870000C3400201C7F02002DE9F843124D8846BD
:1048800004460127914669463846AE68FDF720F890
:10489000002817D00D480021806861F3820000993C
:1048A00064F3C50001EA060267F3891005EB820292
:1048B00068F39F20491CD0600091314005EB8101D5
:1048C000C1F80C90BDE8F8830C3400201C7F020076
:1048D0002DE9F84F164C8846064602279A4691461F
:1048E00069463846A568FCF7F3FF00281ED011483A
:1048F000C168002060F38201009866F3C50100EAF8
:10490000050267F3891104EB820268F39F21401CC2
:10491000D16000EA050204EB8202401CC2F80C9050
:104920000090284004EB8000C0F80CA0BDE8F88F90
:104930000C3400201C7F02002DE9F84F1B4C8846E8
:10494000064603279A469146DDF828B06946384660
:10495000A568FCF7BDFF002825D015480021006997
:1049600061F38200009966F3C50001EA050267F36E
:10497000891004EB820268F39F20491CD06001EA91
:10498000050204EB8202491CC2F80C9001EA050200
:1049900004EB8202491CC2F80CA00091294004EBF0
:1049A0008101C1F80CB0BDE8F88F00000C34002084
:1049B0001C7F0200024A02F5826203C270470000B7
:1049C0000C34002070B506460020FFF72BFD0400D4
:1049D00008D1FFF723FD0546FFF77EFE3246294644
:1049E000FFF71AFF204670BD4058002800D0012074
:1049F000704708B5002242504058009008BDD0F8DA
:104A00000403084000D0012070474058002800D01F
:104A10000120704708B5002242504058009008BD60
:104A200010B568B103280FD108A1FFF7FFFE0220DF
:104A3000FCF70AFE002807D0BDE81040FBF7F8BBE2
:104A4000BDE8104002F0BCB910BD00004150503A22
:104A5000494E464F3A4661737420616476657274BC
:104A60006973696E672E0D0A0000000030B50446B8
:104A7000008889B03B282BD00EDC2B4D01282BD091
:104A8000102817D0112821D1227A28A10320FFF75E
:104A9000F3FE4FF6FF7018E0512821D0562815D1AB
:104AA000A088132176DF002810D009B0BDE830407F
:104AB000FBF7BEBB26A10320FFF7B8FE0720FCF7DB
:104AC000C3FD08B1FBF7B4FBA088688009B030BD16
