:020000040000FA
:1000000080270020150200001D0200001F020000D2
:100010002102000023020000250200000000000071
:1000200000000000000000000000000027020000A7
:1000300029020000000000002B0200002D02000039
:100040002F0200002F020000050800002F02000010
:100050002F0200002F020000390300002F020000D1
:100060002F0200002F0200002F0200002F020000CC
:100070002F0200002F0200002F0200002F020000BC
:100080002F020000110500002F0200002F020000C7
:10009000350500002F0200002F0200002F02000093
:1000A0002F0200002F0200002F0200002F0200008C
:1000B0002F0200002F0200000000000000000000DE
:1000C0002F0200002F0200002F0200002F0200006C
:1000D0002F0200002F0200002F020000000000008D
:1000E0000000000000000000000000000000000010
:1000F0000000000000000000000000000000000000
:1001000000000000000000000000000000000000EF
:1001100000000000000000000000000000000000DF
:1001200000000000000000000000000000000000CF
:1001300000000000000000000000000000000000BF
:1001400000000000000000000000000000000000AF
:10015000000000000000000000000000000000009F
:10016000000000000000000000000000000000008F
:10017000000000000000000000000000000000007F
:10018000000000000000000000000000000000006F
:10019000000000000000000000000000000000005F
:1001A000000000000000000000000000000000004F
:1001B000000000000000000000000000000000003F
:1001C000000000000000000000000000000000002F
:1001D000000000000000000000000000000000001F
:1001E000000000000000000000000000000000000F
:1001F00000000000000000000000000000000000FF
:10020000DFF80CD000F086F800480047C91800005D
:10021000802700200648804706480047FEE7FEE7A3
:10022000FEE7FEE7FEE7FEE7FEE7FEE7FEE7FEE7A6
:1002300039050000010200002DE9F05F05460020AD
:1002400092469B4688460646814640241BE0284647
:1002500041464746224600F04DF853465A46C01ADA
:10026000914110D311461846224600F034F82D1A59
:1002700067EB01084F4622460120002100F02BF8D1
:1002800017EB00094E41201EA4F10104DFDC4846B3
:1002900031462A464346BDE8F09F000000487047BB
:1002A0002C2D000040EA01039B0703D009E008C998
:1002B000121F08C0042AFAD203E011F8013B00F82B
:1002C000013B521EF9D27047421C10F8011B002955
:1002D000FBD1801A7047202A04DB203A00FA02F191
:1002E000002070479140C2F1200320FA03F3194324
:1002F00090407047202A04DB203A21FA02F00021C6
:10030000704721FA02F3D040C2F120029140084325
:1003100019467047064C074D06E0E06840F00103BF
:1003200094E8070098471034AC42F6D3FFF76CFF0F
:100330003C2D00005C2D00002DE9F04700268CB01C
:10034000DFF86091B0464FF4807501243746069679
:10035000284601F027FE38B1D9F80403204203D023
:10036000284601F015FE26432D1D64007F1CADB20A
:10037000082FEDD34FF4BE74204601F013FE48B1B0
:10038000204601F005FE46F0004606AA01210020A5
:1003900001F0EAFD444D16F0FF0F15D001270024AF
:1003A00037420DD009EB8401D1F81005D1F81015B2
:1003B000C0F3042055F82420C1F3014102B1904755
:1003C0007F00641C082CEBD3002E67DA4FF0FF305F
:1003D000CDE9088000263446281910F8507F90F99E
:1003E000000027F0C008401C44D009A9404601F095
:1003F000EDFA58B34FEA9719404601F097F855F8CF
:1004000020701FB1B9F1030F03D00FE0B9F1030F52
:1004100030D108A84FEAD80208F00703815C4FF0FA
:10042000010C0CFA03FC41EA0C0181544FF0A0418D
:1004300001EB8800D0F8000706A9C0F3014A404646
:1004400001F0C4FA18B1BAF1020F03D012E0BAF108
:10045000030F0FD1B9F1030F08D1BAF1020F1BD06E
:100460000221404601F064FD761CF6B217B1494600
:100470004046B847641C042CAED3002E0ED06A460A
:100480000121002001F070FD06990098884205D0F6
:100490000690089809909DE70321E2E70CB0BDE8BB
:1004A000F087000000600040C000002000F01F0244
:1004B000012191404009800000F1E020C0F8801245
:1004C000704700F01F02012191404009800000F1B7
:1004D000E020C0F80011704700F01F020121914098
:1004E0004009800000F1E020C0F800127047490781
:1004F000090E002806DA00F00F0000F1E02080F875
:10050000141D704700F1E02080F8001470470000CF
:1005100007480021C0F84011C0F84411C0F8481144
:10052000C0F84C11C0F80011C0F8041102F0E0B995
:100530000010014002F02EB9F0B5A3480023021DBF
:1005400001780125101D4FF0805406290BD1167833
:10055000360708D10678C6F30316032E06D0042EFC
:1005600004D0052E02D0062907D00EE0B4F824638B
:10057000964FC6F304263E6002E01678360704D193
:100580000678C6F30316032E02D0062904D00FE026
:10059000904F8F4E7E670EE01678360708D10678AA
:1005A000C6F30316032E06D0042E04D0052E02D067
:1005B000062907D00EE0D4F84462874FC6F34236CE
:1005C0003E6002E01678360704D10678C6F30316BB
:1005D000032E02D0062906D011E0804E376827F09E
:1005E000807737600EE01678360708D10678C6F3B4
:1005F0000316032E06D0042E04D0052E02D00629A1
:100600000AD011E04FF08046C6F80C31C6F8103120
:10061000714E361F336002E01678360704D1067833
:10062000C6F30316032E02D0062905D00CE06A4F4C
:10063000032664373E600AE01678360704D1067850
:10064000C6F30316032E02D006290DD014E0644F22
:1006500005263E60624E78363560614E083633605E
:100660003F263F1D3E6002E01678360704D106782B
:10067000C6F30316052E02D0062957D068E0594963
:100680000968594A11605749091D0968121D11600E
:10069000544908310968121D116052490C3109682A
:1006A000121D11604F4910310968121D11604D492A
:1006B00014310968121D11604A49183109684A4A03
:1006C0002032116047491C310968121D11604549EB
:1006D00020310968121D1160424924310968121D38
:1006E0001160404928310968121D11603D492C31C3
:1006F0000968121D11603B49303109683A4A40329D
:100700001160384934310968121D1160354938319A
:100710000968121D116033493C310968121D1160CE
:10072000304940310968121D116002E01178090753
:100730000ED10078C0F30310032803D0042801D0A1
:10074000052805D1D4F85802284900F04F00086068
:1007500022487438016841F470010160BFF34F8F83
:10076000BFF36F8F4FF01021D1F80002002803DB98
:10077000D1F80402002822DA1D4A15601D480468D9
:10078000002CFCD01524C1F800420568002DFCD0D7
:10079000C1F8044201680029FCD0136001680029F7
:1007A000FCD0BFF34F8F0D48F0380168124A01F4B6
:1007B000E06111430160BFF34F8F00BFFDE71049B7
:1007C0000E480860F0BD0000E00F00F04035014029
:1007D0000DF0ADBA00C007403C050040FCED00E064
:1007E000105600400404001020C50040E40E0040F4
:1007F00004E5014000E401400400FA050090D00344
:10080000500000200448017F04480029024901D01B
:1008100002F077B902F0E6B818010020002000408D
:100820000FB41CB50A46521ECDE9000207A9054BBC
:100830006A46069800F018F8009A002111701CBC56
:100840005DF814FBCB0C000002E008C8121F08C1C1
:10085000002AFAD170477047002001E001C1121F41
:10086000002AFBD1704700002DE9FF4F8DB00F46E5
:100870000546002606E025280BD0DDE90F1290473B
:100880006D1C761C28780028F5D111B03046BDE8E3
:10089000F08F0024A246A1460122EC4900E0044367
:1008A00015F8013F203B02FA03F00842F7D12878FF
:1008B0002A2810D06FF02F022878A0F130010929E2
:1008C00014D80AEB8A0102EB410144F0020400EB68
:1008D000010A6D1CF0E701CF5FEA000A03D544F47A
:1008E0000054CAF1000A44F002046D1C28782E2836
:1008F00017D115F8010F44F004042A280ED06FF028
:100900002F022878A0F1300109290AD809EB8901C2
:1009100002EB410100EB01096D1CF2E757F8049B63
:100920006D1C28786C280FD006DC4C2817D068285E
:100930000DD06A2814D104E0742810D07A280FD181
:100940000DE044F400140AE044F4801401E044F49F
:1009500040146978814202D104F580146D1C6D1C2D
:100960002A786E2A1FD00CDC632A31D004DC002ADE
:100970008BD0582A11D1A3E0642A68D0692A0CD1FF
:1009800065E0732A2ED004DC6F2A73D0702A04D15C
:100990009BE0752A6FD0782A6ED01046DDE90F12E1
:1009A0009047761C50E1C4F30250022806D0032879
:1009B00009D0042801CF09D0066045E101CFF11725
:1009C000C0E9006140E101CF06803DE106703BE1F6
:1009D00017F8040B8DF8000000208DF80100EB469D
:1009E000012003E057F804BB4FF0FF3061074FF0E0
:1009F000000102D40DE008F10101884649450FDAF3
:100A00008045F8DB1BF808100029F4D108E008F154
:100A1000010188468142FADB1BF808100029F6D153
:100A2000DDE90F23AAEB08008146214600F036F9E4
:100A3000304400EB080604E0DDE90F121BF8010B5F
:100A40009047B8F10108F7D221464846F7E00A215D
:100A5000C4F302534FF0000B0891022B04D001CFD6
:100A6000C117032B09D00AE0FF1D27F00707F7E89D
:100A7000020108E032E01FE020E000B2C117042BC1
:100A800001D140B2C117031E71F1000307DA4FF024
:100A9000000CD0EB0C006CEB01012D2302E02305D0
:100AA00004D52B238DF82430012303E0E30701D084
:100AB0002023F7E7984658E00A2110E010210EE0C5
:100AC00010204FF0000B08900CE010214FF0000BAD
:100AD00044F004044FF00809089103E008214FF0A6
:100AE000000B0891C4F30253022B04D001CF002164
:100AF000032B06D006E0FF1D27F00707F7E80201E9
:100B000003E080B2042B00D1C0B24FF000082307ED
:100B10002BD5702A07D0DDF820C08CF0100C5CEAD1
:100B20000B0C05D00EE040238DF82430012308E0A3
:100B300050EA010306D030238DF824308DF82520AB
:100B400002239846DDF820C08CF0080C5CEA0B0C00
:100B50000BD150EA010301D1630706D530238DF88C
:100B600024304FF00108A9F10109582A04D038A215
:100B70000B9208AA0A920BE03AA2F9E75B46089AA0
:100B8000FFF75AFB0B9B9B5C0A9A521E0A9213704A
:100B900050EA0102F2D10A98ADEB000000F1200BFF
:100BA000600702D524F4803401E04FF00109D945F3
:100BB00002DDA9EB0B0000E0002000EB0B0141443B
:100BC0000890AAEB010AE00306D4DDE90F232146D1
:100BD000504600F063F806444FF0000908E009A908
:100BE00011F80900DDE90F12904709F10109761C9F
:100BF000C145F4DBE0030CD5DDE90F232146504667
:100C000000F04CF8064404E0DDE90F123020904774
:100C1000761C0899481E08900029F5DC08E00A981F
:100C20000A990078491C0A91DDE90F129047761C59
:100C3000BBF10001ABF1010BF1DC21465046DDE9CF
:100C40000F2300F019F806446D1C1BE6092801006B
:100C50003031323334353637383961626364656632
:100C600000000000303132333435363738394142F4
:100C700043444546000000002DE9F04104460025AC
:100C80001E461746880404D405E039462020B047A4
:100C90006D1C641EF9D52846BDE8F0812DE9F041B0
:100CA000044600251E469046C80301D5302700E0C3
:100CB0002027880404D505E041463846B0476D1C1E
:100CC000641EF9D52846BDE8F0814A68002A06D09E
:100CD0000A68531C0B6010704868401E48607047DB
:100CE000022000F08BB9000070B50024064D06E02C
:100CF0006868012110F8340000F0E0FE641C2878D8
:100D00008442F5D3002070BD14000020F8B51546CC
:100D10000C460646052A01D20720F8BD00F0B4FFB4
:100D200018B900F083FF0028F7D1104900204E6069
:100D30000C70C1E902500E4D08610DE006EBC400D5
:100D40006968009181788DF801100078094A694638
:100D500000F006FF0028E0D1641EE4B2EED2BDE848
:100D6000F840054A0021024800F04AB8140000206B
:100D70005C2C0000BD1600001D1600000DA1012016
:100D800001F020FB01F078FA01F07AFA0028FBD19B
:100D90000CA1032001F016FBBFF34F8F1048016830
:100DA000104A01F4E06111430160BFF34F8F00BFAF
:100DB000FDE700003A4552524F523A466174616C69
:100DC0000D0A00003A494E464F3A4869742077654B
:100DD000616B2068616E646C65720D0A0000000032
:100DE0000CED00E00400FA050EB500210091CDE9FC
:100DF00001106A4644F20100FFF7C0FF0EBD00007B
:100E0000074B9B7823B12AB120B10068037C1BB14A
:100E100008207047072070474174426100207047E6
:100E20005801002070B501F043FC104800240B214C
:100E3000047044700E4D817014206C602C706C70C6
:100E4000FFF734FB07211420FFF751FB1420FFF7B5
:100E500038FB0848046007211120FFF748FB0548CC
:100E6000001F0068A860002070BD0000580100202D
:100E700028000020081501402DE9F843DFF87090A4
:100E800099F802305BB350B3052902D20720BDE8C0
:100E9000F88343691BB3437C012B22D0002704460F
:100EA000002588461646284600F036F8684601F0C8
:100EB000A1FEC0B1012101700E4944600968C0E97A
:100EC0000218C0E904769DF8000089F801000020AE
:100ED00000F024F81420FFF7FFFA2846D7E708208F
:100EE000D5E70F46DBE70425002000F017F8F4E70C
:100EF00058010020041501400649897839B130B104
:100F0000416921B100210174022101F0D1BC082006
:100F1000704700005801002000F002B800F008B847
:100F200072B602480168491C016070473C0000200D
:100F300003490868401E086000D162B6704700008F
:100F40003C0000202DE9F041064608680C46411C93
:100F50004FF0A0474FF0010506D005FA00F1C7F8A1
:100F60000815206800F0DAFF6068411C02D00021FB
:100F700000F0CBFF3079204901EB4010A169007FE0
:100F800000283068C0F8241525D0607D227D3168A6
:100F90001043C1F86C05D4E900123068C0F80C1594
:100FA000C0F8142524E0A068411C02D0002100F004
:100FB000ACFFE068411C05D08540C7F80855E068E3
:100FC00000F0ACFFD4E902123068C0F80825C0F880
:100FD0001015BDE8F081607D217D32680843C2F8BC
:100FE0006C05D4E900123068C0F81425C0F80C155F
:100FF000207D0128D7D0ECE71801002007490B5CC1
:101000004FF0A041D1F804250120984020EA0203C6
:10101000C1F808351040C1F80C057047242C0000B9
:101020000249085C012100F094BF0000242C00005C
:101030000249085C002100F08CBF0000242C000055
:101040000649095C4FF0A040D0F80405C84010F0F4
:10105000010000D0012080F001007047242C000026
:101060007CB50024084E25460122305D0095002302
:101070001146019500F00AFF641C042CF4D3BDE86E
:101080007C4000F003B80000242C000010B50024C0
:101090002046FFF7C5FF641C042CF9D310BD10B522
:1010A00000242046FFF7C4FF641C042CF9D310BDB4
:1010B00010B50246064B4FF0FF3000215C5C9442B5
:1010C00001D1084610BD491C0429F7D310BD00000A
:1010D000282C00002DE9F0470D468146FFF7E8FF78
:1010E0000446042836D2DFF874801B481C4EA8F151
:1010F0000C0725B3012D0ED0022D2BD104EB44009B
:1011000030444578002D25D0B968002922D02846E2
:10111000BDE8F047084704EB4401755C0E44717864
:1011200049B10E4A4FF40041093A8068FFF7A4FE26
:1011300008B987F80390B17808F80410E2E78068EE
:10114000FFF7DAFE04EB4401314418F804008D780F
:10115000A842D7D0BDE8F0872C2C0000100000205A
:101160009400002070B50023042810D20D4D00EB30
:101170004004012A02D101290CD00022094E00EBC3
:101180004000304461B1012906D0022906D007236E
:10119000184670BD0E30C2B22A55F9E74270F7E723
:1011A0008270F5E794000020044A0146002012797D
:1011B000D20702D0084600F04DB870470400002066
:1011C00070B506461E480024C0E90161B00720D56D
:1011D0000025012211462846FFF7C4FF6D1C044676
:1011E000042D02D2002CF4D013E094B940F26662D0
:1011F00004211448FFF78AFD04000AD1FFF774FDAB
:10120000040006D10F48104A0021001FFFF7F8FD27
:101210000446F00701D0FFF723FF74B909480B4AD1
:1012200000210C38FFF7ECFD040006D10548084A00
:1012300001210838FFF7E4FD0446204670BD000098
:1012400004000020382C000095140000BD17000099
:10125000E10C00002DE9F05F6A4C0546002660783D
:10126000B34618B184F801B000F090FA664F4FF41D
:101270007A694FF4C87A4FF00108182D62D2DFE87E
:1012800005F0AC0C0C31404D62676B746B74BE7D25
:101290007D7D7D7DACAFB2B5BEBE0020FFF7D0FE38
:1012A00000284FF0000008D0FFF7BAFE022D02D14F
:1012B0004FF4E16008E0484606E0FFF7B9FE022D72
:1012C00001D1C82000E05046410CC0034FF4FA722F
:1012D000801841F10001257052000023FEF7ACFF99
:1012E00001462AE00020FFF7ABFE00284FF0000087
:1012F00004D0FFF795FE4FF44870E5E7FFF798FE3E
:10130000DFE70020FFF79CFE00284FF0000002D02E
:10131000FFF786FECFE7FFF78BFED4E70020FFF74D
:101320008FFE00284FF0000002D0FFF779FE01E0A9
:10133000FFF77EFE257041F69A1100223868FFF70C
:101340009BFD064646E00020FFF758FE257008E0AA
:10135000002051E025703DE084F801800120FFF776
:101360004DFE002240F6CD41E8E784F801800120DF
:10137000FFF744FE00224FF48041DFE77868FFF773
:10138000BBFD0646D5F1110000D02EB10220FFF7BB
:1013900047FE84F802B01DE0012816D980B2C821AA
:1013A0004843C117C90341EA5041C0034FF4FA72E0
:1013B000801841F1000152000023FEF73DFF014675
:1013C00000227868FFF758FD06460220FFF730FE3E
:1013D00084F802803046BDE8F09F00F0D7F9B9E705
:1013E00000F0D4F9B4E700F0D1F904E000F0CEF950
:1013F0000020FFF71DFE0120FFF71AFEAAE7FFF706
:101400004EFEA7E7040000202C2C0000002901DA82
:1014100000207047026811440160012070470000FD
:1014200070B5461C0D4601240020FFF775FD114ADA
:1014300010682860D2E900109568081A2B1A701CF1
:101440005B1C98420FD963B10B480C4B29400068D4
:101450001B6802EB810163F39F20C8601068401C89
:101460001060002401E0881910600020FFF756FD8D
:10147000204670BD64030020842C00004C00002036
:10148000034803C8814201D1012070470020704702
:101490006403002000780221FFF71CBE70B50446EB
:1014A000000E01F065F90506200C01F061F945EA2E
:1014B0000045200A01F05CF945EA0025204601F0CC
:1014C00057F9284370BD000005494FF0FF32082846
:1014D00041F8202002D3084480F8482070470000DB
:1014E000C0000020F0B54FF0FF3512B100230826F0
:1014F00001E008230C260C4C05E000BF54F82370D3
:101500007F1C04D05B1CB342F8D32846F0BD2618DC
:101510005DB286F8305044F82310002AF5D1E11866
:1015200081F84800F1E70000C000002002490844AB
:1015300090F9300070470000C00000204FF080405C
:101540000022C0F800210121C0F80010D0F80031BD
:10155000002BFBD0054B1960C0F80421C0F808101F
:10156000D0F804110029FBD0704700001805004096
:101570002DE9F05F26484168F1B3DFF898B00E68B6
:101580008146DBF8004087688078E11B21F07F45C9
:10159000ED1CB0B9DFF880804FF48030C8F8440308
:1015A000C8F804031120FEF781FF1120FEF789FF20
:1015B0004FF0010AC8F800A02F2000F00FFA89F8B8
:1015C00002A0B54200D23546124BE8193C3320F058
:1015D0007F401860DBF800105A46091B21F07F415C
:1015E000001B20F07F40C91C81420FD91068186091
:1015F0002F2000F0F3F900E004E0BDE8F05F1120D7
:10160000FEF76ABFBDE8F05F01F052B8BDE8F09F99
:101610002800002004150140001001402DE9F04190
:1016200000260125144C22E06068226900EBC60701
:10163000387805FA00F1114217D08A43226100F090
:10164000EBFA02463878E36805FA00F1194002FA2D
:1016500000F3994209D17978012901D0012100E0F4
:10166000002151407A6802B19047761CF6B220788A
:101670008642D9D3BDE8F081140000200E4910B590
:101680000A784C780023A24212D0521CD2B20A70BF
:10169000022A00D10B70084A0B780C3252F8232032
:1016A00002608868104420F07F408860012010BDEF
:1016B0000360002010BD0000280000202DE9F0414B
:1016C000124E07460125BD403068FFF715FC002883
:1016D0000DD10F4C2069284207D1384600F09CFA02
:1016E0000028E06805D0284304E0A8432061BDE855
:1016F000F081A843E060206928432061A168306838
:10170000BDE8F0410022FFF7B7BB00005C2C0000F1
:101710001400002070B50E460446007918494FF4B5
:10172000A27501EB4010017F2068A1B14FF48871D0
:1017300000F0CAFE4FF49071206800F0C5FE4FF42F
:101740009271206800F0C0FE2946206800F0BCFEBF
:101750000C49206809E04FF48E7100F0A4FE294680
:10176000206800F0A0FE08492068C0F80413206833
:1017700000F0A1F93146BDE8704000F080B90000EA
:101780001801002010030200800002000A4810B572
:10179000807860B1002401E0022C06D02046FFF7DB
:1017A0003FFC641C042CF7D310BD0324F6E7BDE80E
:1017B0001040FFF76BBC00000400002003480179D3
:1017C000C90702D00078FFF745BD7047040000202C
:1017D0002DE9F047394E002780463D46DFF8E0907E
:1017E000D6F804A057E003D00446D0F81C8035E0BA
:1017F00099F8002002EB4201521CD2B289F8002075
:1018000009EBC10199F80230091D9A4201D189F80A
:10181000005048680A780446012A12D0022A02D0F1
:10182000032A3BD108E001F013F800B10127257429
:1018300034E00574C06900E070680028F9D1706078
:101840002CE0207C50BB88686060C868A060086994
:10185000E0604869A061F07800B165606268B168D5
:10186000184B501A20F07F40984202D2A1680844D9
:1018700006E0881AA16820F07F40814202D9081A48
:10188000206000E0256065600120A560207420468E
:10189000E56100F0BFFFB8F10000A4D199F8001095
:1018A00099F801008142A3D117B97168514502D05E
:1018B0000120BDE8F0870020FBE7000028000020A1
:1018C00058010020FFFF7F00FFF738FEFFF7AAFA5C
:1018D00008B1FFF789FA002000F0CEFD08B1FFF74C
:1018E00083FA00210120FFF76BFC08B1FFF77CFAB7
:1018F00000F044FE1749164808601220FFF754FC18
:10190000044615A1032000F05DFD200001D0FFF783
:101910006BFA00F0B5FC0028FBD100BF00F09EFE82
:1019200005460A20FFF740FC044614A1032000F0FE
:1019300049FD200001D0FFF757FA2A4617A10320DE
:1019400000F066FD00F09CFC0028FBD1E6E70000FB
:1019500000000020041500404150503A494E464FC7
:101960003A5761697420666F7220666972737420D9
:101970007061636B65740D0A000000004150503ABD
:10198000494E464F3A5061636B657420776173200E
:1019900072656365697665640D0A00004150503ACE
:1019A000494E464F3A54686520636F6E74656E7495
:1019B00073206F6620746865207061636B61676572
:1019C0002069732025750D0A00000000C20800F090
:1019D00007030120895C98400840704700283ED0EA
:1019E0001F49204A096800BF00BF00BF00BF00BFF9
:1019F00000BF00BF00BF91422FD000BF00BF00BF9B
:101A000000BF00BF00BF00BF00BF00BF00BF00BFDE
:101A100000BF00BF00BF00BF00BF00BF00BF00BFCE
:101A200000BF00BF00BF00BF00BF00BF00BF00BFBE
:101A300000BF00BF00BF00BF00BF00BF00BF00BFAE
:101A400000BF00BF00BF00BF00BF00BF00BF00BF9E
:101A500000BF00BF00BF00BF00BF401EC3D1704722
:101A6000500000200024F40000F01F0201219140EA
:101A70004009800000F1E020C0F88011704749075C
:101A8000090E002806DA00F00F0202F1E02282F8C7
:101A9000141D03E000F1E02282F8001400F01F02A0
:101AA000012191404009800000F1E020C0F880123F
:101AB000C0F800117047000B40B270472DE9F041AB
:101AC0008846054600F006FD234E002828461AD019
:101AD000FFF72CFD304490F848008009032802D01D
:101AE00001280ED007E04FF0A040D0F81005E840E4
:101AF00010F0010F05D003212846BDE8F04100F0A9
:101B000017BA0221F8E700F0F1FC002822D028469D
:101B1000FFF70CFD04464FF4807000EB84000F4F7C
:101B200081B207EB8400D0F8102542F00102C0F822
:101B30001025084600F02CFAB8F1000F0AD028460C
:101B4000FFF7F4FC56F82000002803D00120A04045
:101B5000C7F80403BDE8F081C00000200060004029
:101B60002DE9FC41DFF8A480044608EB04000027BF
:101B700090F930001346C0170E46401C01D00827CC
:101B800041E0F27819462046FFF7ACFC0546401CC0
:101B900038D0B07850B14FF0A04000EB8400D0F8BE
:101BA000001721F00201C0F8001707E00021737848
:101BB000204600910A46019100F07AF9F078C0B110
:101BC0001348317800EB8500D0F81025114B1A40EE
:101BD000C0F810254FF4F8524FF4403302EA0422C3
:101BE00003EA01410A43D0F810150A43C0F8102552
:101BF00009E008EB0500327810F8481F41EA82112D
:101C0000017000E004273846BDE8FC81C0000020D8
:101C100000600040FFE0FCFF4FF0A041D1F810153C
:101C2000C14011F0010000D00120704770B5144D83
:101C300095F8540008B1082070BD0020411E2A18F4
:101C4000401CC0B282F830102028F8D3002420466F
:101C5000FFF73AFC641CE4B20C2CF8D307210620F1
:101C6000FFF70DFF4FF4BE7000F092F905494FF0F9
:101C70000040C1F80403012085F85400002070BD25
:101C8000C000002000600040034890F85400002885
:101C900000D0012070470000C00000200121B1EBFE
:101CA000507F01D101207047002070472DE9F0419D
:101CB00005460079164F904607EB40140E46E07E2D
:101CC00010B10820BDE8F081707F20772846FFF72B
:101CD00039F95FEA080060603169216003D0317F23
:101CE0002846FFF717FD287907EB4010007F0028F2
:101CF000286801D0082100E00421C0F80015002068
:101D0000E0752076A0750121E176A076DAE7000083
:101D1000180100202DE9F047054600793F4E904616
:101D200006EB40140F46207F18B10846FFF7B6FFB8
:101D300030B1284600F074F820B11120BDE8F087DA
:101D40001020FBE784F81680A7600027A782287977
:101D50004FF0010806EB40143E46207F002828681B
:101D600025D04FF49079494600F0AEFB4FF4AC7AA1
:101D70005146286800F0A8FB2868A17DA268C0F839
:101D80004425C0F848152868C0F808806068F0B994
:101D90004946286800F093FB80465146286800F0C9
:101DA0008EFB58EA0001F3D058BBA7750FE04FF443
:101DB0008E7A514600F077FB2868C0F808802146EB
:101DC000286800F0E9FD61684FF4807089B1304601
:101DD000B4E75146286800F061FB10B9A08A484575
:101DE000F7D1A08A484505D02146286800F0D4FDE7
:101DF00000E08146A08AA17D8842EAD3A08A4845B6
:101E000001D10F26D1E75146286800F047FB002892
:101E1000F9D02868C0F80C80C7E70000180100203E
:101E20000079044901EB4010807D002800D001209A
:101E3000704700001801002070B504460079114970
:101E4000002601EB401520682A7FC0F8006568680D
:101E500088B1207901EB4010007F0028206801D074
:101E6000094901E008498C39C0F808132068FFF7D8
:101E700022FEFFF7F9FD204600F044FBEE766E608F
:101E800070BD0000180100201003020070B541EA87
:101E90004201DDE904564FF0A04441EA830141EAE2
:101EA000052104EB800041EA0641C0F8001770BD2F
:101EB00070B541EA4201DDE904564FF0A04441EA21
:101EC000830141EA052104EB800041EA0641C0F8A4
:101ED000001770BD70B541EA4201DDE904564FF0CC
:101EE000A04441EA830141EA052104EB800041EA74
:101EF0000641C0F8001770BD1CB5002100910B46CB
:101F000001220191FFF7E6FF1CBD1CB500220B4624
:101F1000009211460192FFF7DDFF1CBD1CB50021A8
:101F200000910B46012201911146FFF7D3FF1CBD22
:101F30004FF0A04202EB8000D0F8002722F440329C
:101F4000C0F80027D0F8002742EA0141C0F8001786
:101F5000704701224FF0A043824011B1C3F8082519
:101F60007047C3F80C25704718B5084B6C46014400
:101F70001B68009306E000BF54F82030D3F81035FA
:101F8000401C08C28142F7D818BD0000582C000040
:101F9000034908B50844002101600068009008BDAD
:101FA0000060004002494058012800D000207047DE
:101FB00000600040004870472D20000030B5184CEC
:101FC000054689B0207828B16078854202D100208A
:101FD00009B030BD202213496846FEF763F900209E
:101FE0008DF8140006200090082001900520039031
:101FF000072002904FF0EB7006900948001DFFF794
:102000001BFF0DB1002200E0074A05486946001D8C
:10201000FFF74CFE0028DBD1012020706570D6E769
:1020200040000020642C0000D52900002DE9F04F6D
:10203000C1B00D004FF0000140914D984B991C46E6
:10204000174601EB000B01D00A2000E0002080467B
:1020500000F072FB00287CD16E46BCB9409840AAC3
:102060003118284600F07EFC002872D03846FEF772
:102070002BF9C22800D9C220054640982A46304490
:102080003946FEF70FF94098284440904FF0200A57
:10209000409901EB080231320DEB01050DEB020610
:1020A000002002E005F801AB401C4045FAD30027B0
:1020B0005C4508D305F801AB05F801AB05F801ABA9
:1020C00006F801AB2DE04B98844202D24A98005D9D
:1020D00002E0211A4C98405C2B46814602460121C1
:1020E000880022FA00F000F00F00092801D93730EB
:1020F00000E03030C1F1010C491E03F80C00EFD2B2
:102100009D1C05F801ABFEF7C9F8016811F809003C
:1021100010F03E0F01D0484600E02E2006F8010BDB
:10212000641C7F1C102FC3D30D2030700A207070E8
:1021300085F800A04099684641444331409100F041
:1021400001FB30B100F0F8FA18B9002040905C456E
:102150009ED341B02046BDE8F08F2DE9F043C7B0D3
:1021600000251C46904689464E9F459500F0E4FAAE
:1021700000287AD1459805AE311845AA484600F0A6
:10218000F1FB002835D0072F27D2DFE807F0041233
:102190001B35424F5D004046FEF796F805464598D0
:1021A0002918FF2919D830442A464146FEF77AF803
:1021B00013E045982368C0F5807130444246FEF72D
:1021C0002FFB09E06068009045982368C0F5807196
:1021D00030444246FEF724FB0546294645A8FFF752
:1021E00015F9459978B3B1F5807F3ED805A800F080
:1021F000A9FA47B0BDE8F083D4E90101CDE90001B7
:1022000045982368C0F5807130444246FEF708FBCC
:10221000E2E7201D07C88DE8070045982368C0F550
:10222000807130444246FEF7FBFAD5E7201D0FC807
:102230008DE80F0045982368C0F580713044424610
:10224000FEF7EEFAC8E710E004F1080001AD0FC890
:1022500085E80F006068009045982368C0F580719C
:1022600030444246FEF7DCFAB6E70020C1E7000042
:10227000004870475B2100000120FFF79FBE00006F
:102280002DE9F04F87B0FFF7FBF818B1002007B039
:10229000BDE8F08F454ED6E9014704EA070006EB9A
:1022A0008000A146641CC5680CE000BFC5F389101E
:1022B00000EB9550044404EA070006EB8000A146B9
:1022C000C568641CA807F1D005F003004FF0000BAF
:1022D000022805D0AA0A01A8C5F38313002153E000
:1022E00004EA070006EB800004F1010A0AEA070489
:1022F000C268381B80004FEA9558001DC5F389134A
:10230000804521D929490C3138B106EB840400F00D
:10231000FF0CA8EB00000C3404E00C46002108F090
:10232000FF0C0846C0B2CDE90210CDE9004CD6F84A
:102330001444C5F3C2005946A047404511D108F1E5
:1023400003080AEB98042AE0002106EB84000C3015
:102350000090CDE901810391C5F3C200D6F8144481
:10236000EAE760F38F1509EA070006EB8000C56015
:1023700016E000BF04EA070C06EB8C0C491CDCF8E5
:102380000CC040F804CB641C9942F3D3C5F3C200DF
:102390000093D6F8105401AB5946A84700B17460B9
:1023A000FFF76EF880F0010071E700006403002081
:1023B000034AFF23936000231360536000F054B876
:1023C000640300202DE9F8430F4F8846044600259A
:1023D00069462846BE68FFF723F8002812D00B484C
:1023E0000021406861F38200009964F3C50001EAAE
:1023F000060265F3891007EB820268F39F20491CEF
:10240000D0600091BDE8F88364030020842C0000B4
:102410002DE9F843124D8846044601279146694646
:102420003846AE68FEF7FCFF002817D00D480021A3
:10243000806861F38200009964F3C50001EA060236
:1024400067F3891005EB820268F39F20491CD06076
:102450000091314005EB8101C1F80C90BDE8F88393
:1024600064030020842C0000024A02F5826203C249
:10247000704700006403002070B506460020FFF797
:102480009DFD040008D1FFF795FD0546FFF7F0FE1E
:1024900032462946FFF78CFF204670BD4058002881
:1024A00000D00120704708B50022425040580090EB
:1024B00008BDD0F80403084000D001207047405800
:1024C000002800D00120704708B500224250405833
:1024D000009008BD0449084490F93000082801DB49
:1024E0000120704700207047C000002004490844C4
:1024F00090F93000082801D2012070470020704771
:10250000C000002070B5034600791B4901EB401064
:102510001968027F4FF0FF30002AD1F80C25D1F85E
:102520001465D1F80855D1F8104504D0C1F80C0550
:10253000C1F8140503E0C1F81405C1F80C051968C9
:10254000C1F80805C1F81005501C02D01046FFF76D
:10255000D3FC701C02D03046FFF7CEFC601C02D0CA
:102560002046FFF7C9FC681C04D02846BDE870402F
:10257000FFF7C2BC70BD00001801002070B53248E2
:102580000024046030490720091F08602E48001D00
:102590000460C32000F0ECF80506C22000F0E8F863
:1025A00045EA0045C12000F0E3F845EA0025C020D7
:1025B00000F0DEF80543244818300560C72000F01D
:1025C000D7F80506C62000F0D3F845EA0045C42038
:1025D00000F0CEF805431C481C3005601B48FEF790
:1025E0005DFF1949103108601948FEF757FF164979
:1025F000143108601448203004601349012024314C
:1026000008601148083004600F4912480C31086016
:102610000D480221283001600168021D01F003030A
:1026200009493031022B0AD0006800F0030001286C
:1026300004D1FF20086040F20710106070BD4FF613
:10264000FF7008600448F8E70C1500406745230157
:10265000EFCDAB890101040121100100114910B532
:1026600000200246C1F8000101234B60D1F800416F
:10267000002CFBD0C1F80C21C1F80830D1F80C4176
:10268000002CFBD0084C2468012C01D107480068BD
:10269000C1F81021C1F81030D1F81021002AFBD068
:1026A00010BD000000100040001400400000002099
:1026B00070B5012670044FF0E0210025C1F88001BB
:1026C000084C4010C4F84803C4F8080366602F2083
:1026D000FFF784F9A660044C2F20A560FFF77EF970
:1026E000A57070BD001001402800002070B505469F
:1026F000C87D0C4600284FF4847128460AD0FFF7A5
:10270000D2FED5F81805627EE1688854607E401CD0
:10271000607670BDFFF7C7FED5F8180570BD1FB510
:1027200001238DF800308DF808100192D0E90012D5
:10273000684690471FBD00000148FFF771BB0000CD
:102740004400002070B50D460A46014601240648A3
:10275000FDF7A8FDEAB204490448FFF7DBFA00B12F
:102760000024204670BD00006402002044000020C8
:10277000014610B50020CBB24FEA000123FA01F266
:1027800002F00102C1F10704A2401043491C0829CC
:10279000F4D310BD2DE9F84F1D4C00256846D4E94F
:1027A00001A6FEF76BFF002738B30023009A61688B
:1027B0001CE0D1F800C00846944503D9ACEB0202F6
:1027C0000A6015E0A2EB0C0263440760D0F80CC06D
:1027D000C1698146BCF1000F08D006EB030828F060
:1027E0007F48C0E9018CC9F81C5005460029E0D19A
:1027F00028466160FEF7ECFF03E02846FEF7E8FF9D
:1028000010B15046FEF7B4FEE770BDE8F88F000047
:10281000280000200D4B10B5596831B102680C68D2
:10282000A24204D8A21A0A60C161586010BD0B46CA
:1028300003E00B46C969121B21B10C689442F8D31E
:10284000A41A0C600260C161D86110BD280000208C
:102850002DE9F041144E77683D462C4603E0844252
:1028600004D02546E469002CF9D11BE0D4B1A5427F
:102870000BD1F869706040B90C49012088600021D3
:10288000B160F0702F20FFF7A9F82168E069E861D6
:1028900010B10268114401607068874202D00120C3
:1028A000BDE8F0810020FBE7280000200010014077
:1028B000F8B5064600240D462046FEF72DFB684677
:1028C00000F098F968B10570084946609DF800006D
:1028D00048700020FEF722FB1420FDF7FDFD204686
:1028E000F8BD04240020FEF719FBF8E7580100208A
:1028F0002DE9F041194D6C68002C2CD018480027A8
:102900000068A968B846401A20F07F462068B042A7
:102910000CD82146361A0744E469087C20B181F8B6
:102920001080886949698847002CEFD12978687838
:10293000814206D1401CC0B26870022801D185F8DE
:102940000180064869780C3040F82170BDE8F041FC
:102950001420FDF7C1BDBDE8F08100002800002073
:102960000415014010B5144602004FF001000CD0D0
:102970000846136806A24FF48071FDF751FF014627
:102980002046BDE81040FEF741BD0021216010BD8A
:102990005B253038645D000070B50C4605464FF489
:1029A0008E71FFF780FDA18AA068415CA08A401C5F
:1029B000A082C5F81C1570BD1FB500228DF800203F
:1029C0008DF80810816801918275D0E9001268467F
:1029D00090471FBD0078012801D1014988707047D8
:1029E000400000202DE9FF470C4605464FF40071DA
:1029F000FFF75FFD01274FF40178002618B34FF46D
:102A0000927949462846FFF749FDE0B149462846F4
:102A1000FFF749FDC5F80883A07E00B96F6002206A
:102A20008DF80000D5F88004C5F880040390E07D9F
:102A30008DF80800E0680190E6752676D4E900126A
:102A40006846904727E004212846FFF732FD10B37F
:102A50004FF484712846FFF721FDE0B12146284656
:102A6000FFF744FEE07D617E884214D1207E38B1BC
:102A7000617EE268E0752069E0602676667607E0B0
:102A8000A07E00B96F60C5F80883E675617EE268D4
:102A90002046FFF744FE4FF48E7841462846FFF764
:102AA000FDFC88B1A08AA17D884204D22146284637
:102AB000FFF772FF08E041462846FFF7F4FCA17DCE
:102AC00011B12046FFF778FF4FF4A278414628461F
:102AD000FFF7E4FC002812D041462846FFF7E3FC4C
:102AE000A07E00B12F60E07D002808D0E675617EF1
:102AF000E26804B02046BDE8F047FFF710BEBDE82D
:102B0000FF872DE9FF410C464FF492770546394681
:102B1000FFF7D5FC0026C0B139462846FFF7D4FCA4
:102B200002208DF80000D5F88004C5F880040390D9
:102B3000D5F83C058DF80800E0680190E67526762A
:102B4000D4E900126846904724E04FF4887739466C
:102B50002846FFF7B4FCE8B139462846FFF7B4FC35
:102B6000D5F83C05C1B2E07D884213D1207E60B12A
:102B7000E268D5F8000220F02000C5F80002207EAF
:102B8000E0752069E060267601E0E675E26820469F
:102B9000FFF7C5FD4FF4A27739462846FFF78FFCB3
:102BA00068B139462846FFF78FFCE07D38B1E675FD
:102BB000D5F83C05E268C1B22046FFF7B0FD4FF4FE
:102BC000907631462846FFF77AFC00280FD0314630
:102BD0002846FFF779FCA07D002808D0D5F84C05E1
:102BE00004B0C1B22046BDE8F041FFF7E5BEBDE844
:102BF000FF8100000A494A788B78521CD2B2934276
:102C000000D100220B78934201D10020704702705E
:102C1000487800EB400001EBC000001D7047000049
:102C200058010020111213140D0E0F105400002033
:102C300074000020A00000200D000300D51000004B
:102C40000E000300D51000000F000300D510000097
:102C500010000300D51000000000005038010020D3
:102C600003000000FFFFFFFFFFFFFFFFFFFFFFFF6D
:102C7000FFFFFFFF00000000000000000000D60181
:102C80000701000029000000010000000100000011
:102C90000100000001000000010000000100000030
:102CA0000100000002000000004040404040404061
:102CB000404041414141414040404040404040400F
:102CC00040404040404040404005020202020202B3
:102CD0000202020202020202022020202020202002
:102CE0002020200202020202020290909090909016
:102CF00010101010101010101010101010101010D4
:102D00001010101002020202020288888888888847
:102D10000808080808080808080808080808080833
:102D2000080808080202020240000000A92C000066
:102D30004F766572666C6F770D0A00005C2D00009F
:102D4000000000205400000048080000B02D0000E2
:102D5000540000202C27000058080000000000004C
:102D60000000000000000000000000000000000063
:102D70000000000000000000000000000000000053
:102D80000000000000000000000000000000000043
:102D90000000000000000000000000000000000033
:102DA0000020004000000000302D00000090D00303
:0400000500000201F4
:00000001FF
