:020000040000FA
:1000000088220020150200001D0200001F020000CF
:100010002102000023020000250200000000000071
:1000200000000000000000000000000027020000A7
:1000300029020000000000002B0200002D02000039
:10004000250500002F0200008D0700002F02000090
:100050002F0200002F020000FD0200002F0200000E
:100060002F0200002F0200002F0200002F020000CC
:100070002F0200002F0200002F0200002F020000BC
:10008000A90700007D0500002F0200002F020000DC
:10009000A10500002F0200002F0200002F02000027
:1000A0002F0200002F0200002F0200002F0200008C
:1000B0002F0200002F0200000000000000000000DE
:1000C0002F0200002F0200002F0200002F0200006C
:1000D0002F0200002F0200002F0200002F0200005C
:1000E0002F0200002F0200002F0200002F0200004C
:1000F000000000002F0200000000000000000000CF
:1001000000000000000000000000000000000000EF
:1001100000000000000000000000000000000000DF
:1001200000000000000000000000000000000000CF
:1001300000000000000000000000000000000000BF
:1001400000000000000000000000000000000000AF
:10015000000000000000000000000000000000009F
:10016000000000000000000000000000000000008F
:10017000000000000000000000000000000000007F
:10018000000000000000000000000000000000006F
:10019000000000000000000000000000000000005F
:1001A000000000000000000000000000000000004F
:1001B000000000000000000000000000000000003F
:1001C000000000000000000000000000000000002F
:1001D000000000000000000000000000000000001F
:1001E000000000000000000000000000000000000F
:1001F00000000000000000000000000000000000FF
:10020000DFF80CD000F068F800480047B11100009A
:10021000882200200648804706480047FEE7FEE7A0
:10022000FEE7FEE7FEE7FEE7FEE7FEE7FEE7FEE7A6
:10023000A5050000010200002DE9F05F0546002041
:1002400092469B4688460646814640241BE0284647
:1002500041464746224600F02FF853465A46C01AF8
:10026000914110D311461846224600F016F82D1A77
:1002700067EB01084F4622460120002100F00DF8EF
:1002800017EB00094E41201EA4F10104DFDC4846B3
:1002900031462A464346BDE8F09F202A04DB203A37
:1002A00000FA02F1002070479140C2F1200320FAC9
:1002B00003F3194390407047202A04DB203A21FAC7
:1002C00002F00021704721FA02F3D040C2F120026F
:1002D0009140084319467047064C074D06E0E06818
:1002E00040F0010394E8070098471034AC42F6D37D
:1002F000FFF78AFF001E0000201E00002DE9F04FCE
:1003000000268FB0DFF8B081B14602964FF48075B9
:10031000012437460396284601F09CFA38B1D8F8F4
:100320000403204203D0284601F08AFA26432D1DFB
:1003300064007F1CADB2082FEDD34FF4BE7420468D
:1003400001F088FA48B1204601F07AFA46F00046FA
:1003500002AA0221002001F05DFA584C16F0FF0FAE
:1003600015D00127002537420DD008EB8501D1F8C3
:100370001005D1F81015C0F3052054F82520C1F35D
:10038000014102B190477F006D1C082DEBD3002E78
:100390007DDA0020CDF82890411E0DF1080B08AA47
:1003A000CDF82C9042F82010401C91460228F9D339
:1003B00000252E46A01910F8607F90F9000027F064
:1003C000C008401C49D008A9404600F039FF88B356
:1003D0004FEA971A404600F053FD54F820701FB1C1
:1003E000BAF1030F03D00FE0BAF1030F35D10AA819
:1003F0004FEAD80208F00703815C4FF0010C0CFAB9
:1004000003FC41EA0C01815406A8CDF8188001F0E4
:10041000D5F9069900EB8100D0F8000702A9C0F3D6
:1004200001400690404600F00BFF0028069802D0DD
:10043000022802D011E003280FD1BAF1030F08D12E
:100440000698022832D00221404601F091F96D1C35
:10045000EDB217B151464046B847761C042EA9D3D9
:10046000002D20D004AA0221002001F0D3F90020A1
:100470005A4604A952F8206051F82030B34217D0F0
:1004800000200AAE4FEA090351F8207000E00AE0AC
:1004900042F8207056F8207043F82070401C022863
:1004A000F2D3002D84D10FB0BDE8F08F0321CBE74C
:1004B000401C0228DED3F6E700600040D000002098
:1004C00000F01F02012191404009800000F1E0206E
:1004D000C0F88012704700F01F02012191404009CE
:1004E000800000F1E020C0F80011704700F01F020A
:1004F000012191404009800000F1E020C0F8001285
:1005000070474907090E002806DA00F00F0000F1D5
:10051000E02080F8141D704700F1E02080F80014FE
:10052000704700002DE9F0414FF48077384600F025
:100530008FFE0124104EA50748B1384600F08FFE0B
:100540000120C5F808037470002000F0A1FC4FF4EE
:100550008277384600F07CFE00280BD0384600F049
:100560007EFE0220C5F80803B470BDE8F04101200A
:1005700000F08EBCBDE8F081BC00002007480021DF
:10058000C0F84011C0F84411C0F84811C0F84C112F
:10059000C0F80011C0F8041101F08ABA001001403F
:1005A00001F0D8B930B54FF080500022D0F83011AA
:1005B0000123082902D1D0F8344114B1082909D007
:1005C0000BE04FF08041C1F80C21C1F810216149C6
:1005D0000A6005E0D0F8344114B1082957D059E039
:1005E0005D4909685D4C21605B49091D0968241D4E
:1005F0002160594908310968241D216056490C3190
:100600000968241D2160544910310968241D2160A6
:10061000514914310968241D21604F491831096876
:100620004E4C203421604C491C310968241D216046
:10063000494920310968241D21604749243109684E
:10064000241D2160444928310968241D2160424944
:100650002C310968241D21603F49303109683F4C25
:10066000403421603C4934310968241D21603A49F5
:1006700038310968241D216037493C310968241D3F
:100680002160354940310968241D216005E0D0F81A
:10069000344114B1082904D006E0324C30492160BD
:1006A00005E0D0F8344114B1082904D006E02E4CFE
:1006B000FB21216005E0D0F8344114B1082908D0AD
:1006C0000EE090F858422948016864F30301016084
:1006D00002E0D0F8340118B925494FF400700860E1
:1006E0002448016841F470010160BFF34F8FBFF3EC
:1006F0006F8F4FF01021D1F80002002803DBD1F8F2
:100700000402002822DA1C4C23601C480368002BDA
:10071000FCD01223C1F800320568002DFCD0C1F8CE
:10072000043201680029FCD0226001680029FCD055
:10073000BFF34F8F0F487C380168114A01F4E06124
:1007400011430160BFF34F8F00BFFDE70E490D4815
:10075000086030BD380500400404001020C500408A
:10076000488103008C56004018F50040E40E00401C
:100770004096024088ED00E004E5014000E40140BD
:100780000400FA050090D0034C0000200448017FCB
:1007900004480029024901D001F071BA01F0E0B922
:1007A0003801002000200040094882B0D0F804033E
:1007B0004FF0000110F0010F07D0064801600068FB
:1007C00000900548406802B0004702B07047000042
:1007D00000000140000101401400002002E008C8B0
:1007E000121F08C1002AFAD170477047002001E0AB
:1007F00001C1121F002AFBD17047022000F0FAB895
:1008000070B50024064D06E06868012110F8340038
:1008100000F028FE641C28788442F5D3002070BDC7
:1008200020000020F8B515460C460646052A01D2E0
:100830000720F8BD00F0F8FE18B900F0C7FE002848
:10084000F7D1104900204E600C70C1E902500E4DE6
:1008500008610DE006EBC4006968009181788DF8AD
:1008600001100078094A694600F048FE0028E0D1EE
:10087000641EE4B2EED2BDE8F840054A0021024809
:1008800000F016B820000020F81D00000510000040
:10089000650F000000F0FEF8FEE70EB500210091A4
:1008A000CDE901106A4644F20100FFF7F3FF0EBDE7
:1008B000074B9B7823B12AB120B10068037C1BB1A0
:1008C000082070470720704741744261002070473C
:1008D0007801002070B500F0F9FF104800240B21CA
:1008E000047044700E4D817014206C602C706C701C
:1008F000FFF7E6FD07211420FFF703FE1420FFF7A2
:10090000EAFD0848046007211120FFF7FAFD0548B9
:10091000001F0068A860002070BD00007801002062
:1009200034000020081501402DE9F843DFF87090ED
:1009300099F802305BB350B3052902D20720BDE815
:10094000F88343691BB3437C012B22D00027044664
:10095000002588461646284600F036F8684601F01D
:1009600007FAC0B1012101700E4944600968C0E96D
:100970000218C0E904769DF8000089F80100002003
:1009800000F024F81420FFF7B1FD2846D7E708202F
:10099000D5E70F46DBE70425002000F017F8F4E761
:1009A00078010020041501400649897839B130B139
:1009B000416921B100210174022101F059B80820D8
:1009C000704700007801002000F002B800F008B87D
:1009D00072B602480168491C016070474800002057
:1009E00003490868401E086000D162B670470000E5
:1009F00048000020094908B5085C0090684600F0EE
:100A0000CFFED0F80425009B0121994021EA020382
:100A1000C0F808351140C0F80C1508BDB01D000025
:100A20000249085C012100F0E2BE0000B01D000098
:100A30000249085C002100F0DABE0000B01D000091
:100A4000084908B5085C0090684600F0A9FED0F897
:100A500004050099C84010F0010000D0012080F08A
:100A6000010008BDB01D00007CB50024084E2546DD
:100A70000122305D009500231146019500F046FEED
:100A8000641C042CF4D3BDE87C4000F003B80000E3
:100A9000B01D000010B500242046FFF7C1FF641C04
:100AA000042CF9D310BD10B500242046FFF7C0FF79
:100AB000641C042CF9D310BD10B50246064B4FF050
:100AC000FF3000215C5C944201D1084610BD491CF6
:100AD0000429F7D310BD0000B41D00002DE9F04734
:100AE0000D468146FFF7E8FF0446042836D2DFF8BA
:100AF00074801B481C4EA8F10C0725B3012D0ED0A5
:100B0000022D2BD104EB440030444578002D25D034
:100B1000B968002922D02846BDE8F047084704EB11
:100B20004401755C0E44717849B10E4A4FF400419E
:100B3000093A8068FFF7F8FE08B987F80390B178A2
:100B400008F80410E2E78068FFF72EFF04EB440189
:100B5000314418F804008D78A842D7D0BDE8F0875A
:100B6000B81D00001000002090000020FFF748BED4
:100B70000E2803D10248007800F07EBD70470000C7
:100B80000000002070B50023042810D20D4D00EBAA
:100B90004004012A02D101290CD00022094E00EBA9
:100BA0004000304461B1012906D0022906D0072354
:100BB000184670BD0E30C2B22A55F9E74270F7E709
:100BC0008270F5E79000002070B506461E480024AC
:100BD000C0E90161B00720D5002501221146284651
:100BE000FFF7D0FF6D1C0446042D02D2002CF4D078
:100BF00013E094B940F2666204211448FFF712FE34
:100C000004000AD1FFF7FCFD040006D10F48104A8A
:100C10000021001FFFF74CFE0446F00701D0FFF74C
:100C200023FF74B909480B4A00210C38FFF740FE36
:100C3000040006D10548084A01210838FFF738FEAC
:100C40000446204670BD000004000020C41D0000C2
:100C5000150E0000A5100000FB0700002DE9F05F55
:100C60006A4C054600266078B34618B184F801B096
:100C700000F000FA664F4FF47A694FF4C87A4FF0EB
:100C80000108182D62D2DFE805F0AC0C0C31404DA4
:100C900062676B746B74BE7D7D7D7D7DACAFB2B5DC
:100CA000BEBE0020FFF7CCFE00284FF0000008D0A9
:100CB000FFF7B6FE022D02D14FF4E16008E048468E
:100CC00006E0FFF7B5FE022D01D1C82000E0504636
:100CD000410CC0034FF4FA72801841F100012570F5
:100CE00052000023FFF7A8FA01462AE00020FFF790
:100CF000A7FE00284FF0000004D0FFF791FE4FF44C
:100D00004870E5E7FFF794FEDFE70020FFF798FE65
:100D100000284FF0000002D0FFF782FECFE7FFF778
:100D200087FED4E70020FFF78BFE00284FF000007D
:100D300002D0FFF775FE01E0FFF77AFE257041F65D
:100D40009A1100223868FFF7EFFD064646E00020C2
:100D5000FFF750FE257008E0002051E025703DE0CF
:100D600084F801800120FFF745FE002240F6CD41C6
:100D7000E8E784F801800120FFF73CFE00224FF4F1
:100D80008041DFE77868FFF70FFE0646D5F11100D6
:100D900000D02EB10220FFF743FE84F802B01DE020
:100DA000012816D980B2C8214843C117C90341EAB6
:100DB0005041C0034FF4FA72801841F10001520013
:100DC0000023FFF739FA014600227868FFF7ACFDEF
:100DD00006460220FFF72CFE84F802803046BDE86C
:100DE000F09F00F047F9B9E700F044F9B4E700F0EC
:100DF00041F904E000F03EF90020FFF719FE012060
:100E0000FFF716FEAAE7FFF74EFEA7E70400002053
:100E1000B81D000000780221FFF760BE05494FF0C1
:100E2000FF32082841F8202002D3084480F85820D7
:100E300070470000D0000020F0B54FF0FF3512B130
:100E40000023082601E008230C260C4C05E000BF17
:100E500054F823707F1C04D05B1CB342F8D328469F
:100E6000F0BD26185DB286F8305044F82310002AF1
:100E7000F5D1E11881F85800F1E70000D00000201A
:100E80000249084490F9300070470000D00000206B
:100E900070B5084C050009D010342168002907D02E
:100EA00008682060496828468847F6E70834F4E770
:100EB00070BD0000BC0000202DE9F05F26484168AD
:100EC000F1B3DFF898B00E688146DBF80040876820
:100ED0008078E11B21F07F45ED1CB0B9DFF8808000
:100EE0004FF48030C8F84403C8F804031120FFF71A
:100EF000E7FA1120FFF7EFFA4FF0010AC8F800A057
:100F00002F2000F0FBF989F802A0B54200D2354647
:100F1000124BE8193C3320F07F401860DBF80010DA
:100F20005A46091B21F07F41001B20F07F40C91C5D
:100F300081420FD9106818602F2000F0DFF900E01F
:100F400004E0BDE8F05F1120FFF7D0BABDE8F05F24
:100F500000F0BCBCBDE8F09F340000200415014047
:100F6000001001402DE9F04100260125144C22E03B
:100F70006068226900EBC607387805FA00F1114273
:100F800017D08A43226100F019FB02463878E368E3
:100F900005FA00F1194002FA00F3994209D1797873
:100FA000012901D0012100E0002151407A6802B1FD
:100FB0009047761CF6B220788642D9D3BDE8F081FE
:100FC000200000200E4910B50A784C780023A24278
:100FD00012D0521CD2B20A70022A00D10B70084AF9
:100FE0000B780C3252F8232002608868104420F0FD
:100FF0007F408860012010BD0360002010BD00000C
:10100000340000202DE9F041124E07460125BD4075
:101010003068FFF7C9FC00280DD10F4C2069284229
:1010200007D1384600F0CAFA0028E06805D0284306
:1010300004E0A8432061BDE8F081A843E060206996
:1010400028432061A1683068BDE8F0410022FFF725
:101050006BBC0000F81D0000200000200268134651
:1010600002E08A4204D01268002AFAD10B600160C3
:10107000704700000A4810B5807860B1002401E094
:10108000022C06D02046FFF7CBFC641C042CF7D3BF
:1010900010BD0324F6E7BDE81040FFF7FBBC0000DD
:1010A0000400002003480179C90702D00078FFF747
:1010B000D5BD7047040000202DE9F047394E0027C8
:1010C00080463D46DFF8E090D6F804A057E003D014
:1010D0000446D0F81C8035E099F8002002EB42016C
:1010E000521CD2B289F8002009EBC10199F80230F4
:1010F000091D9A4201D189F8005048680A780446CF
:10110000012A12D0022A02D0032A3BD108E000F0C3
:101110007FFC00B10127257434E00574C06900E04C
:1011200070680028F9D170602CE0207C50BB886882
:101130006060C868A0600869E0604869A061F078F4
:1011400000B165606268B168184B501A20F07F40AA
:10115000984202D2A168084406E0881AA16820F0EB
:101160007F40814202D9081A206000E02560656056
:101170000120A56020742046E56100F02BFCB8F149
:101180000000A4D199F8001099F801008142A3D180
:1011900017B97168514502D00120BDE8F0870020E1
:1011A000FBE700003400002078010020FFFF7F00F3
:1011B0000EB500F0E9F808B1FFF76FFB002000F072
:1011C00005F9FFF787FB08B1FFF767FB1749022016
:1011D000FFF7FAFC08B1FFF760FBFFF745FC144A84
:1011E00007CA8DE807001349684600F05FFA08B1A6
:1011F000FFF753FB104800F021FA08B1FFF74DFB51
:1012000000F046FA0D4D0024284600F031F8204643
:10121000FFF70EFC641C042CF6D3FFF7A7FC08B103
:10122000FFF73BFB40BF20BF20BFFBE7710B000077
:10123000A41D0000A11D000000000020400D0300BF
:10124000C20800F007030120895C984008407047FD
:1012500000F180400068002800D00120704708B5E8
:1012600000F18040002101600068009008BD00008E
:1012700000283ED01F49204A096800BF00BF00BFB8
:1012800000BF00BF00BF00BF00BF91422FD000BF12
:1012900000BF00BF00BF00BF00BF00BF00BF00BF56
:1012A00000BF00BF00BF00BF00BF00BF00BF00BF46
:1012B00000BF00BF00BF00BF00BF00BF00BF00BF36
:1012C00000BF00BF00BF00BF00BF00BF00BF00BF26
:1012D00000BF00BF00BF00BF00BF00BF00BF00BF16
:1012E00000BF00BF00BF00BF00BF00BF00BF401E67
:1012F000C3D170474C0000200024F40000283ED0E9
:101300001F49204A096800BF00BF00BF00BF00BFDF
:1013100000BF00BF00BF91422FD000BF00BF00BF81
:1013200000BF00BF00BF00BF00BF00BF00BF00BFC5
:1013300000BF00BF00BF00BF00BF00BF00BF00BFB5
:1013400000BF00BF00BF00BF00BF00BF00BF00BFA5
:1013500000BF00BF00BF00BF00BF00BF00BF00BF95
:1013600000BF00BF00BF00BF00BF00BF00BF00BF85
:1013700000BF00BF00BF00BF00BF401EC3D1704709
:101380004C0000200024F40070B50E4C002520789D
:1013900008B1852513E00021A16061602161E16051
:1013A0004FF0E020D0F80001012610F0010F03D12A
:1013B0000721002000F03AF803480660267028460E
:1013C00070BD0000BC0000201805004070B5154D30
:1013D0000446A87838B114B161680120884700201C
:1013E000FFF7F2FA15E00020FFF7EEFA24B10D48FE
:1013F00021461030FFF732FEE86850B94FF4827092
:10140000FFF72DFF02204107C1F804030649012020
:101410000860E868401CE860BDE870400020FFF705
:10142000D5BA0000BC000020080000404907090EA2
:10143000002806DA00F00F0202F1E02282F8141D03
:1014400003E000F1E02282F8001400F01F02012105
:1014500091404009800000F1E020C0F88012C0F8FF
:10146000001170472DE9F0410E46804600F016FA53
:10147000204D0028404616D0FFF702FD284490F882
:1014800058008009032802D001280AD003E0404612
:1014900000F0A2F928B103214046BDE8F04100F078
:1014A00067B90221F8E700F005FA002820D040468D
:1014B000FFF7E6FC0446104F4FF4807007EB840101
:1014C00000EB8400D1F8102580B242F00102C1F88F
:1014D000102500F0B5F9002E0AD04046FFF7D0FCE9
:1014E00055F82000002803D00120A040C7F80403CD
:1014F000BDE8F081D0000020006000402DE9FC41F3
:10150000DFF8AC80044608EB0400002790F93000B7
:101510001346C0170E46401C01D0082744E0F2785D
:1015200019462046FFF788FC0546401C3BD0B078A2
:1015300068B16846009400F041F9009900EB810021
:10154000D0F8001721F00201C0F8001707E00021D1
:101550007378204600910A46019100F0F0F8F07887
:10156000C0B11448317800EB8500D0F81025124B3B
:101570001A40C0F810254FF47C524FF4403302EA71
:10158000042203EA01410A43D0F810150A43C0F8C7
:10159000102509E008EB0500327810F8581F41EAE1
:1015A0008211017000E004273846BDE8FC8100008C
:1015B000D000002000600040FFC0FCFF10B500F02C
:1015C0000BF9002800D0012010BD000070B5144DAB
:1015D00095F8640008B1082070BD0020411E2A184B
:1015E000401CC0B282F830103028F8D300242046C6
:1015F000FFF714FC641CE4B20C2CF8D3072106207E
:10160000FFF714FF4FF4BE7000F01AF905494FF0D0
:101610000040C1F80403012085F86400002070BD7B
:10162000D000002000600040034890F864000028CB
:1016300000D0012070470000D000002010B5044603
:101640000020FFF7C1F90A48816808290AD22170F1
:101650004A1C82600748026801238B401A430260DB
:10166000002400E004240020FFF7B0F9204610BD5C
:101670001400002008050140044A034902EB8000E1
:10168000C0F80016704700003546526E0000014059
:1016900004490120C1F804030860034902200870CE
:1016A00070470000000001401400002070B504469F
:1016B00013484160017809B1082070BD0121017013
:1016C00004B9104C10492078086060680025410C6E
:1016D000C0034FF47A722B46FEF7AEFD024600239C
:1016E000D0F1FF308B4101D2072070BD0649083987
:1016F0000A60217A1020FFF799FE284670BD00008D
:1017000014000020EC1D00000C0501402DE9FF41F4
:101710001C46DDE90A7815460E46684600F040F89A
:1017200046EA450141EA840141EA072242EA0841CA
:10173000009A00EB8200C0F80017BDE8FF812DE998
:10174000FF411C46DDE90A7815460E46684600F062
:1017500035F846EA450141EA840141EA072242EAB6
:101760000841009A00EB8200C0F80017BDE8FF8135
:1017700013B50C46684600F021F8009900EB810192
:10178000D1F8002722F44032C1F80027009900EB7D
:101790008100D0F8001741EA0441C0F800171CBDD1
:1017A0000168202902D24FF0A040704701F01F01CC
:1017B00001600148704700000003005001682029C3
:1017C00002D24FF0A040704701F01F0101600148B4
:1017D000704700000003005001B56846FFF7EEFFB8
:1017E000D0F810050099C84000F0010008BD38B5D8
:1017F00001240090684631B1FFF7D2FF00998C4078
:10180000C0F8084538BDFFF7CBFF00998C40C0F801
:101810000C4538BD1CB5094C0144D4E90034CDE970
:1018200000346C4606E000BF54F82030D3F8103581
:10183000401C08C28142F7D81CBD0000E41D000016
:10184000034908B50844002101600068009008BD04
:101850000060004002494058012800D00020704735
:10186000006000404058002800D00120704708B5B3
:10187000002242504058009008BDD0F804030840B0
:1018800000D0012070474058002800D00120704748
:1018900008B5002242504058009008BD0449084451
:1018A00090F93000082801DB0120704700207047C4
:1018B000D00000200449084490F93000082801D2E3
:1018C0000120704700207047D000002070B501262D
:1018D00070044FF0E0210025C1F88001084C401051
:1018E000C4F84803C4F8080366602F20FFF706FD1C
:1018F000A660044C2F20A560FFF700FDA57070BD09
:10190000001001403400002070B50546C87D0C462B
:1019100000284FF4847128460AD0FFF7A8FFD5F8B5
:101920001805627EE1688854607E401C607670BD58
:10193000FFF79DFFD5F8180570BD1FB501238DF881
:1019400000308DF808100192D0E9001268469047E7
:101950001FBD00002DE9F84F1D4C00256846D4E955
:1019600001A6FFF72FFB002738B30023009A616818
:101970001CE0D1F800C00846944503D9ACEB020244
:101980000A6015E0A2EB0C0263440760D0F80CC0BB
:10199000C1698146BCF1000F08D006EB030828F0AE
:1019A0007F48C0E9018CC9F81C5005460029E0D1E8
:1019B00028466160FFF780FB03E02846FFF77CFBC9
:1019C00010B15046FFF778FAE770BDE8F88F0000D5
:1019D000340000200D4B10B5596831B102680C6815
:1019E000A24204D8A21A0A60C161586010BD0B4619
:1019F00003E00B46C969121B21B10C689442F8D36D
:101A0000A41A0C600260C161D86110BD34000020CE
:101A10002DE9F041144E77683D462C4603E08442A0
:101A200004D02546E469002CF9D11BE0D4B1A542CD
:101A30000BD1F869706040B90C4901208860002121
:101A4000B160F0702F20FFF759FC2168E069E86170
:101A500010B10268114401607068874202D0012011
:101A6000BDE8F0810020FBE73400002000100140B9
:101A7000F8B5064600240D462046FEF7A5FF684649
:101A800000F076F968B10570084946609DF80000DD
:101A900048700020FEF79AFF1420FEF727FD20462D
:101AA000F8BD04240020FEF791FFF8E7780100203C
:101AB0002DE9F041194D6C68002C2CD018480027F6
:101AC0000068A968B846401A20F07F462068B042F6
:101AD0000CD82146361A0744E469087C20B181F805
:101AE0001080886949698847002CEFD12978687887
:101AF000814206D1401CC0B26870022801D185F82D
:101B00000180064869780C3040F82170BDE8F0414A
:101B10001420FEF7EBBCBDE8F0810000340000208B
:101B20000415014070B50C4605464FF48E71FFF761
:101B30009EFEA18AA068415CA08A401CA082C5F8D4
:101B40001C1570BD1FB500228DF800208DF80810FF
:101B5000816801918275D0E90012684690471FBDE7
:101B60002DE9FF470C4605464FF40071FFF785FE4F
:101B700001274FF40178002618B34FF492794946B3
:101B80002846FFF76FFEE0B149462846FFF76FFE93
:101B9000C5F80883A07E00B96F6002208DF80000B0
:101BA000D5F88004C5F880040390E07D8DF8080026
:101BB000E0680190E6752676D4E900126846904701
:101BC00027E004212846FFF758FE10B34FF4847134
:101BD0002846FFF747FEE0B121462846FFF794FE6E
:101BE000E07D617E884214D1207E38B1617EE2685A
:101BF000E0752069E0602676667607E0A07E00B991
:101C00006F60C5F80883E675617EE2682046FFF7DD
:101C100094FE4FF48E7841462846FFF723FE88B1A4
:101C2000A08AA17D884204D221462846FFF77AFF88
:101C300008E041462846FFF71AFEA17D11B1204673
:101C4000FFF780FF4FF4A27841462846FFF70AFECF
:101C5000002812D041462846FFF709FEA07E00B1B9
:101C60002F60E07D002808D0E675617EE26804B050
:101C70002046BDE8F047FFF760BEBDE8FF872DE9CD
:101C8000FF410C464FF4927705463946FFF7FBFDBE
:101C90000026C0B139462846FFF7FAFD02208DF82C
:101CA0000000D5F88004C5F880040390D5F83C0501
:101CB0008DF80800E0680190E6752676D4E90012F8
:101CC0006846904724E04FF4887739462846FFF766
:101CD000DAFDE8B139462846FFF7DAFDD5F83C05CC
:101CE000C1B2E07D884213D1207E60B1E268D5F8B0
:101CF000000220F02000C5F80002207EE075206977
:101D0000E060267601E0E675E2682046FFF715FE02
:101D10004FF4A27739462846FFF7B5FD68B139463A
:101D20002846FFF7B5FDE07D38B1E675D5F83C05EE
:101D3000E268C1B22046FFF700FE4FF490763146CC
:101D40002846FFF7A0FD00280FD031462846FFF7B0
:101D50009FFDA07D002808D0D5F84C0504B0C1B285
:101D60002046BDE8F041FFF7EDBEBDE8FF81000071
:101D70000A494A788B78521CD2B2934200D1002291
:101D80000B78934201D1002070470270487800EB35
:101D9000400001EBC000001D7047000078010020EA
:101DA000FEF778BE01000000D00700000700000029
:101DB0000D0E0F100B0C18195000002070000020A1
:101DC0009C0000200B000300DD0A00000C00030053
:101DD000DD0A000018000300DD0A000019000300FE
:101DE000DD0A000000000050000300500100000068
:101DF000D007000007000000580100200300000089
:101E0000201E00000000002050000000DC07000041
:101E1000701E00005000002038220000EC07000077
:101E200000000000000000000000000000000000B2
:101E300000000000000000000000000000000000A2
:101E40000000000000000000000000000000000092
:101E50000000000000000000000000000000000082
:101E60000000000000000000000000000090D0030F
:0400000500000201F4
:00000001FF
