:020000040000FA
:1000000078220020150200001D0200001F020000DF
:100010002102000023020000250200000000000071
:1000200000000000000000000000000027020000A7
:1000300029020000000000002B0200002D02000039
:10004000D50400002F020000210800002F0200004C
:100050002F0200002F020000FD0200002F0200000E
:100060002F0200002F0200002F0200002F020000CC
:100070002F0200002F0200002F0200002F020000BC
:100080003D0800002D0500002F0200002F02000097
:10009000510500002F0200002F0200002F02000077
:1000A0002F0200002F0200002F0200002F0200008C
:1000B0002F0200002F0200000000000000000000DE
:1000C0002F0200002F0200002F0200002F0200006C
:1000D0002F0200002F0200002F020000000000008D
:1000E0000000000000000000000000000000000010
:1000F0000000000000000000000000000000000000
:1001000000000000000000000000000000000000EF
:1001100000000000000000000000000000000000DF
:1001200000000000000000000000000000000000CF
:1001300000000000000000000000000000000000BF
:1001400000000000000000000000000000000000AF
:10015000000000000000000000000000000000009F
:10016000000000000000000000000000000000008F
:10017000000000000000000000000000000000007F
:10018000000000000000000000000000000000006F
:10019000000000000000000000000000000000005F
:1001A000000000000000000000000000000000004F
:1001B000000000000000000000000000000000003F
:1001C000000000000000000000000000000000002F
:1001D000000000000000000000000000000000001F
:1001E000000000000000000000000000000000000F
:1001F00000000000000000000000000000000000FF
:10020000DFF80CD000F068F8004800473512000015
:10021000782200200648804706480047FEE7FEE7B0
:10022000FEE7FEE7FEE7FEE7FEE7FEE7FEE7FEE7A6
:1002300055050000010200002DE9F05F0546002091
:1002400092469B4688460646814640241BE0284647
:1002500041464746224600F02FF853465A46C01AF8
:10026000914110D311461846224600F016F82D1A77
:1002700067EB01084F4622460120002100F00DF8EF
:1002800017EB00094E41201EA4F10104DFDC4846B3
:1002900031462A464346BDE8F09F202A04DB203A37
:1002A00000FA02F1002070479140C2F1200320FAC9
:1002B00003F3194390407047202A04DB203A21FAC7
:1002C00002F00021704721FA02F3D040C2F120026F
:1002D0009140084319467047064C074D06E0E06818
:1002E00040F0010394E8070098471034AC42F6D37D
:1002F000FFF78AFFFC1D00001C1E00002DE9F047DF
:1003000000268CB0DFF86091B0464FF48075012470
:1003100037460696284601F09DFA38B1D9F804030D
:10032000204203D0284601F08BFA26432D1D64009D
:100330007F1CADB2082FEDD34FF4BE74204601F000
:1003400089FA48B1204601F07BFA46F0004606AA39
:100350000121002001F060FA444D16F0FF0F15D086
:100360000127002437420DD009EB8401D1F8100594
:10037000D1F81015C0F3042055F82420C1F3014131
:1003800002B190477F00641C082CEBD3002E67DA83
:100390004FF0FF30CDE9088000263446281910F8C8
:1003A000507F90F9000027F0C008401C44D009A9F4
:1003B000404600F087FF58B34FEA9719404600F0D7
:1003C000A1FD55F820701FB1B9F1030F03D00FE064
:1003D000B9F1030F30D108A84FEAD80208F007039B
:1003E000815C4FF0010C0CFA03FC41EA0C018154D2
:1003F0004FF0A04101EB8800D0F8000706A9C0F338
:10040000014A404600F05EFF18B1BAF1020F03D076
:1004100012E0BAF1030F0FD1B9F1030F08D1BAF10D
:10042000020F1BD00221404601F0DAF9761CF6B229
:1004300017B149464046B847641C042CAED3002E81
:100440000ED06A460121002001F0E6F906990098D5
:10045000884205D00690089809909DE70321E2E7BD
:100460000CB0BDE8F087000000600040D000002024
:1004700000F01F02012191404009800000F1E020BE
:10048000C0F88012704700F01F020121914040091E
:10049000800000F1E020C0F80011704700F01F025A
:1004A000012191404009800000F1E020C0F80012D5
:1004B00070474907090E002806DA00F00F0000F126
:1004C000E02080F8141D704700F1E02080F800144F
:1004D000704700002DE9F0414FF48077384600F076
:1004E000F9FE0124104EA50748B1384600F0F9FE88
:1004F0000120C5F808037470002000F00BFD4FF4D4
:100500008277384600F0E6FE00280BD0384600F02F
:10051000E8FE0220C5F80803B470BDE8F0410120F0
:1005200000F0F8BCBDE8F081BC00002007480021C5
:10053000C0F84011C0F84411C0F84811C0F84C117F
:10054000C0F80011C0F8041101F0B2BA0010014067
:1005500001F000BAF0B5A3480023021D017801257F
:10056000101D4FF0805406290BD11678360708D19C
:100570000678C6F30316032E06D0042E04D0052EEB
:1005800002D0062907D00EE0B4F82463964FC6F3D4
:1005900004263E6002E01678360704D10678C6F3DA
:1005A0000316032E02D0062904D00FE0904F8F4E81
:1005B0007E670EE01678360708D10678C6F3031674
:1005C000032E06D0042E04D0052E02D0062907D013
:1005D0000EE0D4F84462874FC6F342363E6002E034
:1005E0001678360704D10678C6F30316032E02D018
:1005F000062906D011E0804E376827F080773760F3
:100600000EE01678360708D10678C6F30316032ED7
:1006100006D0042E04D0052E02D006290AD011E0FF
:100620004FF08046C6F80C31C6F81031714E361FB7
:10063000336002E01678360704D10678C6F3031655
:10064000032E02D0062905D00CE06A4F032664373A
:100650003E600AE01678360704D10678C6F3031622
:10066000032E02D006290DD014E0644F05263E600B
:10067000624E78363560614E083633603F263F1D46
:100680003E6002E01678360704D10678C6F30316FA
:10069000052E02D0062957D068E059490968594A01
:1006A00011605749091D0968121D1160544908312C
:1006B0000968121D116052490C310968121D116040
:1006C0004F4910310968121D11604D4914310968F4
:1006D000121D11604A49183109684A4A20321160D6
:1006E00047491C310968121D1160454920310968CC
:1006F000121D1160424924310968121D11604049E0
:1007000028310968121D11603D492C310968121DFC
:1007100011603B49303109683A4A4032116038492A
:1007200034310968121D1160354938310968121DCC
:10073000116033493C310968121D11603049403164
:100740000968121D116002E0117809070ED10078C6
:10075000C0F30310032803D0042801D0052805D1D5
:10076000D4F85802284900F04F0008602248743835
:10077000016841F470010160BFF34F8FBFF36F8FC9
:100780004FF01021D1F80002002803DBD1F8040259
:10079000002822DA1D4A15601D480468002CFCD090
:1007A0001524C1F800420568002DFCD0C1F80442B0
:1007B00001680029FCD0136001680029FCD0BFF358
:1007C0004F8F0D48F0380168124A01F4E06111437F
:1007D0000160BFF34F8F00BFFDE710490E4808606E
:1007E000F0BD0000E00F00F0403501400DF0ADBA63
:1007F00000C007403C050040FCED00E01056004002
:100800000404001020C50040E40E004004E501404F
:1008100000E401400400FA050090D0034C000020E1
:100820000448017F04480029024901D001F027BA99
:1008300001F096B92801002000200040094882B04C
:10084000D0F804034FF0000110F0010F07D0064864
:100850000160006800900548406802B0004702B09F
:10086000704700000000014000010140140000201A
:1008700002E008C8121F08C1002AFAD17047704769
:10088000002001E001C1121F002AFBD170470220A5
:1008900000F0FAB870B50024064D06E06868012142
:1008A00010F8340000F020FE641C28788442F5D350
:1008B000002070BD20000020F8B515460C46064605
:1008C000052A01D20720F8BD00F0F4FE18B900F0A7
:1008D000C3FE0028F7D1104900204E600C70C1E91A
:1008E00002500E4D08610DE006EBC40069680091EE
:1008F00081788DF801100078094A694600F046FEBB
:100900000028E0D1641EE4B2EED2BDE8F840054A0A
:100910000021024800F016B820000020F41D00005D
:1009200089100000E90F000000F0F6F8FEE70EB5B0
:1009300000210091CDE901106A4644F20100FFF761
:10094000F3FF0EBD074B9B7823B12AB120B100689D
:10095000037C1BB108207047072070474174426137
:10096000002070476801002070B500F0AFFF10480C
:1009700000240B21047044700E4D817014206C60B3
:100980002C706C70FFF774FD07211420FFF791FDA8
:100990001420FFF778FD0848046007211120FFF7B5
:1009A00088FD0548001F0068A860002070BD000099
:1009B0006801002034000020081501402DE9F843AB
:1009C000DFF8709099F802305BB350B3052902D27A
:1009D0000720BDE8F88343691BB3437C012B22D079
:1009E00000270446002588461646284600F036F8BB
:1009F000684601F0BDF9C0B1012101700E494460A3
:100A00000968C0E90218C0E904769DF8000089F879
:100A10000100002000F024F81420FFF73FFD2846D5
:100A2000D7E70820D5E70F46DBE70425002000F0D4
:100A300017F8F4E768010020041501400649897899
:100A400039B130B1416921B100210174022101F0B5
:100A50000FB80820704700006801002000F002B8BD
:100A600000F008B872B602480168491C016070477E
:100A70004800002003490868401E086000D162B6A3
:100A8000704700004800002007490B5C4FF0A04170
:100A9000D1F804250120984020EA0203C1F8083566
:100AA0001040C1F80C057047B01D00000249085CF9
:100AB000012100F0A6BE0000B01D00000249085C44
:100AC000002100F09EBE0000B01D00000649095C38
:100AD0004FF0A040D0F80405C84010F0010000D04D
:100AE000012080F001007047B01D00007CB500249B
:100AF000084E25460122305D0095002311460195E0
:100B000000F04AFE641C042CF4D3BDE87C4000F0E5
:100B100003B80000B01D000010B500242046FFF708
:100B2000C5FF641C042CF9D310BD10B50024204669
:100B3000FFF7C4FF641C042CF9D310BD10B50246A6
:100B4000064B4FF0FF3000215C5C944201D1084617
:100B500010BD491C0429F7D310BD0000B41D0000CE
:100B60002DE9F0470D468146FFF7E8FF04460428CB
:100B700036D2DFF874801B481C4EA8F10C0725B351
:100B8000012D0ED0022D2BD104EB440030444578CA
:100B9000002D25D0B968002922D02846BDE8F047AD
:100BA000084704EB4401755C0E44717849B10E4A64
:100BB0004FF40041093A8068FFF700FF08B987F851
:100BC0000390B17808F80410E2E78068FFF736FF79
:100BD00004EB4401314418F804008D78A842D7D0C2
:100BE000BDE8F087B81D0000100000209000002034
:100BF000FFF750BE0E2803D10248007800F082BDF6
:100C0000704700000000002070B50023042810D2B7
:100C10000D4D00EB4004012A02D101290CD0002225
:100C2000094E00EB4000304461B1012906D0022991
:100C300006D00723184670BD0E30C2B22A55F9E718
:100C40004270F7E78270F5E79000002070B5064625
:100C50001E480024C0E90161B00720D5002501220B
:100C600011462846FFF7D0FF6D1C0446042D02D222
:100C7000002CF4D013E094B940F2666204211448C9
:100C8000FFF71AFE04000AD1FFF704FE040006D1A4
:100C90000F48104A0021001FFFF754FE0446F007DA
:100CA00001D0FFF723FF74B909480B4A00210C3823
:100CB000FFF748FE040006D10548084A012108381C
:100CC000FFF740FE0446204670BD000004000020EF
:100CD000C41D0000990E0000291100008F080000BB
:100CE0002DE9F05F6A4C054600266078B34618B1DE
:100CF00084F801B000F000FA664F4FF47A694FF4BF
:100D0000C87A4FF00108182D62D2DFE805F0AC0C6C
:100D10000C31404D62676B746B74BE7D7D7D7D7D53
:100D2000ACAFB2B5BEBE0020FFF7D0FE00284FF03A
:100D3000000008D0FFF7BAFE022D02D14FF4E160A7
:100D400008E0484606E0FFF7B9FE022D01D1C820B1
:100D500000E05046410CC0034FF4FA72801841F194
:100D60000001257052000023FFF766FA01462AE0D1
:100D70000020FFF7ABFE00284FF0000004D0FFF783
:100D800095FE4FF44870E5E7FFF798FEDFE7002097
:100D9000FFF79CFE00284FF0000002D0FFF786FE10
:100DA000CFE7FFF78BFED4E70020FFF78FFE002888
:100DB0004FF0000002D0FFF779FE01E0FFF77EFE62
:100DC000257041F69A1100223868FFF7F7FD0646B4
:100DD00046E00020FFF758FE257008E0002051E0B3
:100DE00025703DE084F801800120FFF74DFE0022D0
:100DF00040F6CD41E8E784F801800120FFF744FE8A
:100E000000224FF48041DFE77868FFF717FE0646BF
:100E1000D5F1110000D02EB10220FFF747FE84F873
:100E200002B01DE0012816D980B2C8214843C1177D
:100E3000C90341EA5041C0034FF4FA72801841F1EE
:100E4000000152000023FFF7F7F9014600227868FD
:100E5000FFF7B4FD06460220FFF730FE84F802805B
:100E60003046BDE8F09F00F047F9B9E700F044F9DB
:100E7000B4E700F041F904E000F03EF90020FFF78C
:100E80001DFE0120FFF71AFEAAE7FFF74EFEA7E7B7
:100E900004000020B81D000000780221FFF760BEAA
:100EA00005494FF0FF32082841F8202002D30844BA
:100EB00080F8482070470000D0000020F0B54FF0C7
:100EC000FF3512B10023082601E008230C260C4C44
:100ED00005E000BF54F823707F1C04D05B1CB342B4
:100EE000F8D32846F0BD26185DB286F8305044F895
:100EF0002310002AF5D1E11881F84800F1E700003D
:100F0000D00000200249084490F9300070470000EA
:100F1000D000002070B5084C050009D010342168BD
:100F2000002907D008682060496828468847F6E706
:100F30000834F4E770BD0000BC0000202DE9F05F2C
:100F400026484168F1B3DFF898B00E688146DBF8B7
:100F5000004087688078E11B21F07F45ED1CB0B927
:100F6000DFF880804FF48030C8F84403C8F80403E9
:100F70001120FFF77DFA1120FFF785FA4FF0010AE3
:100F8000C8F800A02F2000F0FBF989F802A0B542B4
:100F900000D23546124BE8193C3320F07F401860F0
:100FA000DBF800105A46091B21F07F41001B20F09E
:100FB0007F40C91C81420FD9106818602F2000F0B3
:100FC000DFF900E004E0BDE8F05F1120FFF766BA4A
:100FD000BDE8F05F00F07ABCBDE8F09F340000206F
:100FE00004150140001001402DE9F04100260125C3
:100FF000144C22E06068226900EBC607387805FAD5
:1010000000F1114217D08A43226100F01BFB024617
:101010003878E36805FA00F1194002FA00F39942C2
:1010200009D17978012901D0012100E00021514046
:101030007A6802B19047761CF6B220788642D9D3FE
:10104000BDE8F081200000200E4910B50A784C78E8
:101050000023A24212D0521CD2B20A70022A00D13E
:101060000B70084A0B780C3252F823200260886813
:10107000104420F07F408860012010BD03600020F4
:1010800010BD0000340000202DE9F041124E07464B
:101090000125BD403068FFF7D1FC00280DD10F4C71
:1010A0002069284207D1384600F0CCFA0028E068D1
:1010B00005D0284304E0A8432061BDE8F081A8439F
:1010C000E060206928432061A1683068BDE8F041F4
:1010D0000022FFF773BC0000F41D00002000002078
:1010E0000268134602E08A4204D01268002AFAD14C
:1010F0000B600160704700000A4810B5807860B14D
:10110000002401E0022C06D02046FFF7CFFC641C2F
:10111000042CF7D310BD0324F6E7BDE81040FFF719
:10112000FBBC00000400002003480179C90702D07D
:101130000078FFF7D5BD7047040000202DE9F04787
:10114000394E002780463D46DFF8E090D6F804A0EF
:1011500057E003D00446D0F81C8035E099F8002011
:1011600002EB4201521CD2B289F8002009EBC10106
:1011700099F80230091D9A4201D189F80050486857
:101180000A780446012A12D0022A02D0032A3BD14F
:1011900008E000F03DFC00B10127257434E005743F
:1011A000C06900E070680028F9D170602CE0207CF4
:1011B00050BB88686060C868A0600869E0604869E2
:1011C000A061F07800B165606268B168184B501A90
:1011D00020F07F40984202D2A168084406E0881AB5
:1011E000A16820F07F40814202D9081A206000E007
:1011F000256065600120A56020742046E56100F04F
:10120000E9FBB8F10000A4D199F8001099F80100A9
:101210008142A3D117B97168514502D00120BDE8C0
:10122000F0870020FBE70000340000206801002068
:10123000FFFF7F000EB500F0E9F808B1FFF777FB7C
:10124000002000F005F9FFF78FFB08B1FFF76FFBF7
:1012500017490220FFF7FAFC08B1FFF768FBFFF718
:1012600045FC144A07CA8DE807001349684600F098
:1012700063FA08B1FFF75BFB104800F025FA08B1EC
:10128000FFF755FB00F04AFA0D4D0024284600F008
:1012900031F82046FFF712FC641C042CF6D3FFF74C
:1012A000A7FC08B1FFF743FB40BF20BF20BFFBE70F
:1012B000F50B0000A41D0000A11D0000000000208F
:1012C000400D0300C20800F007030120895C98402C
:1012D0000840704700F180400068002800D00120DD
:1012E000704708B500F1804000210160006800905F
:1012F00008BD000000283ED01F49204A096800BFF1
:1013000000BF00BF00BF00BF00BF00BF00BF9142D1
:101310002FD000BF00BF00BF00BF00BF00BF00BF95
:1013200000BF00BF00BF00BF00BF00BF00BF00BFC5
:1013300000BF00BF00BF00BF00BF00BF00BF00BFB5
:1013400000BF00BF00BF00BF00BF00BF00BF00BFA5
:1013500000BF00BF00BF00BF00BF00BF00BF00BF95
:1013600000BF00BF00BF00BF00BF00BF00BF00BF85
:1013700000BF401EC3D170474C0000200024F40081
:1013800000283ED01F49204A096800BF00BF00BFA7
:1013900000BF00BF00BF00BF00BF91422FD000BF01
:1013A00000BF00BF00BF00BF00BF00BF00BF00BF45
:1013B00000BF00BF00BF00BF00BF00BF00BF00BF35
:1013C00000BF00BF00BF00BF00BF00BF00BF00BF25
:1013D00000BF00BF00BF00BF00BF00BF00BF00BF15
:1013E00000BF00BF00BF00BF00BF00BF00BF00BF05
:1013F00000BF00BF00BF00BF00BF00BF00BF401E56
:10140000C3D170474C0000200024F40070B50E4C8E
:101410000025207808B1852513E00021A1606160D6
:101420002161E1604FF0E020D0F80001012610F0CA
:10143000010F03D10721002000F03AF803480660AD
:101440002670284670BD0000BC0000201805004032
:1014500070B5154D0446A87838B114B16168012003
:1014600088470020FFF7FAFA15E00020FFF7F6FAA8
:1014700024B10D4821461030FFF732FEE86850B91C
:101480004FF48270FFF72DFF02204107C1F80403DB
:10149000064901200860E868401CE860BDE870402B
:1014A0000020FFF7DDBA0000BC000020080000406B
:1014B0004907090E002806DA00F00F0202F1E022C7
:1014C00082F8141D03E000F1E02282F8001400F01D
:1014D0001F02012191404009800000F1E020C0F886
:1014E0008012C0F8001170472DE9F041884605468A
:1014F00000F0D4F9234E002828461AD0FFF702FD49
:10150000304490F848008009032802D001280ED00A
:1015100007E04FF0A040D0F81005E84010F0010FB0
:1015200005D003212846BDE8F04100F059B9022159
:10153000F8E700F0BFF9002822D02846FFF7E2FCC8
:1015400004464FF4807000EB84000F4F81B207EB2C
:101550008400D0F8102542F00102C0F8102508469A
:1015600000F06EF9B8F1000F0AD02846FFF7CAFC68
:1015700056F82000002803D00120A040C7F804033B
:10158000BDE8F081D0000020006000402DE9FC4162
:10159000DFF8A480044608EB0400002790F930002F
:1015A0001346C0170E46401C01D0082741E0F278D0
:1015B00019462046FFF782FC0546401C38D0B0781B
:1015C00050B14FF0A04000EB8400D0F8001721F09C
:1015D0000201C0F8001707E000217378204600914F
:1015E0000A46019100F0EAF8F078C0B1134831786A
:1015F00000EB8500D0F81025114B1A40C0F81025DB
:101600004FF4F8524FF4403302EA042203EA014156
:101610000A43D0F810150A43C0F8102509E008EB7A
:101620000500327810F8481F41EA8211017000E08D
:1016300004273846BDE8FC81D0000020006000404F
:10164000FFE0FCFF4FF0A041D1F81015C14011F0B0
:10165000010000D00120704770B5144D95F854007A
:1016600008B1082070BD0020411E2A18401CC0B2DD
:1016700082F830102028F8D300242046FFF710FC11
:10168000641CE4B20C2CF8D307210620FFF710FFEE
:101690004FF4BE7000F0D4F805494FF00040C1F897
:1016A0000403012085F85400002070BDD000002004
:1016B00000600040034890F85400002800D001204A
:1016C00070470000D000002010B504460020FFF74E
:1016D000C5F90A48816808290AD221704A1C82602B
:1016E0000748026801238B401A430260002400E08F
:1016F00004240020FFF7B4F9204610BD1400002098
:1017000008050140044A034902EB8000C0F80016B6
:10171000704700003546526E000001400449012028
:10172000C1F80403086003490220087070470000F4
:10173000000001401400002070B5044613484160C9
:10174000017809B1082070BD0121017004B9104C65
:1017500010492078086060680025410CC0034FF4F0
:101760007A722B46FEF768FD02460023D0F1FF3067
:101770008B4101D2072070BD064908390A60217AE1
:101780001020FFF795FE284670BD000014000020D1
:10179000E81D00000C05014070B541EA4201DDE999
:1017A00004564FF0A04441EA830141EA052104EBCD
:1017B000800041EA0641C0F8001770BD70B541EAEB
:1017C0004201DDE904564FF0A04441EA830141EAB9
:1017D000052104EB800041EA0641C0F8001770BD06
:1017E0004FF0A04202EB8000D0F8002722F44032F4
:1017F000C0F80027D0F8002742EA0141C0F80017DE
:10180000704701224FF0A043824011B1C3F8082570
:101810007047C3F80C25704718B5084B6C46014457
:101820001B68009306E000BF54F82030D3F8103551
:10183000401C08C28142F7D818BD0000E41D00001A
:10184000034908B50844002101600068009008BD04
:101850000060004002494058012800D00020704735
:10186000006000404058002800D00120704708B5B3
:10187000002242504058009008BDD0F804030840B0
:1018800000D0012070474058002800D00120704748
:1018900008B5002242504058009008BD0449084451
:1018A00090F93000082801DB0120704700207047C4
:1018B000D00000200449084490F93000082801D2E3
:1018C0000120704700207047D000002070B501262D
:1018D00070044FF0E0210025C1F88001084C401051
:1018E000C4F84803C4F8080366602F20FFF748FDDA
:1018F000A660044C2F20A560FFF742FDA57070BDC7
:10190000001001403400002070B50546C87D0C462B
:1019100000284FF4847128460AD0FFF7A8FFD5F8B5
:101920001805627EE1688854607E401C607670BD58
:10193000FFF79DFFD5F8180570BD1FB501238DF881
:1019400000308DF808100192D0E9001268469047E7
:101950001FBD00002DE9F84F1D4C00256846D4E955
:1019600001A6FFF771FB002738B30023009A6168D6
:101970001CE0D1F800C00846944503D9ACEB020244
:101980000A6015E0A2EB0C0263440760D0F80CC0BB
:10199000C1698146BCF1000F08D006EB030828F0AE
:1019A0007F48C0E9018CC9F81C5005460029E0D1E8
:1019B00028466160FFF7C2FB03E02846FFF7BEFB45
:1019C00010B15046FFF7BAFAE770BDE8F88F000093
:1019D000340000200D4B10B5596831B102680C6815
:1019E000A24204D8A21A0A60C161586010BD0B4619
:1019F00003E00B46C969121B21B10C689442F8D36D
:101A0000A41A0C600260C161D86110BD34000020CE
:101A10002DE9F041144E77683D462C4603E08442A0
:101A200004D02546E469002CF9D11BE0D4B1A542CD
:101A30000BD1F869706040B90C4901208860002121
:101A4000B160F0702F20FFF79BFC2168E069E8612E
:101A500010B10268114401607068874202D0012011
:101A6000BDE8F0810020FBE73400002000100140B9
:101A7000F8B5064600240D462046FEF7EFFF6846FF
:101A800000F076F968B10570084946609DF80000DD
:101A900048700020FEF7E4FF1420FEF7FFFC20460C
:101AA000F8BD04240020FEF7DBFFF8E76801002002
:101AB0002DE9F041194D6C68002C2CD018480027F6
:101AC0000068A968B846401A20F07F462068B042F6
:101AD0000CD82146361A0744E469087C20B181F805
:101AE0001080886949698847002CEFD12978687887
:101AF000814206D1401CC0B26870022801D185F82D
:101B00000180064869780C3040F82170BDE8F0414A
:101B10001420FEF7C3BCBDE8F081000034000020B3
:101B20000415014070B50C4605464FF48E71FFF761
:101B30009EFEA18AA068415CA08A401CA082C5F8D4
:101B40001C1570BD1FB500228DF800208DF80810FF
:101B5000816801918275D0E90012684690471FBDE7
:101B60002DE9FF470C4605464FF40071FFF785FE4F
:101B700001274FF40178002618B34FF492794946B3
:101B80002846FFF76FFEE0B149462846FFF76FFE93
:101B9000C5F80883A07E00B96F6002208DF80000B0
:101BA000D5F88004C5F880040390E07D8DF8080026
:101BB000E0680190E6752676D4E900126846904701
:101BC00027E004212846FFF758FE10B34FF4847134
:101BD0002846FFF747FEE0B121462846FFF794FE6E
:101BE000E07D617E884214D1207E38B1617EE2685A
:101BF000E0752069E0602676667607E0A07E00B991
:101C00006F60C5F80883E675617EE2682046FFF7DD
:101C100094FE4FF48E7841462846FFF723FE88B1A4
:101C2000A08AA17D884204D221462846FFF77AFF88
:101C300008E041462846FFF71AFEA17D11B1204673
:101C4000FFF780FF4FF4A27841462846FFF70AFECF
:101C5000002812D041462846FFF709FEA07E00B1B9
:101C60002F60E07D002808D0E675617EE26804B050
:101C70002046BDE8F047FFF760BEBDE8FF872DE9CD
:101C8000FF410C464FF4927705463946FFF7FBFDBE
:101C90000026C0B139462846FFF7FAFD02208DF82C
:101CA0000000D5F88004C5F880040390D5F83C0501
:101CB0008DF80800E0680190E6752676D4E90012F8
:101CC0006846904724E04FF4887739462846FFF766
:101CD000DAFDE8B139462846FFF7DAFDD5F83C05CC
:101CE000C1B2E07D884213D1207E60B1E268D5F8B0
:101CF000000220F02000C5F80002207EE075206977
:101D0000E060267601E0E675E2682046FFF715FE02
:101D10004FF4A27739462846FFF7B5FD68B139463A
:101D20002846FFF7B5FDE07D38B1E675D5F83C05EE
:101D3000E268C1B22046FFF700FE4FF490763146CC
:101D40002846FFF7A0FD00280FD031462846FFF7B0
:101D50009FFDA07D002808D0D5F84C0504B0C1B285
:101D60002046BDE8F041FFF7EDBEBDE8FF81000071
:101D70000A494A788B78521CD2B2934200D1002291
:101D80000B78934201D1002070470270487800EB35
:101D9000400001EBC000001D7047000068010020FA
:101DA000FEF7BABE01000000D007000007000000E7
:101DB000111213140D0E0F1050000020700000209F
:101DC0009C0000200D000300610B00000E000300CA
:101DD000610B00000F000300610B00001000030006
:101DE000610B00000000005001000000D00700005F
:101DF0000700000048010020030000001C1E000036
:101E00000000002050000000700800006C1E000060
:101E10005000002028220000800800000000000080
:101E200000000000000000000000000000000000B2
:101E300000000000000000000000000000000000A2
:101E40000000000000000000000000000000000092
:101E50000000000000000000000000000000000082
:0C1E600000000000000000000090D00313
:0400000500000201F4
:00000001FF
